{
  "contractName": "SwapData",
  "abi": [
    {
      "inputs": [
        {
          "internalType": "address",
          "name": "admin",
          "type": "address"
        },
        {
          "internalType": "address",
          "name": "reader",
          "type": "address"
        },
        {
          "internalType": "address",
          "name": "writer",
          "type": "address"
        }
      ],
      "stateMutability": "nonpayable",
      "type": "constructor"
    },
    {
      "anonymous": false,
      "inputs": [
        {
          "indexed": true,
          "internalType": "bytes32",
          "name": "role",
          "type": "bytes32"
        },
        {
          "indexed": true,
          "internalType": "bytes32",
          "name": "previousAdminRole",
          "type": "bytes32"
        },
        {
          "indexed": true,
          "internalType": "bytes32",
          "name": "newAdminRole",
          "type": "bytes32"
        }
      ],
      "name": "RoleAdminChanged",
      "type": "event"
    },
    {
      "anonymous": false,
      "inputs": [
        {
          "indexed": true,
          "internalType": "bytes32",
          "name": "role",
          "type": "bytes32"
        },
        {
          "indexed": true,
          "internalType": "address",
          "name": "account",
          "type": "address"
        },
        {
          "indexed": true,
          "internalType": "address",
          "name": "sender",
          "type": "address"
        }
      ],
      "name": "RoleGranted",
      "type": "event"
    },
    {
      "anonymous": false,
      "inputs": [
        {
          "indexed": true,
          "internalType": "bytes32",
          "name": "role",
          "type": "bytes32"
        },
        {
          "indexed": true,
          "internalType": "address",
          "name": "account",
          "type": "address"
        },
        {
          "indexed": true,
          "internalType": "address",
          "name": "sender",
          "type": "address"
        }
      ],
      "name": "RoleRevoked",
      "type": "event"
    },
    {
      "inputs": [],
      "name": "DATA_MIGRATOR",
      "outputs": [
        {
          "internalType": "bytes32",
          "name": "",
          "type": "bytes32"
        }
      ],
      "stateMutability": "view",
      "type": "function"
    },
    {
      "inputs": [],
      "name": "DATA_READER",
      "outputs": [
        {
          "internalType": "bytes32",
          "name": "",
          "type": "bytes32"
        }
      ],
      "stateMutability": "view",
      "type": "function"
    },
    {
      "inputs": [],
      "name": "DATA_WRITER",
      "outputs": [
        {
          "internalType": "bytes32",
          "name": "",
          "type": "bytes32"
        }
      ],
      "stateMutability": "view",
      "type": "function"
    },
    {
      "inputs": [],
      "name": "DEFAULT_ADMIN_ROLE",
      "outputs": [
        {
          "internalType": "bytes32",
          "name": "",
          "type": "bytes32"
        }
      ],
      "stateMutability": "view",
      "type": "function"
    },
    {
      "inputs": [
        {
          "internalType": "bytes32",
          "name": "role",
          "type": "bytes32"
        }
      ],
      "name": "getRoleAdmin",
      "outputs": [
        {
          "internalType": "bytes32",
          "name": "",
          "type": "bytes32"
        }
      ],
      "stateMutability": "view",
      "type": "function"
    },
    {
      "inputs": [
        {
          "internalType": "bytes32",
          "name": "role",
          "type": "bytes32"
        },
        {
          "internalType": "address",
          "name": "account",
          "type": "address"
        }
      ],
      "name": "grantRole",
      "outputs": [],
      "stateMutability": "nonpayable",
      "type": "function"
    },
    {
      "inputs": [
        {
          "internalType": "bytes32",
          "name": "role",
          "type": "bytes32"
        },
        {
          "internalType": "address",
          "name": "account",
          "type": "address"
        }
      ],
      "name": "hasRole",
      "outputs": [
        {
          "internalType": "bool",
          "name": "",
          "type": "bool"
        }
      ],
      "stateMutability": "view",
      "type": "function"
    },
    {
      "inputs": [
        {
          "internalType": "bytes32",
          "name": "role",
          "type": "bytes32"
        },
        {
          "internalType": "address",
          "name": "account",
          "type": "address"
        }
      ],
      "name": "renounceRole",
      "outputs": [],
      "stateMutability": "nonpayable",
      "type": "function"
    },
    {
      "inputs": [
        {
          "internalType": "bytes32",
          "name": "role",
          "type": "bytes32"
        },
        {
          "internalType": "address",
          "name": "account",
          "type": "address"
        }
      ],
      "name": "revokeRole",
      "outputs": [],
      "stateMutability": "nonpayable",
      "type": "function"
    },
    {
      "inputs": [
        {
          "internalType": "bytes4",
          "name": "interfaceId",
          "type": "bytes4"
        }
      ],
      "name": "supportsInterface",
      "outputs": [
        {
          "internalType": "bool",
          "name": "",
          "type": "bool"
        }
      ],
      "stateMutability": "view",
      "type": "function"
    },
    {
      "inputs": [],
      "name": "transactionToken",
      "outputs": [
        {
          "internalType": "contract IERC20",
          "name": "",
          "type": "address"
        }
      ],
      "stateMutability": "view",
      "type": "function"
    },
    {
      "inputs": [
        {
          "components": [
            {
              "internalType": "uint256",
              "name": "listingId",
              "type": "uint256"
            },
            {
              "internalType": "contract IERC721",
              "name": "TokenAddress",
              "type": "address"
            },
            {
              "internalType": "uint256",
              "name": "tokenId",
              "type": "uint256"
            },
            {
              "internalType": "address",
              "name": "tokenOwner",
              "type": "address"
            },
            {
              "internalType": "uint256",
              "name": "transactionChargeBips",
              "type": "uint256"
            },
            {
              "internalType": "bool",
              "name": "isCompleted",
              "type": "bool"
            },
            {
              "internalType": "bool",
              "name": "isCancelled",
              "type": "bool"
            },
            {
              "internalType": "uint256",
              "name": "transactionCharge",
              "type": "uint256"
            }
          ],
          "internalType": "struct SwapData.SwapListing",
          "name": "listing",
          "type": "tuple"
        }
      ],
      "name": "addListing",
      "outputs": [],
      "stateMutability": "nonpayable",
      "type": "function"
    },
    {
      "inputs": [
        {
          "internalType": "uint256",
          "name": "id",
          "type": "uint256"
        }
      ],
      "name": "removeListingById",
      "outputs": [],
      "stateMutability": "nonpayable",
      "type": "function"
    },
    {
      "inputs": [
        {
          "components": [
            {
              "internalType": "uint256",
              "name": "listingId",
              "type": "uint256"
            },
            {
              "internalType": "contract IERC721",
              "name": "TokenAddress",
              "type": "address"
            },
            {
              "internalType": "uint256",
              "name": "tokenId",
              "type": "uint256"
            },
            {
              "internalType": "address",
              "name": "tokenOwner",
              "type": "address"
            },
            {
              "internalType": "uint256",
              "name": "transactionChargeBips",
              "type": "uint256"
            },
            {
              "internalType": "bool",
              "name": "isCompleted",
              "type": "bool"
            },
            {
              "internalType": "bool",
              "name": "isCancelled",
              "type": "bool"
            },
            {
              "internalType": "uint256",
              "name": "transactionCharge",
              "type": "uint256"
            }
          ],
          "internalType": "struct SwapData.SwapListing",
          "name": "listing",
          "type": "tuple"
        }
      ],
      "name": "updateListing",
      "outputs": [],
      "stateMutability": "nonpayable",
      "type": "function"
    },
    {
      "inputs": [
        {
          "internalType": "uint256",
          "name": "id",
          "type": "uint256"
        }
      ],
      "name": "readListingById",
      "outputs": [
        {
          "components": [
            {
              "internalType": "uint256",
              "name": "listingId",
              "type": "uint256"
            },
            {
              "internalType": "contract IERC721",
              "name": "TokenAddress",
              "type": "address"
            },
            {
              "internalType": "uint256",
              "name": "tokenId",
              "type": "uint256"
            },
            {
              "internalType": "address",
              "name": "tokenOwner",
              "type": "address"
            },
            {
              "internalType": "uint256",
              "name": "transactionChargeBips",
              "type": "uint256"
            },
            {
              "internalType": "bool",
              "name": "isCompleted",
              "type": "bool"
            },
            {
              "internalType": "bool",
              "name": "isCancelled",
              "type": "bool"
            },
            {
              "internalType": "uint256",
              "name": "transactionCharge",
              "type": "uint256"
            }
          ],
          "internalType": "struct SwapData.SwapListing",
          "name": "",
          "type": "tuple"
        }
      ],
      "stateMutability": "view",
      "type": "function"
    },
    {
      "inputs": [
        {
          "components": [
            {
              "internalType": "uint256",
              "name": "offerId",
              "type": "uint256"
            },
            {
              "internalType": "contract IERC721",
              "name": "offerTokenAddress",
              "type": "address"
            },
            {
              "internalType": "uint256",
              "name": "offerTokenId",
              "type": "uint256"
            },
            {
              "internalType": "address",
              "name": "offerTokenOwner",
              "type": "address"
            },
            {
              "internalType": "contract IERC721",
              "name": "listingTokenAddress",
              "type": "address"
            },
            {
              "internalType": "uint256",
              "name": "listingTokenId",
              "type": "uint256"
            },
            {
              "internalType": "address",
              "name": "listingTokenOwner",
              "type": "address"
            },
            {
              "internalType": "uint256",
              "name": "transactionChargeBips",
              "type": "uint256"
            },
            {
              "internalType": "bool",
              "name": "isCompleted",
              "type": "bool"
            },
            {
              "internalType": "bool",
              "name": "isCancelled",
              "type": "bool"
            },
            {
              "internalType": "uint256",
              "name": "transactionCharge",
              "type": "uint256"
            }
          ],
          "internalType": "struct SwapData.SwapOffer",
          "name": "offer",
          "type": "tuple"
        }
      ],
      "name": "addOffer",
      "outputs": [],
      "stateMutability": "nonpayable",
      "type": "function"
    },
    {
      "inputs": [
        {
          "internalType": "uint256",
          "name": "id",
          "type": "uint256"
        }
      ],
      "name": "removeOfferById",
      "outputs": [],
      "stateMutability": "nonpayable",
      "type": "function"
    },
    {
      "inputs": [
        {
          "components": [
            {
              "internalType": "uint256",
              "name": "offerId",
              "type": "uint256"
            },
            {
              "internalType": "contract IERC721",
              "name": "offerTokenAddress",
              "type": "address"
            },
            {
              "internalType": "uint256",
              "name": "offerTokenId",
              "type": "uint256"
            },
            {
              "internalType": "address",
              "name": "offerTokenOwner",
              "type": "address"
            },
            {
              "internalType": "contract IERC721",
              "name": "listingTokenAddress",
              "type": "address"
            },
            {
              "internalType": "uint256",
              "name": "listingTokenId",
              "type": "uint256"
            },
            {
              "internalType": "address",
              "name": "listingTokenOwner",
              "type": "address"
            },
            {
              "internalType": "uint256",
              "name": "transactionChargeBips",
              "type": "uint256"
            },
            {
              "internalType": "bool",
              "name": "isCompleted",
              "type": "bool"
            },
            {
              "internalType": "bool",
              "name": "isCancelled",
              "type": "bool"
            },
            {
              "internalType": "uint256",
              "name": "transactionCharge",
              "type": "uint256"
            }
          ],
          "internalType": "struct SwapData.SwapOffer",
          "name": "offer",
          "type": "tuple"
        }
      ],
      "name": "updateOffer",
      "outputs": [],
      "stateMutability": "nonpayable",
      "type": "function"
    },
    {
      "inputs": [
        {
          "internalType": "uint256",
          "name": "id",
          "type": "uint256"
        }
      ],
      "name": "readOfferById",
      "outputs": [
        {
          "components": [
            {
              "internalType": "uint256",
              "name": "offerId",
              "type": "uint256"
            },
            {
              "internalType": "contract IERC721",
              "name": "offerTokenAddress",
              "type": "address"
            },
            {
              "internalType": "uint256",
              "name": "offerTokenId",
              "type": "uint256"
            },
            {
              "internalType": "address",
              "name": "offerTokenOwner",
              "type": "address"
            },
            {
              "internalType": "contract IERC721",
              "name": "listingTokenAddress",
              "type": "address"
            },
            {
              "internalType": "uint256",
              "name": "listingTokenId",
              "type": "uint256"
            },
            {
              "internalType": "address",
              "name": "listingTokenOwner",
              "type": "address"
            },
            {
              "internalType": "uint256",
              "name": "transactionChargeBips",
              "type": "uint256"
            },
            {
              "internalType": "bool",
              "name": "isCompleted",
              "type": "bool"
            },
            {
              "internalType": "bool",
              "name": "isCancelled",
              "type": "bool"
            },
            {
              "internalType": "uint256",
              "name": "transactionCharge",
              "type": "uint256"
            }
          ],
          "internalType": "struct SwapData.SwapOffer",
          "name": "",
          "type": "tuple"
        }
      ],
      "stateMutability": "view",
      "type": "function"
    },
    {
      "inputs": [
        {
          "components": [
            {
              "internalType": "uint256",
              "name": "tradeId",
              "type": "uint256"
            },
            {
              "internalType": "uint256",
              "name": "listingId",
              "type": "uint256"
            },
            {
              "internalType": "uint256",
              "name": "offerId",
              "type": "uint256"
            }
          ],
          "internalType": "struct SwapData.Trade",
          "name": "trade",
          "type": "tuple"
        }
      ],
      "name": "addTrade",
      "outputs": [],
      "stateMutability": "nonpayable",
      "type": "function"
    },
    {
      "inputs": [
        {
          "internalType": "uint256",
          "name": "id",
          "type": "uint256"
        }
      ],
      "name": "readTradeById",
      "outputs": [
        {
          "components": [
            {
              "internalType": "uint256",
              "name": "tradeId",
              "type": "uint256"
            },
            {
              "internalType": "uint256",
              "name": "listingId",
              "type": "uint256"
            },
            {
              "internalType": "uint256",
              "name": "offerId",
              "type": "uint256"
            }
          ],
          "internalType": "struct SwapData.Trade",
          "name": "",
          "type": "tuple"
        }
      ],
      "stateMutability": "view",
      "type": "function"
    },
    {
      "inputs": [],
      "name": "readAllListings",
      "outputs": [
        {
          "components": [
            {
              "internalType": "uint256",
              "name": "listingId",
              "type": "uint256"
            },
            {
              "internalType": "contract IERC721",
              "name": "TokenAddress",
              "type": "address"
            },
            {
              "internalType": "uint256",
              "name": "tokenId",
              "type": "uint256"
            },
            {
              "internalType": "address",
              "name": "tokenOwner",
              "type": "address"
            },
            {
              "internalType": "uint256",
              "name": "transactionChargeBips",
              "type": "uint256"
            },
            {
              "internalType": "bool",
              "name": "isCompleted",
              "type": "bool"
            },
            {
              "internalType": "bool",
              "name": "isCancelled",
              "type": "bool"
            },
            {
              "internalType": "uint256",
              "name": "transactionCharge",
              "type": "uint256"
            }
          ],
          "internalType": "struct SwapData.SwapListing[]",
          "name": "",
          "type": "tuple[]"
        }
      ],
      "stateMutability": "view",
      "type": "function"
    },
    {
      "inputs": [],
      "name": "readAllOffers",
      "outputs": [
        {
          "components": [
            {
              "internalType": "uint256",
              "name": "offerId",
              "type": "uint256"
            },
            {
              "internalType": "contract IERC721",
              "name": "offerTokenAddress",
              "type": "address"
            },
            {
              "internalType": "uint256",
              "name": "offerTokenId",
              "type": "uint256"
            },
            {
              "internalType": "address",
              "name": "offerTokenOwner",
              "type": "address"
            },
            {
              "internalType": "contract IERC721",
              "name": "listingTokenAddress",
              "type": "address"
            },
            {
              "internalType": "uint256",
              "name": "listingTokenId",
              "type": "uint256"
            },
            {
              "internalType": "address",
              "name": "listingTokenOwner",
              "type": "address"
            },
            {
              "internalType": "uint256",
              "name": "transactionChargeBips",
              "type": "uint256"
            },
            {
              "internalType": "bool",
              "name": "isCompleted",
              "type": "bool"
            },
            {
              "internalType": "bool",
              "name": "isCancelled",
              "type": "bool"
            },
            {
              "internalType": "uint256",
              "name": "transactionCharge",
              "type": "uint256"
            }
          ],
          "internalType": "struct SwapData.SwapOffer[]",
          "name": "",
          "type": "tuple[]"
        }
      ],
      "stateMutability": "view",
      "type": "function"
    },
    {
      "inputs": [],
      "name": "readAllTrades",
      "outputs": [
        {
          "components": [
            {
              "internalType": "uint256",
              "name": "tradeId",
              "type": "uint256"
            },
            {
              "internalType": "uint256",
              "name": "listingId",
              "type": "uint256"
            },
            {
              "internalType": "uint256",
              "name": "offerId",
              "type": "uint256"
            }
          ],
          "internalType": "struct SwapData.Trade[]",
          "name": "",
          "type": "tuple[]"
        }
      ],
      "stateMutability": "view",
      "type": "function"
    }
  ],
  "bytecode": "0x60806040523480156200001157600080fd5b506040516200339b3803806200339b8339818101604052810190620000379190620002e1565b6200004c6000801b84620000fe60201b60201c565b6200007e7f4058f830d0090d0e7e9292f564bc012c14c180ba909a24148ff08776bb49d7e583620000fe60201b60201c565b620000b07f4b1f673169b7c165c16c575571c9bb3baf6244b05340a0d0c7d6ecefe1ac055b82620000fe60201b60201c565b620000c76001620001ef60201b620018661760201c565b620000de6002620001ef60201b620018661760201c565b620000f56003620001ef60201b620018661760201c565b5050506200033d565b6200011082826200020560201b60201c565b620001eb57600160008084815260200190815260200160002060000160008373ffffffffffffffffffffffffffffffffffffffff1673ffffffffffffffffffffffffffffffffffffffff16815260200190815260200160002060006101000a81548160ff021916908315150217905550620001906200026f60201b60201c565b73ffffffffffffffffffffffffffffffffffffffff168173ffffffffffffffffffffffffffffffffffffffff16837f2f8788117e7eff1d82e926ec794901d17c78024a50270940304540a733656f0d60405160405180910390a45b5050565b6001816000016000828254019250508190555050565b600080600084815260200190815260200160002060000160008373ffffffffffffffffffffffffffffffffffffffff1673ffffffffffffffffffffffffffffffffffffffff16815260200190815260200160002060009054906101000a900460ff16905092915050565b600033905090565b600080fd5b600073ffffffffffffffffffffffffffffffffffffffff82169050919050565b6000620002a9826200027c565b9050919050565b620002bb816200029c565b8114620002c757600080fd5b50565b600081519050620002db81620002b0565b92915050565b600080600060608486031215620002fd57620002fc62000277565b5b60006200030d86828701620002ca565b93505060206200032086828701620002ca565b92505060406200033386828701620002ca565b9150509250925092565b61304e806200034d6000396000f3fe608060405234801561001057600080fd5b50600436106101585760003560e01c8063a217fddf116100c3578063cf2815351161007c578063cf281535146103b5578063cff7c90e146103d1578063d547741f146103ed578063d7aa10fc14610409578063ece633ce14610439578063f022e25c1461045557610158565b8063a217fddf146102f1578063a745314f1461030f578063b81603ba1461032d578063bf34ebc81461035d578063c2c83f9a1461037b578063ca588f5d1461039757610158565b8063366505c111610115578063366505c11461022f5780634168e8971461024b578063636651bb1461026957806367722a221461028557806391d14854146102a35780639901ff63146102d357610158565b806301ffc9a71461015d578063248a9ca31461018d5780632f2ff15d146101bd5780633068bb73146101d957806331ebe3f9146101f557806336568abe14610213575b600080fd5b61017760048036038101906101729190611f5d565b610485565b6040516101849190611fa5565b60405180910390f35b6101a760048036038101906101a29190611ff6565b6104ff565b6040516101b49190612032565b60405180910390f35b6101d760048036038101906101d291906120ab565b61051e565b005b6101f360048036038101906101ee9190612328565b61053f565b005b6101fd610719565b60405161020a9190612456565b60405180910390f35b61022d600480360381019061022891906120ab565b610830565b005b61024960048036038101906102449190612542565b6108b3565b005b610253610a14565b6040516102609190612032565b60405180910390f35b610283600480360381019061027e9190612542565b610a38565b005b61028d610b77565b60405161029a919061277e565b60405180910390f35b6102bd60048036038101906102b891906120ab565b610e31565b6040516102ca9190611fa5565b60405180910390f35b6102db610e9b565b6040516102e89190612032565b60405180910390f35b6102f9610ebf565b6040516103069190612032565b60405180910390f35b610317610ec6565b60405161032491906127c1565b60405180910390f35b610347600480360381019061034291906127dc565b610eec565b60405161035491906128ab565b60405180910390f35b61036561104f565b6040516103729190612a19565b60405180910390f35b610395600480360381019061039091906127dc565b611253565b005b61039f6112b0565b6040516103ac9190612032565b60405180910390f35b6103cf60048036038101906103ca91906127dc565b6112d4565b005b6103eb60048036038101906103e69190612a9f565b611331565b005b610407600480360381019061040291906120ab565b6113ba565b005b610423600480360381019061041e91906127dc565b6113db565b6040516104309190612bad565b60405180910390f35b610453600480360381019061044e9190612328565b6115f4565b005b61046f600480360381019061046a91906127dc565b6117f0565b60405161047c9190612c0b565b60405180910390f35b60007f7965db0b000000000000000000000000000000000000000000000000000000007bffffffffffffffffffffffffffffffffffffffffffffffffffffffff1916827bffffffffffffffffffffffffffffffffffffffffffffffffffffffff191614806104f857506104f78261187c565b5b9050919050565b6000806000838152602001908152602001600020600101549050919050565b610527826104ff565b610530816118e6565b61053a83836118fa565b505050565b7f4b1f673169b7c165c16c575571c9bb3baf6244b05340a0d0c7d6ecefe1ac055b610569816118e6565b8160056000846000015181526020019081526020016000206000820151816000015560208201518160010160006101000a81548173ffffffffffffffffffffffffffffffffffffffff021916908373ffffffffffffffffffffffffffffffffffffffff1602179055506040820151816002015560608201518160030160006101000a81548173ffffffffffffffffffffffffffffffffffffffff021916908373ffffffffffffffffffffffffffffffffffffffff16021790555060808201518160040160006101000a81548173ffffffffffffffffffffffffffffffffffffffff021916908373ffffffffffffffffffffffffffffffffffffffff16021790555060a0820151816005015560c08201518160060160006101000a81548173ffffffffffffffffffffffffffffffffffffffff021916908373ffffffffffffffffffffffffffffffffffffffff16021790555060e082015181600701556101008201518160080160006101000a81548160ff0219169083151502179055506101208201518160080160016101000a81548160ff02191690831515021790555061014082015181600901559050505050565b60607f4058f830d0090d0e7e9292f564bc012c14c180ba909a24148ff08776bb49d7e5610745816118e6565b600061075160036119da565b67ffffffffffffffff81111561076a57610769612101565b5b6040519080825280602002602001820160405280156107a357816020015b610790611daa565b8152602001906001900390816107885790505b50905060005b6107b360036119da565b8110156108275760066000828152602001908152602001600020604051806060016040529081600082015481526020016001820154815260200160028201548152505082828151811061080957610808612c26565b5b6020026020010181905250808061081f90612c84565b9150506107a9565b50809250505090565b6108386119e8565b73ffffffffffffffffffffffffffffffffffffffff168173ffffffffffffffffffffffffffffffffffffffff16146108a5576040517f08c379a000000000000000000000000000000000000000000000000000000000815260040161089c90612d4f565b60405180910390fd5b6108af82826119f0565b5050565b7f4b1f673169b7c165c16c575571c9bb3baf6244b05340a0d0c7d6ecefe1ac055b6108dd816118e6565b6108e760016119da565b82600001818152505081600460006108ff60016119da565b81526020019081526020016000206000820151816000015560208201518160010160006101000a81548173ffffffffffffffffffffffffffffffffffffffff021916908373ffffffffffffffffffffffffffffffffffffffff1602179055506040820151816002015560608201518160030160006101000a81548173ffffffffffffffffffffffffffffffffffffffff021916908373ffffffffffffffffffffffffffffffffffffffff1602179055506080820151816004015560a08201518160050160006101000a81548160ff02191690831515021790555060c08201518160050160016101000a81548160ff02191690831515021790555060e08201518160060155905050610a106001611866565b5050565b7f11110fccdbb5d806b8301c3f7f399455c297483f76b3271f762b634da1a660d281565b7f4b1f673169b7c165c16c575571c9bb3baf6244b05340a0d0c7d6ecefe1ac055b610a62816118e6565b8160046000846000015181526020019081526020016000206000820151816000015560208201518160010160006101000a81548173ffffffffffffffffffffffffffffffffffffffff021916908373ffffffffffffffffffffffffffffffffffffffff1602179055506040820151816002015560608201518160030160006101000a81548173ffffffffffffffffffffffffffffffffffffffff021916908373ffffffffffffffffffffffffffffffffffffffff1602179055506080820151816004015560a08201518160050160006101000a81548160ff02191690831515021790555060c08201518160050160016101000a81548160ff02191690831515021790555060e082015181600601559050505050565b60607f4058f830d0090d0e7e9292f564bc012c14c180ba909a24148ff08776bb49d7e5610ba3816118e6565b6000610baf60026119da565b67ffffffffffffffff811115610bc857610bc7612101565b5b604051908082528060200260200182016040528015610c0157816020015b610bee611dcb565b815260200190600190039081610be65790505b50905060005b610c1160026119da565b811015610e28576005600082815260200190815260200160002060405180610160016040529081600082015481526020016001820160009054906101000a900473ffffffffffffffffffffffffffffffffffffffff1673ffffffffffffffffffffffffffffffffffffffff1673ffffffffffffffffffffffffffffffffffffffff168152602001600282015481526020016003820160009054906101000a900473ffffffffffffffffffffffffffffffffffffffff1673ffffffffffffffffffffffffffffffffffffffff1673ffffffffffffffffffffffffffffffffffffffff1681526020016004820160009054906101000a900473ffffffffffffffffffffffffffffffffffffffff1673ffffffffffffffffffffffffffffffffffffffff1673ffffffffffffffffffffffffffffffffffffffff168152602001600582015481526020016006820160009054906101000a900473ffffffffffffffffffffffffffffffffffffffff1673ffffffffffffffffffffffffffffffffffffffff1673ffffffffffffffffffffffffffffffffffffffff168152602001600782015481526020016008820160009054906101000a900460ff161515151581526020016008820160019054906101000a900460ff16151515158152602001600982015481525050828281518110610e0a57610e09612c26565b5b60200260200101819052508080610e2090612c84565b915050610c07565b50809250505090565b600080600084815260200190815260200160002060000160008373ffffffffffffffffffffffffffffffffffffffff1673ffffffffffffffffffffffffffffffffffffffff16815260200190815260200160002060009054906101000a900460ff16905092915050565b7f4b1f673169b7c165c16c575571c9bb3baf6244b05340a0d0c7d6ecefe1ac055b81565b6000801b81565b600760009054906101000a900473ffffffffffffffffffffffffffffffffffffffff1681565b610ef4611e81565b7f4058f830d0090d0e7e9292f564bc012c14c180ba909a24148ff08776bb49d7e5610f1e816118e6565b6004600084815260200190815260200160002060405180610100016040529081600082015481526020016001820160009054906101000a900473ffffffffffffffffffffffffffffffffffffffff1673ffffffffffffffffffffffffffffffffffffffff1673ffffffffffffffffffffffffffffffffffffffff168152602001600282015481526020016003820160009054906101000a900473ffffffffffffffffffffffffffffffffffffffff1673ffffffffffffffffffffffffffffffffffffffff1673ffffffffffffffffffffffffffffffffffffffff168152602001600482015481526020016005820160009054906101000a900460ff161515151581526020016005820160019054906101000a900460ff16151515158152602001600682015481525050915050919050565b60607f4058f830d0090d0e7e9292f564bc012c14c180ba909a24148ff08776bb49d7e561107b816118e6565b600061108760016119da565b67ffffffffffffffff8111156110a05761109f612101565b5b6040519080825280602002602001820160405280156110d957816020015b6110c6611e81565b8152602001906001900390816110be5790505b50905060005b6110e960016119da565b81101561124a576004600082815260200190815260200160002060405180610100016040529081600082015481526020016001820160009054906101000a900473ffffffffffffffffffffffffffffffffffffffff1673ffffffffffffffffffffffffffffffffffffffff1673ffffffffffffffffffffffffffffffffffffffff168152602001600282015481526020016003820160009054906101000a900473ffffffffffffffffffffffffffffffffffffffff1673ffffffffffffffffffffffffffffffffffffffff1673ffffffffffffffffffffffffffffffffffffffff168152602001600482015481526020016005820160009054906101000a900460ff161515151581526020016005820160019054906101000a900460ff1615151515815260200160068201548152505082828151811061122c5761122b612c26565b5b6020026020010181905250808061124290612c84565b9150506110df565b50809250505090565b7f4b1f673169b7c165c16c575571c9bb3baf6244b05340a0d0c7d6ecefe1ac055b61127d816118e6565b60016005600084815260200190815260200160002060080160016101000a81548160ff0219169083151502179055505050565b7f4058f830d0090d0e7e9292f564bc012c14c180ba909a24148ff08776bb49d7e581565b7f4b1f673169b7c165c16c575571c9bb3baf6244b05340a0d0c7d6ecefe1ac055b6112fe816118e6565b60016004600084815260200190815260200160002060050160016101000a81548160ff0219169083151502179055505050565b7f4b1f673169b7c165c16c575571c9bb3baf6244b05340a0d0c7d6ecefe1ac055b61135b816118e6565b61136560036119da565b826000018181525050816006600061137d60036119da565b81526020019081526020016000206000820151816000015560208201518160010155604082015181600201559050506113b66003611866565b5050565b6113c3826104ff565b6113cc816118e6565b6113d683836119f0565b505050565b6113e3611dcb565b7f4058f830d0090d0e7e9292f564bc012c14c180ba909a24148ff08776bb49d7e561140d816118e6565b6005600084815260200190815260200160002060405180610160016040529081600082015481526020016001820160009054906101000a900473ffffffffffffffffffffffffffffffffffffffff1673ffffffffffffffffffffffffffffffffffffffff1673ffffffffffffffffffffffffffffffffffffffff168152602001600282015481526020016003820160009054906101000a900473ffffffffffffffffffffffffffffffffffffffff1673ffffffffffffffffffffffffffffffffffffffff1673ffffffffffffffffffffffffffffffffffffffff1681526020016004820160009054906101000a900473ffffffffffffffffffffffffffffffffffffffff1673ffffffffffffffffffffffffffffffffffffffff1673ffffffffffffffffffffffffffffffffffffffff168152602001600582015481526020016006820160009054906101000a900473ffffffffffffffffffffffffffffffffffffffff1673ffffffffffffffffffffffffffffffffffffffff1673ffffffffffffffffffffffffffffffffffffffff168152602001600782015481526020016008820160009054906101000a900460ff161515151581526020016008820160019054906101000a900460ff16151515158152602001600982015481525050915050919050565b7f4b1f673169b7c165c16c575571c9bb3baf6244b05340a0d0c7d6ecefe1ac055b61161e816118e6565b61162860026119da565b826000018181525050816005600061164060026119da565b81526020019081526020016000206000820151816000015560208201518160010160006101000a81548173ffffffffffffffffffffffffffffffffffffffff021916908373ffffffffffffffffffffffffffffffffffffffff1602179055506040820151816002015560608201518160030160006101000a81548173ffffffffffffffffffffffffffffffffffffffff021916908373ffffffffffffffffffffffffffffffffffffffff16021790555060808201518160040160006101000a81548173ffffffffffffffffffffffffffffffffffffffff021916908373ffffffffffffffffffffffffffffffffffffffff16021790555060a0820151816005015560c08201518160060160006101000a81548173ffffffffffffffffffffffffffffffffffffffff021916908373ffffffffffffffffffffffffffffffffffffffff16021790555060e082015181600701556101008201518160080160006101000a81548160ff0219169083151502179055506101208201518160080160016101000a81548160ff02191690831515021790555061014082015181600901559050506117ec6002611866565b5050565b6117f8611daa565b7f4058f830d0090d0e7e9292f564bc012c14c180ba909a24148ff08776bb49d7e5611822816118e6565b600660008481526020019081526020016000206040518060600160405290816000820154815260200160018201548152602001600282015481525050915050919050565b6001816000016000828254019250508190555050565b60007f01ffc9a7000000000000000000000000000000000000000000000000000000007bffffffffffffffffffffffffffffffffffffffffffffffffffffffff1916827bffffffffffffffffffffffffffffffffffffffffffffffffffffffff1916149050919050565b6118f7816118f26119e8565b611ad1565b50565b6119048282610e31565b6119d657600160008084815260200190815260200160002060000160008373ffffffffffffffffffffffffffffffffffffffff1673ffffffffffffffffffffffffffffffffffffffff16815260200190815260200160002060006101000a81548160ff02191690831515021790555061197b6119e8565b73ffffffffffffffffffffffffffffffffffffffff168173ffffffffffffffffffffffffffffffffffffffff16837f2f8788117e7eff1d82e926ec794901d17c78024a50270940304540a733656f0d60405160405180910390a45b5050565b600081600001549050919050565b600033905090565b6119fa8282610e31565b15611acd57600080600084815260200190815260200160002060000160008373ffffffffffffffffffffffffffffffffffffffff1673ffffffffffffffffffffffffffffffffffffffff16815260200190815260200160002060006101000a81548160ff021916908315150217905550611a726119e8565b73ffffffffffffffffffffffffffffffffffffffff168173ffffffffffffffffffffffffffffffffffffffff16837ff6391f5c32d9c69d2a47ea670b442974b53935d1edc7fd64eb21e047a839171b60405160405180910390a45b5050565b611adb8282610e31565b611b6a57611b008173ffffffffffffffffffffffffffffffffffffffff166014611b6e565b611b0e8360001c6020611b6e565b604051602001611b1f929190612e78565b6040516020818303038152906040526040517f08c379a0000000000000000000000000000000000000000000000000000000008152600401611b619190612eeb565b60405180910390fd5b5050565b606060006002836002611b819190612f0d565b611b8b9190612f4f565b67ffffffffffffffff811115611ba457611ba3612101565b5b6040519080825280601f01601f191660200182016040528015611bd65781602001600182028036833780820191505090505b5090507f300000000000000000000000000000000000000000000000000000000000000081600081518110611c0e57611c0d612c26565b5b60200101907effffffffffffffffffffffffffffffffffffffffffffffffffffffffffffff1916908160001a9053507f780000000000000000000000000000000000000000000000000000000000000081600181518110611c7257611c71612c26565b5b60200101907effffffffffffffffffffffffffffffffffffffffffffffffffffffffffffff1916908160001a90535060006001846002611cb29190612f0d565b611cbc9190612f4f565b90505b6001811115611d5c577f3031323334353637383961626364656600000000000000000000000000000000600f861660108110611cfe57611cfd612c26565b5b1a60f81b828281518110611d1557611d14612c26565b5b60200101907effffffffffffffffffffffffffffffffffffffffffffffffffffffffffffff1916908160001a905350600485901c945080611d5590612f83565b9050611cbf565b5060008414611da0576040517f08c379a0000000000000000000000000000000000000000000000000000000008152600401611d9790612ff8565b60405180910390fd5b8091505092915050565b60405180606001604052806000815260200160008152602001600081525090565b60405180610160016040528060008152602001600073ffffffffffffffffffffffffffffffffffffffff16815260200160008152602001600073ffffffffffffffffffffffffffffffffffffffff168152602001600073ffffffffffffffffffffffffffffffffffffffff16815260200160008152602001600073ffffffffffffffffffffffffffffffffffffffff16815260200160008152602001600015158152602001600015158152602001600081525090565b60405180610100016040528060008152602001600073ffffffffffffffffffffffffffffffffffffffff16815260200160008152602001600073ffffffffffffffffffffffffffffffffffffffff16815260200160008152602001600015158152602001600015158152602001600081525090565b6000604051905090565b600080fd5b60007fffffffff0000000000000000000000000000000000000000000000000000000082169050919050565b611f3a81611f05565b8114611f4557600080fd5b50565b600081359050611f5781611f31565b92915050565b600060208284031215611f7357611f72611f00565b5b6000611f8184828501611f48565b91505092915050565b60008115159050919050565b611f9f81611f8a565b82525050565b6000602082019050611fba6000830184611f96565b92915050565b6000819050919050565b611fd381611fc0565b8114611fde57600080fd5b50565b600081359050611ff081611fca565b92915050565b60006020828403121561200c5761200b611f00565b5b600061201a84828501611fe1565b91505092915050565b61202c81611fc0565b82525050565b60006020820190506120476000830184612023565b92915050565b600073ffffffffffffffffffffffffffffffffffffffff82169050919050565b60006120788261204d565b9050919050565b6120888161206d565b811461209357600080fd5b50565b6000813590506120a58161207f565b92915050565b600080604083850312156120c2576120c1611f00565b5b60006120d085828601611fe1565b92505060206120e185828601612096565b9150509250929050565b600080fd5b6000601f19601f8301169050919050565b7f4e487b7100000000000000000000000000000000000000000000000000000000600052604160045260246000fd5b612139826120f0565b810181811067ffffffffffffffff8211171561215857612157612101565b5b80604052505050565b600061216b611ef6565b90506121778282612130565b919050565b6000819050919050565b61218f8161217c565b811461219a57600080fd5b50565b6000813590506121ac81612186565b92915050565b60006121bd8261206d565b9050919050565b6121cd816121b2565b81146121d857600080fd5b50565b6000813590506121ea816121c4565b92915050565b6121f981611f8a565b811461220457600080fd5b50565b600081359050612216816121f0565b92915050565b60006101608284031215612233576122326120eb565b5b61223e610160612161565b9050600061224e8482850161219d565b6000830152506020612262848285016121db565b60208301525060406122768482850161219d565b604083015250606061228a84828501612096565b606083015250608061229e848285016121db565b60808301525060a06122b28482850161219d565b60a08301525060c06122c684828501612096565b60c08301525060e06122da8482850161219d565b60e0830152506101006122ef84828501612207565b6101008301525061012061230584828501612207565b6101208301525061014061231b8482850161219d565b6101408301525092915050565b6000610160828403121561233f5761233e611f00565b5b600061234d8482850161221c565b91505092915050565b600081519050919050565b600082825260208201905092915050565b6000819050602082019050919050565b61238b8161217c565b82525050565b6060820160008201516123a76000850182612382565b5060208201516123ba6020850182612382565b5060408201516123cd6040850182612382565b50505050565b60006123df8383612391565b60608301905092915050565b6000602082019050919050565b600061240382612356565b61240d8185612361565b935061241883612372565b8060005b8381101561244957815161243088826123d3565b975061243b836123eb565b92505060018101905061241c565b5085935050505092915050565b6000602082019050818103600083015261247081846123f8565b905092915050565b6000610100828403121561248f5761248e6120eb565b5b61249a610100612161565b905060006124aa8482850161219d565b60008301525060206124be848285016121db565b60208301525060406124d28482850161219d565b60408301525060606124e684828501612096565b60608301525060806124fa8482850161219d565b60808301525060a061250e84828501612207565b60a08301525060c061252284828501612207565b60c08301525060e06125368482850161219d565b60e08301525092915050565b6000610100828403121561255957612558611f00565b5b600061256784828501612478565b91505092915050565b600081519050919050565b600082825260208201905092915050565b6000819050602082019050919050565b6000819050919050565b60006125c16125bc6125b78461204d565b61259c565b61204d565b9050919050565b60006125d3826125a6565b9050919050565b60006125e5826125c8565b9050919050565b6125f5816125da565b82525050565b6126048161206d565b82525050565b61261381611f8a565b82525050565b610160820160008201516126306000850182612382565b50602082015161264360208501826125ec565b5060408201516126566040850182612382565b50606082015161266960608501826125fb565b50608082015161267c60808501826125ec565b5060a082015161268f60a0850182612382565b5060c08201516126a260c08501826125fb565b5060e08201516126b560e0850182612382565b506101008201516126ca61010085018261260a565b506101208201516126df61012085018261260a565b506101408201516126f4610140850182612382565b50505050565b60006127068383612619565b6101608301905092915050565b6000602082019050919050565b600061272b82612570565b612735818561257b565b93506127408361258c565b8060005b8381101561277157815161275888826126fa565b975061276383612713565b925050600181019050612744565b5085935050505092915050565b600060208201905081810360008301526127988184612720565b905092915050565b60006127ab826125c8565b9050919050565b6127bb816127a0565b82525050565b60006020820190506127d660008301846127b2565b92915050565b6000602082840312156127f2576127f1611f00565b5b60006128008482850161219d565b91505092915050565b610100820160008201516128206000850182612382565b50602082015161283360208501826125ec565b5060408201516128466040850182612382565b50606082015161285960608501826125fb565b50608082015161286c6080850182612382565b5060a082015161287f60a085018261260a565b5060c082015161289260c085018261260a565b5060e08201516128a560e0850182612382565b50505050565b6000610100820190506128c16000830184612809565b92915050565b600081519050919050565b600082825260208201905092915050565b6000819050602082019050919050565b6101008201600082015161290a6000850182612382565b50602082015161291d60208501826125ec565b5060408201516129306040850182612382565b50606082015161294360608501826125fb565b5060808201516129566080850182612382565b5060a082015161296960a085018261260a565b5060c082015161297c60c085018261260a565b5060e082015161298f60e0850182612382565b50505050565b60006129a183836128f3565b6101008301905092915050565b6000602082019050919050565b60006129c6826128c7565b6129d081856128d2565b93506129db836128e3565b8060005b83811015612a0c5781516129f38882612995565b97506129fe836129ae565b9250506001810190506129df565b5085935050505092915050565b60006020820190508181036000830152612a3381846129bb565b905092915050565b600060608284031215612a5157612a506120eb565b5b612a5b6060612161565b90506000612a6b8482850161219d565b6000830152506020612a7f8482850161219d565b6020830152506040612a938482850161219d565b60408301525092915050565b600060608284031215612ab557612ab4611f00565b5b6000612ac384828501612a3b565b91505092915050565b61016082016000820151612ae36000850182612382565b506020820151612af660208501826125ec565b506040820151612b096040850182612382565b506060820151612b1c60608501826125fb565b506080820151612b2f60808501826125ec565b5060a0820151612b4260a0850182612382565b5060c0820151612b5560c08501826125fb565b5060e0820151612b6860e0850182612382565b50610100820151612b7d61010085018261260a565b50610120820151612b9261012085018261260a565b50610140820151612ba7610140850182612382565b50505050565b600061016082019050612bc36000830184612acc565b92915050565b606082016000820151612bdf6000850182612382565b506020820151612bf26020850182612382565b506040820151612c056040850182612382565b50505050565b6000606082019050612c206000830184612bc9565b92915050565b7f4e487b7100000000000000000000000000000000000000000000000000000000600052603260045260246000fd5b7f4e487b7100000000000000000000000000000000000000000000000000000000600052601160045260246000fd5b6000612c8f8261217c565b91507fffffffffffffffffffffffffffffffffffffffffffffffffffffffffffffffff8203612cc157612cc0612c55565b5b600182019050919050565b600082825260208201905092915050565b7f416363657373436f6e74726f6c3a2063616e206f6e6c792072656e6f756e636560008201527f20726f6c657320666f722073656c660000000000000000000000000000000000602082015250565b6000612d39602f83612ccc565b9150612d4482612cdd565b604082019050919050565b60006020820190508181036000830152612d6881612d2c565b9050919050565b600081905092915050565b7f416363657373436f6e74726f6c3a206163636f756e7420000000000000000000600082015250565b6000612db0601783612d6f565b9150612dbb82612d7a565b601782019050919050565b600081519050919050565b60005b83811015612def578082015181840152602081019050612dd4565b60008484015250505050565b6000612e0682612dc6565b612e108185612d6f565b9350612e20818560208601612dd1565b80840191505092915050565b7f206973206d697373696e6720726f6c6520000000000000000000000000000000600082015250565b6000612e62601183612d6f565b9150612e6d82612e2c565b601182019050919050565b6000612e8382612da3565b9150612e8f8285612dfb565b9150612e9a82612e55565b9150612ea68284612dfb565b91508190509392505050565b6000612ebd82612dc6565b612ec78185612ccc565b9350612ed7818560208601612dd1565b612ee0816120f0565b840191505092915050565b60006020820190508181036000830152612f058184612eb2565b905092915050565b6000612f188261217c565b9150612f238361217c565b9250828202612f318161217c565b91508282048414831517612f4857612f47612c55565b5b5092915050565b6000612f5a8261217c565b9150612f658361217c565b9250828201905080821115612f7d57612f7c612c55565b5b92915050565b6000612f8e8261217c565b915060008203612fa157612fa0612c55565b5b600182039050919050565b7f537472696e67733a20686578206c656e67746820696e73756666696369656e74600082015250565b6000612fe2602083612ccc565b9150612fed82612fac565b602082019050919050565b6000602082019050818103600083015261301181612fd5565b905091905056fea26469706673582212201271cfd54e6b72e07baaada66a90216a4b82d650352a1c3da2cc67661636577a64736f6c63430008110033",
  "immutableReferences": {},
  "source": "//SPDX-License-Identifier: MIT\r\npragma solidity 0.8.17;\r\n\r\nimport \"@openzeppelin/contracts/access/AccessControl.sol\";\r\nimport \"@openzeppelin/contracts/token/ERC721/IERC721.sol\";\r\nimport \"@openzeppelin/contracts/token/ERC20/IERC20.sol\";\r\nimport \"@openzeppelin/contracts/utils/Counters.sol\";\r\n\r\ncontract SwapData is AccessControl {\r\n    using Counters for Counters.Counter;\r\n\r\n    struct SwapListing {\r\n        uint256 listingId;\r\n        IERC721 TokenAddress;\r\n        uint256 tokenId;\r\n        address tokenOwner;\r\n        uint256 transactionChargeBips;\r\n        bool isCompleted;\r\n        bool isCancelled;\r\n        uint256 transactionCharge;\r\n    }\r\n\r\n    struct SwapOffer {\r\n        uint256 offerId;\r\n        IERC721 offerTokenAddress;\r\n        uint256 offerTokenId;\r\n        address offerTokenOwner;\r\n        IERC721 listingTokenAddress;\r\n        uint256 listingTokenId;\r\n        address listingTokenOwner;\r\n        uint256 transactionChargeBips;\r\n        bool isCompleted;\r\n        bool isCancelled;\r\n        uint256 transactionCharge;\r\n    }\r\n\r\n    struct Trade {\r\n        uint256 tradeId;\r\n        uint256 listingId;\r\n        uint256 offerId;\r\n    }\r\n\r\n    bytes32 public constant DATA_READER = keccak256(\"READ_DATA\");\r\n    bytes32 public constant DATA_WRITER = keccak256(\"WRITE_DATA\");\r\n    bytes32 public constant DATA_MIGRATOR = keccak256(\"DATA_MIGRATOR\");\r\n\r\n    Counters.Counter private _listingIdTracker;\r\n    Counters.Counter private _offerIdTracker;\r\n    Counters.Counter private _tradeIdTracker;\r\n\r\n    mapping(uint256 => SwapListing) private _listings;\r\n    mapping(uint256 => SwapOffer) private _offers;\r\n    mapping(uint256 => Trade) private _trades;\r\n\r\n    constructor(\r\n        address admin,\r\n        address reader,\r\n        address writer\r\n    ) {\r\n        _grantRole(DEFAULT_ADMIN_ROLE, admin); // Admin Wallet address\r\n        _grantRole(DATA_READER, reader); // Swap contract\r\n        _grantRole(DATA_WRITER, writer); // Swap COntract\r\n        _listingIdTracker.increment();\r\n        _offerIdTracker.increment();\r\n        _tradeIdTracker.increment();\r\n    }\r\n\r\n    // CRUD Listing\r\n    function addListing(SwapListing memory listing)\r\n        external\r\n        onlyRole(DATA_WRITER)\r\n    {\r\n        listing.listingId = _listingIdTracker.current();\r\n        _listings[_listingIdTracker.current()] = listing;\r\n        _listingIdTracker.increment();\r\n    }\r\n\r\n    function removeListingById(uint256 id) external onlyRole(DATA_WRITER) {\r\n        _listings[id].isCancelled = true;\r\n    }\r\n\r\n    function updateListing(SwapListing memory listing)\r\n        external\r\n        onlyRole(DATA_WRITER)\r\n    {\r\n        _listings[listing.listingId] = listing;\r\n    }\r\n\r\n    function readListingById(uint256 id)\r\n        external\r\n        view\r\n        onlyRole(DATA_READER)\r\n        returns (SwapListing memory)\r\n    {\r\n        return _listings[id];\r\n    }\r\n\r\n    // CRUD Offer\r\n    function addOffer(SwapOffer memory offer) external onlyRole(DATA_WRITER) {\r\n        offer.offerId = _offerIdTracker.current();\r\n        _offers[_offerIdTracker.current()] = offer;\r\n        _offerIdTracker.increment();\r\n    }\r\n\r\n    function removeOfferById(uint256 id) external onlyRole(DATA_WRITER) {\r\n        _offers[id].isCancelled = true;\r\n    }\r\n\r\n    function updateOffer(SwapOffer memory offer)\r\n        external\r\n        onlyRole(DATA_WRITER)\r\n    {\r\n        _offers[offer.offerId] = offer;\r\n    }\r\n\r\n    function readOfferById(uint256 id)\r\n        external\r\n        view\r\n        onlyRole(DATA_READER)\r\n        returns (SwapOffer memory)\r\n    {\r\n        return _offers[id];\r\n    }\r\n\r\n    function addTrade(Trade memory trade) external onlyRole(DATA_WRITER) {\r\n        trade.tradeId = _tradeIdTracker.current();\r\n        _trades[_tradeIdTracker.current()] = trade;\r\n        _tradeIdTracker.increment();\r\n    }\r\n\r\n    function readTradeById(uint256 id)\r\n        external\r\n        view\r\n        onlyRole(DATA_READER)\r\n        returns (Trade memory)\r\n    {\r\n        return _trades[id];\r\n    }\r\n\r\n    // Bulk reads\r\n    function readAllListings()\r\n        external\r\n        view\r\n        onlyRole(DATA_READER)\r\n        returns (SwapListing[] memory)\r\n    {\r\n        SwapListing[] memory listings = new SwapListing[](\r\n            _listingIdTracker.current()\r\n        );\r\n        for (uint256 i = 0; i < _listingIdTracker.current(); i++) {\r\n            listings[i] = _listings[i];\r\n        }\r\n        return listings;\r\n    }\r\n\r\n    function readAllOffers()\r\n        external\r\n        view\r\n        onlyRole(DATA_READER)\r\n        returns (SwapOffer[] memory)\r\n    {\r\n        SwapOffer[] memory swapOffers = new SwapOffer[](\r\n            _offerIdTracker.current()\r\n        );\r\n        for (uint256 i = 0; i < _offerIdTracker.current(); i++) {\r\n            swapOffers[i] = _offers[i];\r\n        }\r\n        return swapOffers;\r\n    }\r\n\r\n    function readAllTrades()\r\n        external\r\n        view\r\n        onlyRole(DATA_READER)\r\n        returns (Trade[] memory)\r\n    {\r\n        Trade[] memory trades = new Trade[](_tradeIdTracker.current());\r\n        for (uint256 i = 0; i < _tradeIdTracker.current(); i++) {\r\n            trades[i] = _trades[i];\r\n        }\r\n        return trades;\r\n    }\r\n\r\n    IERC20 public transactionToken;\r\n}\r\n",
  "sourcePath": "C:\\git\\freelance\\nft-swap\\contracts\\SwapData.sol",
  "compiler": {
    "name": "solc",
    "version": "0.8.17+commit.8df45f5f.Emscripten.clang"
  },
  "schemaVersion": "3.4.3",
  "updatedAt": "2022-09-22T07:10:22.882Z",
  "devdoc": {
    "kind": "dev",
    "methods": {
      "getRoleAdmin(bytes32)": {
        "details": "Returns the admin role that controls `role`. See {grantRole} and {revokeRole}. To change a role's admin, use {_setRoleAdmin}."
      },
      "grantRole(bytes32,address)": {
        "details": "Grants `role` to `account`. If `account` had not been already granted `role`, emits a {RoleGranted} event. Requirements: - the caller must have ``role``'s admin role. May emit a {RoleGranted} event."
      },
      "hasRole(bytes32,address)": {
        "details": "Returns `true` if `account` has been granted `role`."
      },
      "renounceRole(bytes32,address)": {
        "details": "Revokes `role` from the calling account. Roles are often managed via {grantRole} and {revokeRole}: this function's purpose is to provide a mechanism for accounts to lose their privileges if they are compromised (such as when a trusted device is misplaced). If the calling account had been revoked `role`, emits a {RoleRevoked} event. Requirements: - the caller must be `account`. May emit a {RoleRevoked} event."
      },
      "revokeRole(bytes32,address)": {
        "details": "Revokes `role` from `account`. If `account` had been granted `role`, emits a {RoleRevoked} event. Requirements: - the caller must have ``role``'s admin role. May emit a {RoleRevoked} event."
      },
      "supportsInterface(bytes4)": {
        "details": "See {IERC165-supportsInterface}."
      }
    },
    "version": 1
  },
  "userdoc": {
    "kind": "user",
    "methods": {},
    "version": 1
  }
}