{
  "contractName": "SwapData",
  "abi": [
    {
      "inputs": [
        {
          "internalType": "address",
          "name": "admin",
          "type": "address"
        },
        {
          "internalType": "address",
          "name": "writer",
          "type": "address"
        }
      ],
      "stateMutability": "nonpayable",
      "type": "constructor"
    },
    {
      "anonymous": false,
      "inputs": [
        {
          "indexed": true,
          "internalType": "bytes32",
          "name": "role",
          "type": "bytes32"
        },
        {
          "indexed": true,
          "internalType": "bytes32",
          "name": "previousAdminRole",
          "type": "bytes32"
        },
        {
          "indexed": true,
          "internalType": "bytes32",
          "name": "newAdminRole",
          "type": "bytes32"
        }
      ],
      "name": "RoleAdminChanged",
      "type": "event"
    },
    {
      "anonymous": false,
      "inputs": [
        {
          "indexed": true,
          "internalType": "bytes32",
          "name": "role",
          "type": "bytes32"
        },
        {
          "indexed": true,
          "internalType": "address",
          "name": "account",
          "type": "address"
        },
        {
          "indexed": true,
          "internalType": "address",
          "name": "sender",
          "type": "address"
        }
      ],
      "name": "RoleGranted",
      "type": "event"
    },
    {
      "anonymous": false,
      "inputs": [
        {
          "indexed": true,
          "internalType": "bytes32",
          "name": "role",
          "type": "bytes32"
        },
        {
          "indexed": true,
          "internalType": "address",
          "name": "account",
          "type": "address"
        },
        {
          "indexed": true,
          "internalType": "address",
          "name": "sender",
          "type": "address"
        }
      ],
      "name": "RoleRevoked",
      "type": "event"
    },
    {
      "anonymous": false,
      "inputs": [
        {
          "components": [
            {
              "internalType": "uint256",
              "name": "listingId",
              "type": "uint256"
            },
            {
              "internalType": "contract IERC721",
              "name": "tokenAddress",
              "type": "address"
            },
            {
              "internalType": "uint256",
              "name": "tokenId",
              "type": "uint256"
            },
            {
              "internalType": "address",
              "name": "tokenOwner",
              "type": "address"
            },
            {
              "internalType": "uint256",
              "name": "transactionChargeBips",
              "type": "uint256"
            },
            {
              "internalType": "bool",
              "name": "isCompleted",
              "type": "bool"
            },
            {
              "internalType": "bool",
              "name": "isCancelled",
              "type": "bool"
            },
            {
              "internalType": "uint256",
              "name": "transactionCharge",
              "type": "uint256"
            }
          ],
          "indexed": false,
          "internalType": "struct SwapData.SwapListing",
          "name": "listing",
          "type": "tuple"
        }
      ],
      "name": "SwapListingAdded",
      "type": "event"
    },
    {
      "anonymous": false,
      "inputs": [
        {
          "indexed": false,
          "internalType": "uint256",
          "name": "listingId",
          "type": "uint256"
        }
      ],
      "name": "SwapListingRemoved",
      "type": "event"
    },
    {
      "anonymous": false,
      "inputs": [
        {
          "components": [
            {
              "internalType": "uint256",
              "name": "listingId",
              "type": "uint256"
            },
            {
              "internalType": "contract IERC721",
              "name": "tokenAddress",
              "type": "address"
            },
            {
              "internalType": "uint256",
              "name": "tokenId",
              "type": "uint256"
            },
            {
              "internalType": "address",
              "name": "tokenOwner",
              "type": "address"
            },
            {
              "internalType": "uint256",
              "name": "transactionChargeBips",
              "type": "uint256"
            },
            {
              "internalType": "bool",
              "name": "isCompleted",
              "type": "bool"
            },
            {
              "internalType": "bool",
              "name": "isCancelled",
              "type": "bool"
            },
            {
              "internalType": "uint256",
              "name": "transactionCharge",
              "type": "uint256"
            }
          ],
          "indexed": false,
          "internalType": "struct SwapData.SwapListing",
          "name": "listing",
          "type": "tuple"
        }
      ],
      "name": "SwapListingUpdated",
      "type": "event"
    },
    {
      "anonymous": false,
      "inputs": [
        {
          "components": [
            {
              "internalType": "uint256",
              "name": "offerId",
              "type": "uint256"
            },
            {
              "internalType": "uint256",
              "name": "listingId",
              "type": "uint256"
            },
            {
              "internalType": "contract IERC721",
              "name": "offerTokenAddress",
              "type": "address"
            },
            {
              "internalType": "uint256",
              "name": "offerTokenId",
              "type": "uint256"
            },
            {
              "internalType": "address",
              "name": "offerTokenOwner",
              "type": "address"
            },
            {
              "internalType": "contract IERC721",
              "name": "listingTokenAddress",
              "type": "address"
            },
            {
              "internalType": "uint256",
              "name": "listingTokenId",
              "type": "uint256"
            },
            {
              "internalType": "address",
              "name": "listingTokenOwner",
              "type": "address"
            },
            {
              "internalType": "uint256",
              "name": "transactionChargeBips",
              "type": "uint256"
            },
            {
              "internalType": "bool",
              "name": "isCompleted",
              "type": "bool"
            },
            {
              "internalType": "bool",
              "name": "isCancelled",
              "type": "bool"
            },
            {
              "internalType": "bool",
              "name": "isDeclined",
              "type": "bool"
            },
            {
              "internalType": "uint256",
              "name": "transactionCharge",
              "type": "uint256"
            }
          ],
          "indexed": false,
          "internalType": "struct SwapData.SwapOffer",
          "name": "offer",
          "type": "tuple"
        }
      ],
      "name": "SwapOfferAdded",
      "type": "event"
    },
    {
      "anonymous": false,
      "inputs": [
        {
          "indexed": false,
          "internalType": "uint256",
          "name": "id",
          "type": "uint256"
        }
      ],
      "name": "SwapOfferRemoved",
      "type": "event"
    },
    {
      "anonymous": false,
      "inputs": [
        {
          "components": [
            {
              "internalType": "uint256",
              "name": "offerId",
              "type": "uint256"
            },
            {
              "internalType": "uint256",
              "name": "listingId",
              "type": "uint256"
            },
            {
              "internalType": "contract IERC721",
              "name": "offerTokenAddress",
              "type": "address"
            },
            {
              "internalType": "uint256",
              "name": "offerTokenId",
              "type": "uint256"
            },
            {
              "internalType": "address",
              "name": "offerTokenOwner",
              "type": "address"
            },
            {
              "internalType": "contract IERC721",
              "name": "listingTokenAddress",
              "type": "address"
            },
            {
              "internalType": "uint256",
              "name": "listingTokenId",
              "type": "uint256"
            },
            {
              "internalType": "address",
              "name": "listingTokenOwner",
              "type": "address"
            },
            {
              "internalType": "uint256",
              "name": "transactionChargeBips",
              "type": "uint256"
            },
            {
              "internalType": "bool",
              "name": "isCompleted",
              "type": "bool"
            },
            {
              "internalType": "bool",
              "name": "isCancelled",
              "type": "bool"
            },
            {
              "internalType": "bool",
              "name": "isDeclined",
              "type": "bool"
            },
            {
              "internalType": "uint256",
              "name": "transactionCharge",
              "type": "uint256"
            }
          ],
          "indexed": false,
          "internalType": "struct SwapData.SwapOffer",
          "name": "offer",
          "type": "tuple"
        }
      ],
      "name": "SwapOfferUpdated",
      "type": "event"
    },
    {
      "anonymous": false,
      "inputs": [
        {
          "components": [
            {
              "internalType": "uint256",
              "name": "tradeId",
              "type": "uint256"
            },
            {
              "internalType": "uint256",
              "name": "listingId",
              "type": "uint256"
            },
            {
              "internalType": "uint256",
              "name": "offerId",
              "type": "uint256"
            }
          ],
          "indexed": false,
          "internalType": "struct SwapData.Trade",
          "name": "trade",
          "type": "tuple"
        }
      ],
      "name": "TradeAdded",
      "type": "event"
    },
    {
      "inputs": [],
      "name": "DATA_MIGRATOR",
      "outputs": [
        {
          "internalType": "bytes32",
          "name": "",
          "type": "bytes32"
        }
      ],
      "stateMutability": "view",
      "type": "function"
    },
    {
      "inputs": [],
      "name": "DATA_WRITER",
      "outputs": [
        {
          "internalType": "bytes32",
          "name": "",
          "type": "bytes32"
        }
      ],
      "stateMutability": "view",
      "type": "function"
    },
    {
      "inputs": [],
      "name": "DEFAULT_ADMIN_ROLE",
      "outputs": [
        {
          "internalType": "bytes32",
          "name": "",
          "type": "bytes32"
        }
      ],
      "stateMutability": "view",
      "type": "function"
    },
    {
      "inputs": [
        {
          "internalType": "bytes32",
          "name": "role",
          "type": "bytes32"
        }
      ],
      "name": "getRoleAdmin",
      "outputs": [
        {
          "internalType": "bytes32",
          "name": "",
          "type": "bytes32"
        }
      ],
      "stateMutability": "view",
      "type": "function"
    },
    {
      "inputs": [
        {
          "internalType": "bytes32",
          "name": "role",
          "type": "bytes32"
        },
        {
          "internalType": "address",
          "name": "account",
          "type": "address"
        }
      ],
      "name": "grantRole",
      "outputs": [],
      "stateMutability": "nonpayable",
      "type": "function"
    },
    {
      "inputs": [
        {
          "internalType": "bytes32",
          "name": "role",
          "type": "bytes32"
        },
        {
          "internalType": "address",
          "name": "account",
          "type": "address"
        }
      ],
      "name": "hasRole",
      "outputs": [
        {
          "internalType": "bool",
          "name": "",
          "type": "bool"
        }
      ],
      "stateMutability": "view",
      "type": "function"
    },
    {
      "inputs": [
        {
          "internalType": "bytes32",
          "name": "role",
          "type": "bytes32"
        },
        {
          "internalType": "address",
          "name": "account",
          "type": "address"
        }
      ],
      "name": "renounceRole",
      "outputs": [],
      "stateMutability": "nonpayable",
      "type": "function"
    },
    {
      "inputs": [
        {
          "internalType": "bytes32",
          "name": "role",
          "type": "bytes32"
        },
        {
          "internalType": "address",
          "name": "account",
          "type": "address"
        }
      ],
      "name": "revokeRole",
      "outputs": [],
      "stateMutability": "nonpayable",
      "type": "function"
    },
    {
      "inputs": [
        {
          "internalType": "bytes4",
          "name": "interfaceId",
          "type": "bytes4"
        }
      ],
      "name": "supportsInterface",
      "outputs": [
        {
          "internalType": "bool",
          "name": "",
          "type": "bool"
        }
      ],
      "stateMutability": "view",
      "type": "function"
    },
    {
      "inputs": [],
      "name": "transactionToken",
      "outputs": [
        {
          "internalType": "contract IERC20",
          "name": "",
          "type": "address"
        }
      ],
      "stateMutability": "view",
      "type": "function"
    },
    {
      "inputs": [
        {
          "components": [
            {
              "internalType": "uint256",
              "name": "listingId",
              "type": "uint256"
            },
            {
              "internalType": "contract IERC721",
              "name": "tokenAddress",
              "type": "address"
            },
            {
              "internalType": "uint256",
              "name": "tokenId",
              "type": "uint256"
            },
            {
              "internalType": "address",
              "name": "tokenOwner",
              "type": "address"
            },
            {
              "internalType": "uint256",
              "name": "transactionChargeBips",
              "type": "uint256"
            },
            {
              "internalType": "bool",
              "name": "isCompleted",
              "type": "bool"
            },
            {
              "internalType": "bool",
              "name": "isCancelled",
              "type": "bool"
            },
            {
              "internalType": "uint256",
              "name": "transactionCharge",
              "type": "uint256"
            }
          ],
          "internalType": "struct SwapData.SwapListing",
          "name": "listing",
          "type": "tuple"
        }
      ],
      "name": "addListing",
      "outputs": [
        {
          "internalType": "bool",
          "name": "",
          "type": "bool"
        }
      ],
      "stateMutability": "nonpayable",
      "type": "function"
    },
    {
      "inputs": [
        {
          "internalType": "uint256",
          "name": "id",
          "type": "uint256"
        }
      ],
      "name": "removeListingById",
      "outputs": [
        {
          "internalType": "bool",
          "name": "",
          "type": "bool"
        }
      ],
      "stateMutability": "nonpayable",
      "type": "function"
    },
    {
      "inputs": [
        {
          "components": [
            {
              "internalType": "uint256",
              "name": "listingId",
              "type": "uint256"
            },
            {
              "internalType": "contract IERC721",
              "name": "tokenAddress",
              "type": "address"
            },
            {
              "internalType": "uint256",
              "name": "tokenId",
              "type": "uint256"
            },
            {
              "internalType": "address",
              "name": "tokenOwner",
              "type": "address"
            },
            {
              "internalType": "uint256",
              "name": "transactionChargeBips",
              "type": "uint256"
            },
            {
              "internalType": "bool",
              "name": "isCompleted",
              "type": "bool"
            },
            {
              "internalType": "bool",
              "name": "isCancelled",
              "type": "bool"
            },
            {
              "internalType": "uint256",
              "name": "transactionCharge",
              "type": "uint256"
            }
          ],
          "internalType": "struct SwapData.SwapListing",
          "name": "listing",
          "type": "tuple"
        }
      ],
      "name": "updateListing",
      "outputs": [
        {
          "internalType": "bool",
          "name": "",
          "type": "bool"
        }
      ],
      "stateMutability": "nonpayable",
      "type": "function"
    },
    {
      "inputs": [
        {
          "internalType": "uint256",
          "name": "id",
          "type": "uint256"
        }
      ],
      "name": "readListingById",
      "outputs": [
        {
          "components": [
            {
              "internalType": "uint256",
              "name": "listingId",
              "type": "uint256"
            },
            {
              "internalType": "contract IERC721",
              "name": "tokenAddress",
              "type": "address"
            },
            {
              "internalType": "uint256",
              "name": "tokenId",
              "type": "uint256"
            },
            {
              "internalType": "address",
              "name": "tokenOwner",
              "type": "address"
            },
            {
              "internalType": "uint256",
              "name": "transactionChargeBips",
              "type": "uint256"
            },
            {
              "internalType": "bool",
              "name": "isCompleted",
              "type": "bool"
            },
            {
              "internalType": "bool",
              "name": "isCancelled",
              "type": "bool"
            },
            {
              "internalType": "uint256",
              "name": "transactionCharge",
              "type": "uint256"
            }
          ],
          "internalType": "struct SwapData.SwapListing",
          "name": "",
          "type": "tuple"
        }
      ],
      "stateMutability": "view",
      "type": "function"
    },
    {
      "inputs": [
        {
          "components": [
            {
              "internalType": "uint256",
              "name": "offerId",
              "type": "uint256"
            },
            {
              "internalType": "uint256",
              "name": "listingId",
              "type": "uint256"
            },
            {
              "internalType": "contract IERC721",
              "name": "offerTokenAddress",
              "type": "address"
            },
            {
              "internalType": "uint256",
              "name": "offerTokenId",
              "type": "uint256"
            },
            {
              "internalType": "address",
              "name": "offerTokenOwner",
              "type": "address"
            },
            {
              "internalType": "contract IERC721",
              "name": "listingTokenAddress",
              "type": "address"
            },
            {
              "internalType": "uint256",
              "name": "listingTokenId",
              "type": "uint256"
            },
            {
              "internalType": "address",
              "name": "listingTokenOwner",
              "type": "address"
            },
            {
              "internalType": "uint256",
              "name": "transactionChargeBips",
              "type": "uint256"
            },
            {
              "internalType": "bool",
              "name": "isCompleted",
              "type": "bool"
            },
            {
              "internalType": "bool",
              "name": "isCancelled",
              "type": "bool"
            },
            {
              "internalType": "bool",
              "name": "isDeclined",
              "type": "bool"
            },
            {
              "internalType": "uint256",
              "name": "transactionCharge",
              "type": "uint256"
            }
          ],
          "internalType": "struct SwapData.SwapOffer",
          "name": "offer",
          "type": "tuple"
        }
      ],
      "name": "addOffer",
      "outputs": [
        {
          "internalType": "bool",
          "name": "",
          "type": "bool"
        }
      ],
      "stateMutability": "nonpayable",
      "type": "function"
    },
    {
      "inputs": [
        {
          "internalType": "uint256",
          "name": "id",
          "type": "uint256"
        }
      ],
      "name": "removeOfferById",
      "outputs": [
        {
          "internalType": "bool",
          "name": "",
          "type": "bool"
        }
      ],
      "stateMutability": "nonpayable",
      "type": "function"
    },
    {
      "inputs": [
        {
          "components": [
            {
              "internalType": "uint256",
              "name": "offerId",
              "type": "uint256"
            },
            {
              "internalType": "uint256",
              "name": "listingId",
              "type": "uint256"
            },
            {
              "internalType": "contract IERC721",
              "name": "offerTokenAddress",
              "type": "address"
            },
            {
              "internalType": "uint256",
              "name": "offerTokenId",
              "type": "uint256"
            },
            {
              "internalType": "address",
              "name": "offerTokenOwner",
              "type": "address"
            },
            {
              "internalType": "contract IERC721",
              "name": "listingTokenAddress",
              "type": "address"
            },
            {
              "internalType": "uint256",
              "name": "listingTokenId",
              "type": "uint256"
            },
            {
              "internalType": "address",
              "name": "listingTokenOwner",
              "type": "address"
            },
            {
              "internalType": "uint256",
              "name": "transactionChargeBips",
              "type": "uint256"
            },
            {
              "internalType": "bool",
              "name": "isCompleted",
              "type": "bool"
            },
            {
              "internalType": "bool",
              "name": "isCancelled",
              "type": "bool"
            },
            {
              "internalType": "bool",
              "name": "isDeclined",
              "type": "bool"
            },
            {
              "internalType": "uint256",
              "name": "transactionCharge",
              "type": "uint256"
            }
          ],
          "internalType": "struct SwapData.SwapOffer",
          "name": "offer",
          "type": "tuple"
        }
      ],
      "name": "updateOffer",
      "outputs": [
        {
          "internalType": "bool",
          "name": "",
          "type": "bool"
        }
      ],
      "stateMutability": "nonpayable",
      "type": "function"
    },
    {
      "inputs": [
        {
          "internalType": "uint256",
          "name": "id",
          "type": "uint256"
        }
      ],
      "name": "readOfferById",
      "outputs": [
        {
          "components": [
            {
              "internalType": "uint256",
              "name": "offerId",
              "type": "uint256"
            },
            {
              "internalType": "uint256",
              "name": "listingId",
              "type": "uint256"
            },
            {
              "internalType": "contract IERC721",
              "name": "offerTokenAddress",
              "type": "address"
            },
            {
              "internalType": "uint256",
              "name": "offerTokenId",
              "type": "uint256"
            },
            {
              "internalType": "address",
              "name": "offerTokenOwner",
              "type": "address"
            },
            {
              "internalType": "contract IERC721",
              "name": "listingTokenAddress",
              "type": "address"
            },
            {
              "internalType": "uint256",
              "name": "listingTokenId",
              "type": "uint256"
            },
            {
              "internalType": "address",
              "name": "listingTokenOwner",
              "type": "address"
            },
            {
              "internalType": "uint256",
              "name": "transactionChargeBips",
              "type": "uint256"
            },
            {
              "internalType": "bool",
              "name": "isCompleted",
              "type": "bool"
            },
            {
              "internalType": "bool",
              "name": "isCancelled",
              "type": "bool"
            },
            {
              "internalType": "bool",
              "name": "isDeclined",
              "type": "bool"
            },
            {
              "internalType": "uint256",
              "name": "transactionCharge",
              "type": "uint256"
            }
          ],
          "internalType": "struct SwapData.SwapOffer",
          "name": "",
          "type": "tuple"
        }
      ],
      "stateMutability": "view",
      "type": "function"
    },
    {
      "inputs": [
        {
          "components": [
            {
              "internalType": "uint256",
              "name": "tradeId",
              "type": "uint256"
            },
            {
              "internalType": "uint256",
              "name": "listingId",
              "type": "uint256"
            },
            {
              "internalType": "uint256",
              "name": "offerId",
              "type": "uint256"
            }
          ],
          "internalType": "struct SwapData.Trade",
          "name": "trade",
          "type": "tuple"
        }
      ],
      "name": "addTrade",
      "outputs": [
        {
          "internalType": "bool",
          "name": "",
          "type": "bool"
        }
      ],
      "stateMutability": "nonpayable",
      "type": "function"
    },
    {
      "inputs": [
        {
          "internalType": "uint256",
          "name": "id",
          "type": "uint256"
        }
      ],
      "name": "readTradeById",
      "outputs": [
        {
          "components": [
            {
              "internalType": "uint256",
              "name": "tradeId",
              "type": "uint256"
            },
            {
              "internalType": "uint256",
              "name": "listingId",
              "type": "uint256"
            },
            {
              "internalType": "uint256",
              "name": "offerId",
              "type": "uint256"
            }
          ],
          "internalType": "struct SwapData.Trade",
          "name": "",
          "type": "tuple"
        }
      ],
      "stateMutability": "view",
      "type": "function"
    },
    {
      "inputs": [],
      "name": "readAllListings",
      "outputs": [
        {
          "components": [
            {
              "internalType": "uint256",
              "name": "listingId",
              "type": "uint256"
            },
            {
              "internalType": "contract IERC721",
              "name": "tokenAddress",
              "type": "address"
            },
            {
              "internalType": "uint256",
              "name": "tokenId",
              "type": "uint256"
            },
            {
              "internalType": "address",
              "name": "tokenOwner",
              "type": "address"
            },
            {
              "internalType": "uint256",
              "name": "transactionChargeBips",
              "type": "uint256"
            },
            {
              "internalType": "bool",
              "name": "isCompleted",
              "type": "bool"
            },
            {
              "internalType": "bool",
              "name": "isCancelled",
              "type": "bool"
            },
            {
              "internalType": "uint256",
              "name": "transactionCharge",
              "type": "uint256"
            }
          ],
          "internalType": "struct SwapData.SwapListing[]",
          "name": "",
          "type": "tuple[]"
        }
      ],
      "stateMutability": "view",
      "type": "function"
    },
    {
      "inputs": [],
      "name": "readAllOffers",
      "outputs": [
        {
          "components": [
            {
              "internalType": "uint256",
              "name": "offerId",
              "type": "uint256"
            },
            {
              "internalType": "uint256",
              "name": "listingId",
              "type": "uint256"
            },
            {
              "internalType": "contract IERC721",
              "name": "offerTokenAddress",
              "type": "address"
            },
            {
              "internalType": "uint256",
              "name": "offerTokenId",
              "type": "uint256"
            },
            {
              "internalType": "address",
              "name": "offerTokenOwner",
              "type": "address"
            },
            {
              "internalType": "contract IERC721",
              "name": "listingTokenAddress",
              "type": "address"
            },
            {
              "internalType": "uint256",
              "name": "listingTokenId",
              "type": "uint256"
            },
            {
              "internalType": "address",
              "name": "listingTokenOwner",
              "type": "address"
            },
            {
              "internalType": "uint256",
              "name": "transactionChargeBips",
              "type": "uint256"
            },
            {
              "internalType": "bool",
              "name": "isCompleted",
              "type": "bool"
            },
            {
              "internalType": "bool",
              "name": "isCancelled",
              "type": "bool"
            },
            {
              "internalType": "bool",
              "name": "isDeclined",
              "type": "bool"
            },
            {
              "internalType": "uint256",
              "name": "transactionCharge",
              "type": "uint256"
            }
          ],
          "internalType": "struct SwapData.SwapOffer[]",
          "name": "",
          "type": "tuple[]"
        }
      ],
      "stateMutability": "view",
      "type": "function"
    },
    {
      "inputs": [],
      "name": "readAllTrades",
      "outputs": [
        {
          "components": [
            {
              "internalType": "uint256",
              "name": "tradeId",
              "type": "uint256"
            },
            {
              "internalType": "uint256",
              "name": "listingId",
              "type": "uint256"
            },
            {
              "internalType": "uint256",
              "name": "offerId",
              "type": "uint256"
            }
          ],
          "internalType": "struct SwapData.Trade[]",
          "name": "",
          "type": "tuple[]"
        }
      ],
      "stateMutability": "view",
      "type": "function"
    },
    {
      "inputs": [
        {
          "internalType": "address",
          "name": "to",
          "type": "address"
        }
      ],
      "name": "grantWriterRole",
      "outputs": [],
      "stateMutability": "nonpayable",
      "type": "function"
    }
  ],
  "bytecode": "0x60806040523480156200001157600080fd5b506040516200368a3803806200368a8339818101604052810190620000379190620002ae565b6200004c6000801b83620000cb60201b60201c565b6200007e7f4b1f673169b7c165c16c575571c9bb3baf6244b05340a0d0c7d6ecefe1ac055b82620000cb60201b60201c565b620000956001620001bc60201b62001a821760201c565b620000ac6002620001bc60201b62001a821760201c565b620000c36003620001bc60201b62001a821760201c565b5050620002f5565b620000dd8282620001d260201b60201c565b620001b857600160008084815260200190815260200160002060000160008373ffffffffffffffffffffffffffffffffffffffff1673ffffffffffffffffffffffffffffffffffffffff16815260200190815260200160002060006101000a81548160ff0219169083151502179055506200015d6200023c60201b60201c565b73ffffffffffffffffffffffffffffffffffffffff168173ffffffffffffffffffffffffffffffffffffffff16837f2f8788117e7eff1d82e926ec794901d17c78024a50270940304540a733656f0d60405160405180910390a45b5050565b6001816000016000828254019250508190555050565b600080600084815260200190815260200160002060000160008373ffffffffffffffffffffffffffffffffffffffff1673ffffffffffffffffffffffffffffffffffffffff16815260200190815260200160002060009054906101000a900460ff16905092915050565b600033905090565b600080fd5b600073ffffffffffffffffffffffffffffffffffffffff82169050919050565b6000620002768262000249565b9050919050565b620002888162000269565b81146200029457600080fd5b50565b600081519050620002a8816200027d565b92915050565b60008060408385031215620002c857620002c762000244565b5b6000620002d88582860162000297565b9250506020620002eb8582860162000297565b9150509250929050565b61338580620003056000396000f3fe608060405234801561001057600080fd5b50600436106101585760003560e01c80639901ff63116100c3578063cd07708d1161007c578063cd07708d14610417578063cf28153514610433578063cff7c90e14610463578063d547741f14610493578063d7aa10fc146104af578063f022e25c146104df57610158565b80639901ff631461033f578063a217fddf1461035d578063a745314f1461037b578063b81603ba14610399578063bf34ebc8146103c9578063c2c83f9a146103e757610158565b80634168e897116101155780634168e897146102435780635541596b14610261578063636651bb1461029157806367722a22146102c15780639167be62146102df57806391d148541461030f57610158565b806301ffc9a71461015d578063248a9ca31461018d5780632f2ff15d146101bd57806331ebe3f9146101d957806336568abe146101f7578063366505c114610213575b600080fd5b61017760048036038101906101729190612189565b61050f565b60405161018491906121d1565b60405180910390f35b6101a760048036038101906101a29190612222565b610589565b6040516101b4919061225e565b60405180910390f35b6101d760048036038101906101d291906122d7565b6105a8565b005b6101e16105c9565b6040516101ee9190612421565b60405180910390f35b610211600480360381019061020c91906122d7565b6106c5565b005b61022d60048036038101906102289190612634565b610748565b60405161023a91906121d1565b60405180910390f35b61024b6108e8565b604051610258919061225e565b60405180910390f35b61027b6004803603810190610276919061279a565b61090c565b60405161028891906121d1565b60405180910390f35b6102ab60048036038101906102a69190612634565b610b73565b6040516102b891906121d1565b60405180910390f35b6102c9610cf1565b6040516102d69190612a00565b60405180910390f35b6102f960048036038101906102f4919061279a565b610fb5565b60405161030691906121d1565b60405180910390f35b610329600480360381019061032491906122d7565b6111fa565b60405161033691906121d1565b60405180910390f35b610347611264565b604051610354919061225e565b60405180910390f35b610365611288565b604051610372919061225e565b60405180910390f35b61038361128f565b6040516103909190612a43565b60405180910390f35b6103b360048036038101906103ae9190612a5e565b6112b5565b6040516103c09190612b2d565b60405180910390f35b6103d16113ed565b6040516103de9190612c9b565b60405180910390f35b61040160048036038101906103fc9190612a5e565b6115d6565b60405161040e91906121d1565b60405180910390f35b610431600480360381019061042c9190612cbd565b611672565b005b61044d60048036038101906104489190612a5e565b61169f565b60405161045a91906121d1565b60405180910390f35b61047d60048036038101906104789190612d4e565b61173b565b60405161048a91906121d1565b60405180910390f35b6104ad60048036038101906104a891906122d7565b611803565b005b6104c960048036038101906104c49190612a5e565b611824565b6040516104d69190612e86565b60405180910390f35b6104f960048036038101906104f49190612a5e565b611a37565b6040516105069190612ee4565b60405180910390f35b60007f7965db0b000000000000000000000000000000000000000000000000000000007bffffffffffffffffffffffffffffffffffffffffffffffffffffffff1916827bffffffffffffffffffffffffffffffffffffffffffffffffffffffff19161480610582575061058182611a98565b5b9050919050565b6000806000838152602001908152602001600020600101549050919050565b6105b182610589565b6105ba81611b02565b6105c48383611b16565b505050565b6060600060016105d96003611bf6565b6105e39190612f2e565b67ffffffffffffffff8111156105fc576105fb612459565b5b60405190808252806020026020018201604052801561063557816020015b610622611fc6565b81526020019060019003908161061a5790505b50905060005b81518110156106bd57600660006001836106559190612f62565b8152602001908152602001600020604051806060016040529081600082015481526020016001820154815260200160028201548152505082828151811061069f5761069e612f96565b5b602002602001018190525080806106b590612fc5565b91505061063b565b508091505090565b6106cd611c04565b73ffffffffffffffffffffffffffffffffffffffff168173ffffffffffffffffffffffffffffffffffffffff161461073a576040517f08c379a000000000000000000000000000000000000000000000000000000000815260040161073190613090565b60405180910390fd5b6107448282611c0c565b5050565b60007f4b1f673169b7c165c16c575571c9bb3baf6244b05340a0d0c7d6ecefe1ac055b61077481611b02565b61077e6001611bf6565b83600001818152505082600460006107966001611bf6565b81526020019081526020016000206000820151816000015560208201518160010160006101000a81548173ffffffffffffffffffffffffffffffffffffffff021916908373ffffffffffffffffffffffffffffffffffffffff1602179055506040820151816002015560608201518160030160006101000a81548173ffffffffffffffffffffffffffffffffffffffff021916908373ffffffffffffffffffffffffffffffffffffffff1602179055506080820151816004015560a08201518160050160006101000a81548160ff02191690831515021790555060c08201518160050160016101000a81548160ff02191690831515021790555060e082015181600601559050506108a76001611a82565b7f418cd676c9793f75ba96025aa3d745018dc4edc4b51d104cea0af0fc7b9b0d26836040516108d69190612b2d565b60405180910390a16001915050919050565b7f11110fccdbb5d806b8301c3f7f399455c297483f76b3271f762b634da1a660d281565b60007f4b1f673169b7c165c16c575571c9bb3baf6244b05340a0d0c7d6ecefe1ac055b61093881611b02565b6109426002611bf6565b836000018181525050826005600061095a6002611bf6565b8152602001908152602001600020600082015181600001556020820151816001015560408201518160020160006101000a81548173ffffffffffffffffffffffffffffffffffffffff021916908373ffffffffffffffffffffffffffffffffffffffff1602179055506060820151816003015560808201518160040160006101000a81548173ffffffffffffffffffffffffffffffffffffffff021916908373ffffffffffffffffffffffffffffffffffffffff16021790555060a08201518160050160006101000a81548173ffffffffffffffffffffffffffffffffffffffff021916908373ffffffffffffffffffffffffffffffffffffffff16021790555060c0820151816006015560e08201518160070160006101000a81548173ffffffffffffffffffffffffffffffffffffffff021916908373ffffffffffffffffffffffffffffffffffffffff16021790555061010082015181600801556101208201518160090160006101000a81548160ff0219169083151502179055506101408201518160090160016101000a81548160ff0219169083151502179055506101608201518160090160026101000a81548160ff02191690831515021790555061018082015181600a0155905050610b326002611a82565b7f421ea47ef6e721c8687eff283e3cae83ec79fb379ac7e5be4285c4f4c68c3e5483604051610b619190612e86565b60405180910390a16001915050919050565b60007f4b1f673169b7c165c16c575571c9bb3baf6244b05340a0d0c7d6ecefe1ac055b610b9f81611b02565b8260046000856000015181526020019081526020016000206000820151816000015560208201518160010160006101000a81548173ffffffffffffffffffffffffffffffffffffffff021916908373ffffffffffffffffffffffffffffffffffffffff1602179055506040820151816002015560608201518160030160006101000a81548173ffffffffffffffffffffffffffffffffffffffff021916908373ffffffffffffffffffffffffffffffffffffffff1602179055506080820151816004015560a08201518160050160006101000a81548160ff02191690831515021790555060c08201518160050160016101000a81548160ff02191690831515021790555060e082015181600601559050507ffac338531d5b0b2165f434d6b3974a2d388f546fee8aae7ce385671015eeaacb83604051610cdf9190612b2d565b60405180910390a16001915050919050565b606060006001610d016002611bf6565b610d0b9190612f2e565b67ffffffffffffffff811115610d2457610d23612459565b5b604051908082528060200260200182016040528015610d5d57816020015b610d4a611fe7565b815260200190600190039081610d425790505b50905060005b8151811015610fad5760056000600183610d7d9190612f62565b8152602001908152602001600020604051806101a001604052908160008201548152602001600182015481526020016002820160009054906101000a900473ffffffffffffffffffffffffffffffffffffffff1673ffffffffffffffffffffffffffffffffffffffff1673ffffffffffffffffffffffffffffffffffffffff168152602001600382015481526020016004820160009054906101000a900473ffffffffffffffffffffffffffffffffffffffff1673ffffffffffffffffffffffffffffffffffffffff1673ffffffffffffffffffffffffffffffffffffffff1681526020016005820160009054906101000a900473ffffffffffffffffffffffffffffffffffffffff1673ffffffffffffffffffffffffffffffffffffffff1673ffffffffffffffffffffffffffffffffffffffff168152602001600682015481526020016007820160009054906101000a900473ffffffffffffffffffffffffffffffffffffffff1673ffffffffffffffffffffffffffffffffffffffff1673ffffffffffffffffffffffffffffffffffffffff168152602001600882015481526020016009820160009054906101000a900460ff161515151581526020016009820160019054906101000a900460ff161515151581526020016009820160029054906101000a900460ff16151515158152602001600a82015481525050828281518110610f8f57610f8e612f96565b5b60200260200101819052508080610fa590612fc5565b915050610d63565b508091505090565b60007f4b1f673169b7c165c16c575571c9bb3baf6244b05340a0d0c7d6ecefe1ac055b610fe181611b02565b826005600085600001518152602001908152602001600020600082015181600001556020820151816001015560408201518160020160006101000a81548173ffffffffffffffffffffffffffffffffffffffff021916908373ffffffffffffffffffffffffffffffffffffffff1602179055506060820151816003015560808201518160040160006101000a81548173ffffffffffffffffffffffffffffffffffffffff021916908373ffffffffffffffffffffffffffffffffffffffff16021790555060a08201518160050160006101000a81548173ffffffffffffffffffffffffffffffffffffffff021916908373ffffffffffffffffffffffffffffffffffffffff16021790555060c0820151816006015560e08201518160070160006101000a81548173ffffffffffffffffffffffffffffffffffffffff021916908373ffffffffffffffffffffffffffffffffffffffff16021790555061010082015181600801556101208201518160090160006101000a81548160ff0219169083151502179055506101408201518160090160016101000a81548160ff0219169083151502179055506101608201518160090160026101000a81548160ff02191690831515021790555061018082015181600a01559050507f73bf10f431953401ad4adc876e49289879495ffba6b1e6fcab8499ed4fb1ef57836040516111e89190612e86565b60405180910390a16001915050919050565b600080600084815260200190815260200160002060000160008373ffffffffffffffffffffffffffffffffffffffff1673ffffffffffffffffffffffffffffffffffffffff16815260200190815260200160002060009054906101000a900460ff16905092915050565b7f4b1f673169b7c165c16c575571c9bb3baf6244b05340a0d0c7d6ecefe1ac055b81565b6000801b81565b600760009054906101000a900473ffffffffffffffffffffffffffffffffffffffff1681565b6112bd6120ad565b6004600083815260200190815260200160002060405180610100016040529081600082015481526020016001820160009054906101000a900473ffffffffffffffffffffffffffffffffffffffff1673ffffffffffffffffffffffffffffffffffffffff1673ffffffffffffffffffffffffffffffffffffffff168152602001600282015481526020016003820160009054906101000a900473ffffffffffffffffffffffffffffffffffffffff1673ffffffffffffffffffffffffffffffffffffffff1673ffffffffffffffffffffffffffffffffffffffff168152602001600482015481526020016005820160009054906101000a900460ff161515151581526020016005820160019054906101000a900460ff161515151581526020016006820154815250509050919050565b6060600060016113fd6001611bf6565b6114079190612f2e565b67ffffffffffffffff8111156114205761141f612459565b5b60405190808252806020026020018201604052801561145957816020015b6114466120ad565b81526020019060019003908161143e5790505b50905060005b81518110156115ce57600460006001836114799190612f62565b815260200190815260200160002060405180610100016040529081600082015481526020016001820160009054906101000a900473ffffffffffffffffffffffffffffffffffffffff1673ffffffffffffffffffffffffffffffffffffffff1673ffffffffffffffffffffffffffffffffffffffff168152602001600282015481526020016003820160009054906101000a900473ffffffffffffffffffffffffffffffffffffffff1673ffffffffffffffffffffffffffffffffffffffff1673ffffffffffffffffffffffffffffffffffffffff168152602001600482015481526020016005820160009054906101000a900460ff161515151581526020016005820160019054906101000a900460ff161515151581526020016006820154815250508282815181106115b0576115af612f96565b5b602002602001018190525080806115c690612fc5565b91505061145f565b508091505090565b60007f4b1f673169b7c165c16c575571c9bb3baf6244b05340a0d0c7d6ecefe1ac055b61160281611b02565b60016005600085815260200190815260200160002060090160016101000a81548160ff0219169083151502179055507f9658b6b21254e18b2df762ac28da18a17c7d65232a3985638e301b3ee8b1467e8360405161166091906130bf565b60405180910390a16001915050919050565b61169c7f4b1f673169b7c165c16c575571c9bb3baf6244b05340a0d0c7d6ecefe1ac055b826105a8565b50565b60007f4b1f673169b7c165c16c575571c9bb3baf6244b05340a0d0c7d6ecefe1ac055b6116cb81611b02565b60016004600085815260200190815260200160002060050160016101000a81548160ff0219169083151502179055507f3e93d23e063b84ea7cefd61949968ea1c1f2bfb0b9135599af8044766f7bce888360405161172991906130bf565b60405180910390a16001915050919050565b60007f4b1f673169b7c165c16c575571c9bb3baf6244b05340a0d0c7d6ecefe1ac055b61176781611b02565b6117716003611bf6565b83600001818152505082600660006117896003611bf6565b81526020019081526020016000206000820151816000015560208201518160010155604082015181600201559050506117c26003611a82565b7f3e548515aa4f5661aa8f01438dcebdc27111ecdeedb4e19d9b1974fa7049149b836040516117f19190612ee4565b60405180910390a16001915050919050565b61180c82610589565b61181581611b02565b61181f8383611c0c565b505050565b61182c611fe7565b60056000838152602001908152602001600020604051806101a001604052908160008201548152602001600182015481526020016002820160009054906101000a900473ffffffffffffffffffffffffffffffffffffffff1673ffffffffffffffffffffffffffffffffffffffff1673ffffffffffffffffffffffffffffffffffffffff168152602001600382015481526020016004820160009054906101000a900473ffffffffffffffffffffffffffffffffffffffff1673ffffffffffffffffffffffffffffffffffffffff1673ffffffffffffffffffffffffffffffffffffffff1681526020016005820160009054906101000a900473ffffffffffffffffffffffffffffffffffffffff1673ffffffffffffffffffffffffffffffffffffffff1673ffffffffffffffffffffffffffffffffffffffff168152602001600682015481526020016007820160009054906101000a900473ffffffffffffffffffffffffffffffffffffffff1673ffffffffffffffffffffffffffffffffffffffff1673ffffffffffffffffffffffffffffffffffffffff168152602001600882015481526020016009820160009054906101000a900460ff161515151581526020016009820160019054906101000a900460ff161515151581526020016009820160029054906101000a900460ff16151515158152602001600a820154815250509050919050565b611a3f611fc6565b6006600083815260200190815260200160002060405180606001604052908160008201548152602001600182015481526020016002820154815250509050919050565b6001816000016000828254019250508190555050565b60007f01ffc9a7000000000000000000000000000000000000000000000000000000007bffffffffffffffffffffffffffffffffffffffffffffffffffffffff1916827bffffffffffffffffffffffffffffffffffffffffffffffffffffffff1916149050919050565b611b1381611b0e611c04565b611ced565b50565b611b2082826111fa565b611bf257600160008084815260200190815260200160002060000160008373ffffffffffffffffffffffffffffffffffffffff1673ffffffffffffffffffffffffffffffffffffffff16815260200190815260200160002060006101000a81548160ff021916908315150217905550611b97611c04565b73ffffffffffffffffffffffffffffffffffffffff168173ffffffffffffffffffffffffffffffffffffffff16837f2f8788117e7eff1d82e926ec794901d17c78024a50270940304540a733656f0d60405160405180910390a45b5050565b600081600001549050919050565b600033905090565b611c1682826111fa565b15611ce957600080600084815260200190815260200160002060000160008373ffffffffffffffffffffffffffffffffffffffff1673ffffffffffffffffffffffffffffffffffffffff16815260200190815260200160002060006101000a81548160ff021916908315150217905550611c8e611c04565b73ffffffffffffffffffffffffffffffffffffffff168173ffffffffffffffffffffffffffffffffffffffff16837ff6391f5c32d9c69d2a47ea670b442974b53935d1edc7fd64eb21e047a839171b60405160405180910390a45b5050565b611cf782826111fa565b611d8657611d1c8173ffffffffffffffffffffffffffffffffffffffff166014611d8a565b611d2a8360001c6020611d8a565b604051602001611d3b9291906131e3565b6040516020818303038152906040526040517f08c379a0000000000000000000000000000000000000000000000000000000008152600401611d7d9190613256565b60405180910390fd5b5050565b606060006002836002611d9d9190613278565b611da79190612f62565b67ffffffffffffffff811115611dc057611dbf612459565b5b6040519080825280601f01601f191660200182016040528015611df25781602001600182028036833780820191505090505b5090507f300000000000000000000000000000000000000000000000000000000000000081600081518110611e2a57611e29612f96565b5b60200101907effffffffffffffffffffffffffffffffffffffffffffffffffffffffffffff1916908160001a9053507f780000000000000000000000000000000000000000000000000000000000000081600181518110611e8e57611e8d612f96565b5b60200101907effffffffffffffffffffffffffffffffffffffffffffffffffffffffffffff1916908160001a90535060006001846002611ece9190613278565b611ed89190612f62565b90505b6001811115611f78577f3031323334353637383961626364656600000000000000000000000000000000600f861660108110611f1a57611f19612f96565b5b1a60f81b828281518110611f3157611f30612f96565b5b60200101907effffffffffffffffffffffffffffffffffffffffffffffffffffffffffffff1916908160001a905350600485901c945080611f71906132ba565b9050611edb565b5060008414611fbc576040517f08c379a0000000000000000000000000000000000000000000000000000000008152600401611fb39061332f565b60405180910390fd5b8091505092915050565b60405180606001604052806000815260200160008152602001600081525090565b604051806101a001604052806000815260200160008152602001600073ffffffffffffffffffffffffffffffffffffffff16815260200160008152602001600073ffffffffffffffffffffffffffffffffffffffff168152602001600073ffffffffffffffffffffffffffffffffffffffff16815260200160008152602001600073ffffffffffffffffffffffffffffffffffffffff16815260200160008152602001600015158152602001600015158152602001600015158152602001600081525090565b60405180610100016040528060008152602001600073ffffffffffffffffffffffffffffffffffffffff16815260200160008152602001600073ffffffffffffffffffffffffffffffffffffffff16815260200160008152602001600015158152602001600015158152602001600081525090565b6000604051905090565b600080fd5b60007fffffffff0000000000000000000000000000000000000000000000000000000082169050919050565b61216681612131565b811461217157600080fd5b50565b6000813590506121838161215d565b92915050565b60006020828403121561219f5761219e61212c565b5b60006121ad84828501612174565b91505092915050565b60008115159050919050565b6121cb816121b6565b82525050565b60006020820190506121e660008301846121c2565b92915050565b6000819050919050565b6121ff816121ec565b811461220a57600080fd5b50565b60008135905061221c816121f6565b92915050565b6000602082840312156122385761223761212c565b5b60006122468482850161220d565b91505092915050565b612258816121ec565b82525050565b6000602082019050612273600083018461224f565b92915050565b600073ffffffffffffffffffffffffffffffffffffffff82169050919050565b60006122a482612279565b9050919050565b6122b481612299565b81146122bf57600080fd5b50565b6000813590506122d1816122ab565b92915050565b600080604083850312156122ee576122ed61212c565b5b60006122fc8582860161220d565b925050602061230d858286016122c2565b9150509250929050565b600081519050919050565b600082825260208201905092915050565b6000819050602082019050919050565b6000819050919050565b61235681612343565b82525050565b606082016000820151612372600085018261234d565b506020820151612385602085018261234d565b506040820151612398604085018261234d565b50505050565b60006123aa838361235c565b60608301905092915050565b6000602082019050919050565b60006123ce82612317565b6123d88185612322565b93506123e383612333565b8060005b838110156124145781516123fb888261239e565b9750612406836123b6565b9250506001810190506123e7565b5085935050505092915050565b6000602082019050818103600083015261243b81846123c3565b905092915050565b600080fd5b6000601f19601f8301169050919050565b7f4e487b7100000000000000000000000000000000000000000000000000000000600052604160045260246000fd5b61249182612448565b810181811067ffffffffffffffff821117156124b0576124af612459565b5b80604052505050565b60006124c3612122565b90506124cf8282612488565b919050565b6124dd81612343565b81146124e857600080fd5b50565b6000813590506124fa816124d4565b92915050565b600061250b82612299565b9050919050565b61251b81612500565b811461252657600080fd5b50565b60008135905061253881612512565b92915050565b612547816121b6565b811461255257600080fd5b50565b6000813590506125648161253e565b92915050565b6000610100828403121561258157612580612443565b5b61258c6101006124b9565b9050600061259c848285016124eb565b60008301525060206125b084828501612529565b60208301525060406125c4848285016124eb565b60408301525060606125d8848285016122c2565b60608301525060806125ec848285016124eb565b60808301525060a061260084828501612555565b60a08301525060c061261484828501612555565b60c08301525060e0612628848285016124eb565b60e08301525092915050565b6000610100828403121561264b5761264a61212c565b5b60006126598482850161256a565b91505092915050565b60006101a0828403121561267957612678612443565b5b6126846101a06124b9565b90506000612694848285016124eb565b60008301525060206126a8848285016124eb565b60208301525060406126bc84828501612529565b60408301525060606126d0848285016124eb565b60608301525060806126e4848285016122c2565b60808301525060a06126f884828501612529565b60a08301525060c061270c848285016124eb565b60c08301525060e0612720848285016122c2565b60e083015250610100612735848285016124eb565b6101008301525061012061274b84828501612555565b6101208301525061014061276184828501612555565b6101408301525061016061277784828501612555565b6101608301525061018061278d848285016124eb565b6101808301525092915050565b60006101a082840312156127b1576127b061212c565b5b60006127bf84828501612662565b91505092915050565b600081519050919050565b600082825260208201905092915050565b6000819050602082019050919050565b6000819050919050565b600061281961281461280f84612279565b6127f4565b612279565b9050919050565b600061282b826127fe565b9050919050565b600061283d82612820565b9050919050565b61284d81612832565b82525050565b61285c81612299565b82525050565b61286b816121b6565b82525050565b6101a082016000820151612888600085018261234d565b50602082015161289b602085018261234d565b5060408201516128ae6040850182612844565b5060608201516128c1606085018261234d565b5060808201516128d46080850182612853565b5060a08201516128e760a0850182612844565b5060c08201516128fa60c085018261234d565b5060e082015161290d60e0850182612853565b5061010082015161292261010085018261234d565b50610120820151612937610120850182612862565b5061014082015161294c610140850182612862565b50610160820151612961610160850182612862565b5061018082015161297661018085018261234d565b50505050565b60006129888383612871565b6101a08301905092915050565b6000602082019050919050565b60006129ad826127c8565b6129b781856127d3565b93506129c2836127e4565b8060005b838110156129f35781516129da888261297c565b97506129e583612995565b9250506001810190506129c6565b5085935050505092915050565b60006020820190508181036000830152612a1a81846129a2565b905092915050565b6000612a2d82612820565b9050919050565b612a3d81612a22565b82525050565b6000602082019050612a586000830184612a34565b92915050565b600060208284031215612a7457612a7361212c565b5b6000612a82848285016124eb565b91505092915050565b61010082016000820151612aa2600085018261234d565b506020820151612ab56020850182612844565b506040820151612ac8604085018261234d565b506060820151612adb6060850182612853565b506080820151612aee608085018261234d565b5060a0820151612b0160a0850182612862565b5060c0820151612b1460c0850182612862565b5060e0820151612b2760e085018261234d565b50505050565b600061010082019050612b436000830184612a8b565b92915050565b600081519050919050565b600082825260208201905092915050565b6000819050602082019050919050565b61010082016000820151612b8c600085018261234d565b506020820151612b9f6020850182612844565b506040820151612bb2604085018261234d565b506060820151612bc56060850182612853565b506080820151612bd8608085018261234d565b5060a0820151612beb60a0850182612862565b5060c0820151612bfe60c0850182612862565b5060e0820151612c1160e085018261234d565b50505050565b6000612c238383612b75565b6101008301905092915050565b6000602082019050919050565b6000612c4882612b49565b612c528185612b54565b9350612c5d83612b65565b8060005b83811015612c8e578151612c758882612c17565b9750612c8083612c30565b925050600181019050612c61565b5085935050505092915050565b60006020820190508181036000830152612cb58184612c3d565b905092915050565b600060208284031215612cd357612cd261212c565b5b6000612ce1848285016122c2565b91505092915050565b600060608284031215612d0057612cff612443565b5b612d0a60606124b9565b90506000612d1a848285016124eb565b6000830152506020612d2e848285016124eb565b6020830152506040612d42848285016124eb565b60408301525092915050565b600060608284031215612d6457612d6361212c565b5b6000612d7284828501612cea565b91505092915050565b6101a082016000820151612d92600085018261234d565b506020820151612da5602085018261234d565b506040820151612db86040850182612844565b506060820151612dcb606085018261234d565b506080820151612dde6080850182612853565b5060a0820151612df160a0850182612844565b5060c0820151612e0460c085018261234d565b5060e0820151612e1760e0850182612853565b50610100820151612e2c61010085018261234d565b50610120820151612e41610120850182612862565b50610140820151612e56610140850182612862565b50610160820151612e6b610160850182612862565b50610180820151612e8061018085018261234d565b50505050565b60006101a082019050612e9c6000830184612d7b565b92915050565b606082016000820151612eb8600085018261234d565b506020820151612ecb602085018261234d565b506040820151612ede604085018261234d565b50505050565b6000606082019050612ef96000830184612ea2565b92915050565b7f4e487b7100000000000000000000000000000000000000000000000000000000600052601160045260246000fd5b6000612f3982612343565b9150612f4483612343565b9250828203905081811115612f5c57612f5b612eff565b5b92915050565b6000612f6d82612343565b9150612f7883612343565b9250828201905080821115612f9057612f8f612eff565b5b92915050565b7f4e487b7100000000000000000000000000000000000000000000000000000000600052603260045260246000fd5b6000612fd082612343565b91507fffffffffffffffffffffffffffffffffffffffffffffffffffffffffffffffff820361300257613001612eff565b5b600182019050919050565b600082825260208201905092915050565b7f416363657373436f6e74726f6c3a2063616e206f6e6c792072656e6f756e636560008201527f20726f6c657320666f722073656c660000000000000000000000000000000000602082015250565b600061307a602f8361300d565b91506130858261301e565b604082019050919050565b600060208201905081810360008301526130a98161306d565b9050919050565b6130b981612343565b82525050565b60006020820190506130d460008301846130b0565b92915050565b600081905092915050565b7f416363657373436f6e74726f6c3a206163636f756e7420000000000000000000600082015250565b600061311b6017836130da565b9150613126826130e5565b601782019050919050565b600081519050919050565b60005b8381101561315a57808201518184015260208101905061313f565b60008484015250505050565b600061317182613131565b61317b81856130da565b935061318b81856020860161313c565b80840191505092915050565b7f206973206d697373696e6720726f6c6520000000000000000000000000000000600082015250565b60006131cd6011836130da565b91506131d882613197565b601182019050919050565b60006131ee8261310e565b91506131fa8285613166565b9150613205826131c0565b91506132118284613166565b91508190509392505050565b600061322882613131565b613232818561300d565b935061324281856020860161313c565b61324b81612448565b840191505092915050565b60006020820190508181036000830152613270818461321d565b905092915050565b600061328382612343565b915061328e83612343565b925082820261329c81612343565b915082820484148315176132b3576132b2612eff565b5b5092915050565b60006132c582612343565b9150600082036132d8576132d7612eff565b5b600182039050919050565b7f537472696e67733a20686578206c656e67746820696e73756666696369656e74600082015250565b600061331960208361300d565b9150613324826132e3565b602082019050919050565b600060208201905081810360008301526133488161330c565b905091905056fea2646970667358221220734b537087ad4d9b7935f8076b889615d3e865b61d8f2f8db16fc5f03df0008764736f6c63430008110033",
  "immutableReferences": {},
  "source": "//SPDX-License-Identifier: MIT\npragma solidity 0.8.17;\n\nimport \"@openzeppelin/contracts/access/AccessControl.sol\";\nimport \"@openzeppelin/contracts/token/ERC721/IERC721.sol\";\nimport \"@openzeppelin/contracts/token/ERC20/IERC20.sol\";\nimport \"@openzeppelin/contracts/utils/Counters.sol\";\n\ncontract SwapData is AccessControl {\n    using Counters for Counters.Counter;\n\n    struct SwapListing {\n        uint256 listingId;\n        IERC721 tokenAddress;\n        uint256 tokenId;\n        address tokenOwner;\n        uint256 transactionChargeBips;\n        bool isCompleted;\n        bool isCancelled;\n        uint256 transactionCharge;\n    }\n\n    struct SwapOffer {\n        uint256 offerId;\n        uint256 listingId;\n        IERC721 offerTokenAddress;\n        uint256 offerTokenId;\n        address offerTokenOwner;\n        IERC721 listingTokenAddress;\n        uint256 listingTokenId;\n        address listingTokenOwner;\n        uint256 transactionChargeBips;\n        bool isCompleted;\n        bool isCancelled;\n        bool isDeclined;\n        uint256 transactionCharge;\n    }\n\n    struct Trade {\n        uint256 tradeId;\n        uint256 listingId;\n        uint256 offerId;\n    }\n\n    bytes32 public constant DATA_WRITER = keccak256(\"WRITE_DATA\");\n    bytes32 public constant DATA_MIGRATOR = keccak256(\"DATA_MIGRATOR\");\n\n    Counters.Counter private _listingIdTracker;\n    Counters.Counter private _offerIdTracker;\n    Counters.Counter private _tradeIdTracker;\n\n    mapping(uint256 => SwapListing) private _listings;\n    mapping(uint256 => SwapOffer) private _offers;\n    mapping(uint256 => Trade) private _trades;\n\n    event SwapListingAdded(SwapListing listing);\n    event SwapListingUpdated(SwapListing listing);\n    event SwapListingRemoved(uint256 listingId);\n    event SwapOfferAdded(SwapOffer offer);\n    event SwapOfferUpdated(SwapOffer offer);\n    event SwapOfferRemoved(uint256 id);\n    event TradeAdded(Trade trade);\n\n    constructor(\n        address admin,\n        address writer\n    ) {\n        _grantRole(DEFAULT_ADMIN_ROLE, admin); // Admin Wallet address\n        _grantRole(DATA_WRITER, writer); // Swap COntract\n        _listingIdTracker.increment();\n        _offerIdTracker.increment();\n        _tradeIdTracker.increment();\n    }\n\n    // CRUD Listing\n    function addListing(SwapListing memory listing)\n        external\n        onlyRole(DATA_WRITER)\n        returns (bool)\n    {\n        listing.listingId = _listingIdTracker.current();\n        _listings[_listingIdTracker.current()] = listing;\n        _listingIdTracker.increment();\n        emit SwapListingAdded(listing);\n        return true;\n    }\n\n    function removeListingById(uint256 id)\n        external\n        onlyRole(DATA_WRITER)\n        returns (bool)\n    {\n        _listings[id].isCancelled = true;\n        emit SwapListingRemoved(id);\n        return true;\n    }\n\n    function updateListing(SwapListing memory listing)\n        external\n        onlyRole(DATA_WRITER)\n        returns (bool)\n    {\n        _listings[listing.listingId] = listing;\n        emit SwapListingUpdated(listing);\n        return true;\n    }\n\n    function readListingById(uint256 id)\n        external\n        view\n        returns (SwapListing memory)\n    {\n        return _listings[id];\n    }\n\n    // CRUD Offer\n    function addOffer(SwapOffer memory offer)\n        external\n        onlyRole(DATA_WRITER)\n        returns (bool)\n    {\n        offer.offerId = _offerIdTracker.current();\n        _offers[_offerIdTracker.current()] = offer;\n        _offerIdTracker.increment();\n        emit SwapOfferAdded(offer);\n        return true;\n    }\n\n    function removeOfferById(uint256 id)\n        external\n        onlyRole(DATA_WRITER)\n        returns (bool)\n    {\n        _offers[id].isCancelled = true;\n        emit SwapOfferRemoved(id);\n        return true;\n    }\n\n    function updateOffer(SwapOffer memory offer)\n        external\n        onlyRole(DATA_WRITER)\n        returns (bool)\n    {\n        _offers[offer.offerId] = offer;\n        emit SwapOfferUpdated(offer);\n        return true;\n    }\n\n    function readOfferById(uint256 id)\n        external\n        view\n        returns (SwapOffer memory)\n    {\n        return _offers[id];\n    }\n\n    function addTrade(Trade memory trade)\n        external\n        onlyRole(DATA_WRITER)\n        returns (bool)\n    {\n        trade.tradeId = _tradeIdTracker.current();\n        _trades[_tradeIdTracker.current()] = trade;\n        _tradeIdTracker.increment();\n        emit TradeAdded(trade);\n        return true;\n    }\n\n    function readTradeById(uint256 id)\n        external\n        view\n        returns (Trade memory)\n    {\n        return _trades[id];\n    }\n\n    // Bulk reads\n    function readAllListings()\n        external\n        view\n        returns (SwapListing[] memory)\n    {\n        SwapListing[] memory listings = new SwapListing[](\n            _listingIdTracker.current() - 1\n        );\n        for (uint256 i = 0; i < listings.length; i++) {\n            listings[i] = _listings[i + 1];\n        }\n        return listings;\n    }\n\n    function readAllOffers()\n        external\n        view\n        returns (SwapOffer[] memory)\n    {\n        SwapOffer[] memory swapOffers = new SwapOffer[](\n            _offerIdTracker.current() - 1\n        );\n        for (uint256 i = 0; i < swapOffers.length; i++) {\n            swapOffers[i] = _offers[i + 1];\n        }\n        return swapOffers;\n    }\n\n    function readAllTrades()\n        external\n        view\n        returns (Trade[] memory)\n    {\n        Trade[] memory trades = new Trade[](_tradeIdTracker.current() - 1);\n        for (uint256 i = 0; i < trades.length; i++) {\n            trades[i] = _trades[i + 1];\n        }\n        return trades;\n    }\n\n    function grantWriterRole(address to) external {\n        grantRole(DATA_WRITER, to);\n    }\n\n    IERC20 public transactionToken;\n}\n",
  "sourcePath": "/Users/shivam/github/nft-swap/contracts/SwapData.sol",
  "compiler": {
    "name": "solc",
    "version": "0.8.17+commit.8df45f5f.Emscripten.clang"
  },
  "schemaVersion": "3.4.7",
  "updatedAt": "2022-11-26T20:38:26.623Z",
  "devdoc": {
    "kind": "dev",
    "methods": {
      "getRoleAdmin(bytes32)": {
        "details": "Returns the admin role that controls `role`. See {grantRole} and {revokeRole}. To change a role's admin, use {_setRoleAdmin}."
      },
      "grantRole(bytes32,address)": {
        "details": "Grants `role` to `account`. If `account` had not been already granted `role`, emits a {RoleGranted} event. Requirements: - the caller must have ``role``'s admin role. May emit a {RoleGranted} event."
      },
      "hasRole(bytes32,address)": {
        "details": "Returns `true` if `account` has been granted `role`."
      },
      "renounceRole(bytes32,address)": {
        "details": "Revokes `role` from the calling account. Roles are often managed via {grantRole} and {revokeRole}: this function's purpose is to provide a mechanism for accounts to lose their privileges if they are compromised (such as when a trusted device is misplaced). If the calling account had been revoked `role`, emits a {RoleRevoked} event. Requirements: - the caller must be `account`. May emit a {RoleRevoked} event."
      },
      "revokeRole(bytes32,address)": {
        "details": "Revokes `role` from `account`. If `account` had been granted `role`, emits a {RoleRevoked} event. Requirements: - the caller must have ``role``'s admin role. May emit a {RoleRevoked} event."
      },
      "supportsInterface(bytes4)": {
        "details": "See {IERC165-supportsInterface}."
      }
    },
    "version": 1
  },
  "userdoc": {
    "kind": "user",
    "methods": {},
    "version": 1
  }
}