{
  "contractName": "SwapData",
  "abi": [
    {
      "inputs": [
        {
          "internalType": "address",
          "name": "admin",
          "type": "address"
        },
        {
          "internalType": "address",
          "name": "writer",
          "type": "address"
        }
      ],
      "stateMutability": "nonpayable",
      "type": "constructor"
    },
    {
      "anonymous": false,
      "inputs": [
        {
          "indexed": true,
          "internalType": "bytes32",
          "name": "role",
          "type": "bytes32"
        },
        {
          "indexed": true,
          "internalType": "bytes32",
          "name": "previousAdminRole",
          "type": "bytes32"
        },
        {
          "indexed": true,
          "internalType": "bytes32",
          "name": "newAdminRole",
          "type": "bytes32"
        }
      ],
      "name": "RoleAdminChanged",
      "type": "event"
    },
    {
      "anonymous": false,
      "inputs": [
        {
          "indexed": true,
          "internalType": "bytes32",
          "name": "role",
          "type": "bytes32"
        },
        {
          "indexed": true,
          "internalType": "address",
          "name": "account",
          "type": "address"
        },
        {
          "indexed": true,
          "internalType": "address",
          "name": "sender",
          "type": "address"
        }
      ],
      "name": "RoleGranted",
      "type": "event"
    },
    {
      "anonymous": false,
      "inputs": [
        {
          "indexed": true,
          "internalType": "bytes32",
          "name": "role",
          "type": "bytes32"
        },
        {
          "indexed": true,
          "internalType": "address",
          "name": "account",
          "type": "address"
        },
        {
          "indexed": true,
          "internalType": "address",
          "name": "sender",
          "type": "address"
        }
      ],
      "name": "RoleRevoked",
      "type": "event"
    },
    {
      "anonymous": false,
      "inputs": [
        {
          "components": [
            {
              "internalType": "uint256",
              "name": "listingId",
              "type": "uint256"
            },
            {
              "internalType": "contract IERC721",
              "name": "tokenAddress",
              "type": "address"
            },
            {
              "internalType": "uint256",
              "name": "tokenId",
              "type": "uint256"
            },
            {
              "internalType": "address",
              "name": "tokenOwner",
              "type": "address"
            },
            {
              "internalType": "uint256",
              "name": "transactionChargeBips",
              "type": "uint256"
            },
            {
              "internalType": "bool",
              "name": "isCompleted",
              "type": "bool"
            },
            {
              "internalType": "bool",
              "name": "isCancelled",
              "type": "bool"
            },
            {
              "internalType": "uint256",
              "name": "transactionCharge",
              "type": "uint256"
            }
          ],
          "indexed": false,
          "internalType": "struct SwapData.SwapListing",
          "name": "listing",
          "type": "tuple"
        }
      ],
      "name": "SwapListingAdded",
      "type": "event"
    },
    {
      "anonymous": false,
      "inputs": [
        {
          "indexed": false,
          "internalType": "uint256",
          "name": "listingId",
          "type": "uint256"
        }
      ],
      "name": "SwapListingRemoved",
      "type": "event"
    },
    {
      "anonymous": false,
      "inputs": [
        {
          "components": [
            {
              "internalType": "uint256",
              "name": "listingId",
              "type": "uint256"
            },
            {
              "internalType": "contract IERC721",
              "name": "tokenAddress",
              "type": "address"
            },
            {
              "internalType": "uint256",
              "name": "tokenId",
              "type": "uint256"
            },
            {
              "internalType": "address",
              "name": "tokenOwner",
              "type": "address"
            },
            {
              "internalType": "uint256",
              "name": "transactionChargeBips",
              "type": "uint256"
            },
            {
              "internalType": "bool",
              "name": "isCompleted",
              "type": "bool"
            },
            {
              "internalType": "bool",
              "name": "isCancelled",
              "type": "bool"
            },
            {
              "internalType": "uint256",
              "name": "transactionCharge",
              "type": "uint256"
            }
          ],
          "indexed": false,
          "internalType": "struct SwapData.SwapListing",
          "name": "listing",
          "type": "tuple"
        }
      ],
      "name": "SwapListingUpdated",
      "type": "event"
    },
    {
      "anonymous": false,
      "inputs": [
        {
          "components": [
            {
              "internalType": "uint256",
              "name": "offerId",
              "type": "uint256"
            },
            {
              "internalType": "uint256",
              "name": "listingId",
              "type": "uint256"
            },
            {
              "internalType": "contract IERC721",
              "name": "offerTokenAddress",
              "type": "address"
            },
            {
              "internalType": "uint256",
              "name": "offerTokenId",
              "type": "uint256"
            },
            {
              "internalType": "address",
              "name": "offerTokenOwner",
              "type": "address"
            },
            {
              "internalType": "contract IERC721",
              "name": "listingTokenAddress",
              "type": "address"
            },
            {
              "internalType": "uint256",
              "name": "listingTokenId",
              "type": "uint256"
            },
            {
              "internalType": "address",
              "name": "listingTokenOwner",
              "type": "address"
            },
            {
              "internalType": "uint256",
              "name": "transactionChargeBips",
              "type": "uint256"
            },
            {
              "internalType": "bool",
              "name": "isCompleted",
              "type": "bool"
            },
            {
              "internalType": "bool",
              "name": "isCancelled",
              "type": "bool"
            },
            {
              "internalType": "bool",
              "name": "isDeclined",
              "type": "bool"
            },
            {
              "internalType": "uint256",
              "name": "transactionCharge",
              "type": "uint256"
            }
          ],
          "indexed": false,
          "internalType": "struct SwapData.SwapOffer",
          "name": "offer",
          "type": "tuple"
        }
      ],
      "name": "SwapOfferAdded",
      "type": "event"
    },
    {
      "anonymous": false,
      "inputs": [
        {
          "indexed": false,
          "internalType": "uint256",
          "name": "id",
          "type": "uint256"
        }
      ],
      "name": "SwapOfferRemoved",
      "type": "event"
    },
    {
      "anonymous": false,
      "inputs": [
        {
          "components": [
            {
              "internalType": "uint256",
              "name": "offerId",
              "type": "uint256"
            },
            {
              "internalType": "uint256",
              "name": "listingId",
              "type": "uint256"
            },
            {
              "internalType": "contract IERC721",
              "name": "offerTokenAddress",
              "type": "address"
            },
            {
              "internalType": "uint256",
              "name": "offerTokenId",
              "type": "uint256"
            },
            {
              "internalType": "address",
              "name": "offerTokenOwner",
              "type": "address"
            },
            {
              "internalType": "contract IERC721",
              "name": "listingTokenAddress",
              "type": "address"
            },
            {
              "internalType": "uint256",
              "name": "listingTokenId",
              "type": "uint256"
            },
            {
              "internalType": "address",
              "name": "listingTokenOwner",
              "type": "address"
            },
            {
              "internalType": "uint256",
              "name": "transactionChargeBips",
              "type": "uint256"
            },
            {
              "internalType": "bool",
              "name": "isCompleted",
              "type": "bool"
            },
            {
              "internalType": "bool",
              "name": "isCancelled",
              "type": "bool"
            },
            {
              "internalType": "bool",
              "name": "isDeclined",
              "type": "bool"
            },
            {
              "internalType": "uint256",
              "name": "transactionCharge",
              "type": "uint256"
            }
          ],
          "indexed": false,
          "internalType": "struct SwapData.SwapOffer",
          "name": "offer",
          "type": "tuple"
        }
      ],
      "name": "SwapOfferUpdated",
      "type": "event"
    },
    {
      "anonymous": false,
      "inputs": [
        {
          "components": [
            {
              "internalType": "uint256",
              "name": "tradeId",
              "type": "uint256"
            },
            {
              "internalType": "uint256",
              "name": "listingId",
              "type": "uint256"
            },
            {
              "internalType": "uint256",
              "name": "offerId",
              "type": "uint256"
            }
          ],
          "indexed": false,
          "internalType": "struct SwapData.Trade",
          "name": "trade",
          "type": "tuple"
        }
      ],
      "name": "TradeAdded",
      "type": "event"
    },
    {
      "inputs": [],
      "name": "DATA_MIGRATOR",
      "outputs": [
        {
          "internalType": "bytes32",
          "name": "",
          "type": "bytes32"
        }
      ],
      "stateMutability": "view",
      "type": "function"
    },
    {
      "inputs": [],
      "name": "DATA_WRITER",
      "outputs": [
        {
          "internalType": "bytes32",
          "name": "",
          "type": "bytes32"
        }
      ],
      "stateMutability": "view",
      "type": "function"
    },
    {
      "inputs": [],
      "name": "DEFAULT_ADMIN_ROLE",
      "outputs": [
        {
          "internalType": "bytes32",
          "name": "",
          "type": "bytes32"
        }
      ],
      "stateMutability": "view",
      "type": "function"
    },
    {
      "inputs": [
        {
          "internalType": "bytes32",
          "name": "role",
          "type": "bytes32"
        }
      ],
      "name": "getRoleAdmin",
      "outputs": [
        {
          "internalType": "bytes32",
          "name": "",
          "type": "bytes32"
        }
      ],
      "stateMutability": "view",
      "type": "function"
    },
    {
      "inputs": [
        {
          "internalType": "bytes32",
          "name": "role",
          "type": "bytes32"
        },
        {
          "internalType": "address",
          "name": "account",
          "type": "address"
        }
      ],
      "name": "grantRole",
      "outputs": [],
      "stateMutability": "nonpayable",
      "type": "function"
    },
    {
      "inputs": [
        {
          "internalType": "bytes32",
          "name": "role",
          "type": "bytes32"
        },
        {
          "internalType": "address",
          "name": "account",
          "type": "address"
        }
      ],
      "name": "hasRole",
      "outputs": [
        {
          "internalType": "bool",
          "name": "",
          "type": "bool"
        }
      ],
      "stateMutability": "view",
      "type": "function"
    },
    {
      "inputs": [
        {
          "internalType": "bytes32",
          "name": "role",
          "type": "bytes32"
        },
        {
          "internalType": "address",
          "name": "account",
          "type": "address"
        }
      ],
      "name": "renounceRole",
      "outputs": [],
      "stateMutability": "nonpayable",
      "type": "function"
    },
    {
      "inputs": [
        {
          "internalType": "bytes32",
          "name": "role",
          "type": "bytes32"
        },
        {
          "internalType": "address",
          "name": "account",
          "type": "address"
        }
      ],
      "name": "revokeRole",
      "outputs": [],
      "stateMutability": "nonpayable",
      "type": "function"
    },
    {
      "inputs": [
        {
          "internalType": "bytes4",
          "name": "interfaceId",
          "type": "bytes4"
        }
      ],
      "name": "supportsInterface",
      "outputs": [
        {
          "internalType": "bool",
          "name": "",
          "type": "bool"
        }
      ],
      "stateMutability": "view",
      "type": "function"
    },
    {
      "inputs": [
        {
          "components": [
            {
              "internalType": "uint256",
              "name": "listingId",
              "type": "uint256"
            },
            {
              "internalType": "contract IERC721",
              "name": "tokenAddress",
              "type": "address"
            },
            {
              "internalType": "uint256",
              "name": "tokenId",
              "type": "uint256"
            },
            {
              "internalType": "address",
              "name": "tokenOwner",
              "type": "address"
            },
            {
              "internalType": "uint256",
              "name": "transactionChargeBips",
              "type": "uint256"
            },
            {
              "internalType": "bool",
              "name": "isCompleted",
              "type": "bool"
            },
            {
              "internalType": "bool",
              "name": "isCancelled",
              "type": "bool"
            },
            {
              "internalType": "uint256",
              "name": "transactionCharge",
              "type": "uint256"
            }
          ],
          "internalType": "struct SwapData.SwapListing",
          "name": "listing",
          "type": "tuple"
        }
      ],
      "name": "addListing",
      "outputs": [
        {
          "internalType": "bool",
          "name": "",
          "type": "bool"
        }
      ],
      "stateMutability": "nonpayable",
      "type": "function"
    },
    {
      "inputs": [
        {
          "internalType": "uint256",
          "name": "id",
          "type": "uint256"
        }
      ],
      "name": "removeListingById",
      "outputs": [
        {
          "internalType": "bool",
          "name": "",
          "type": "bool"
        }
      ],
      "stateMutability": "nonpayable",
      "type": "function"
    },
    {
      "inputs": [
        {
          "components": [
            {
              "internalType": "uint256",
              "name": "listingId",
              "type": "uint256"
            },
            {
              "internalType": "contract IERC721",
              "name": "tokenAddress",
              "type": "address"
            },
            {
              "internalType": "uint256",
              "name": "tokenId",
              "type": "uint256"
            },
            {
              "internalType": "address",
              "name": "tokenOwner",
              "type": "address"
            },
            {
              "internalType": "uint256",
              "name": "transactionChargeBips",
              "type": "uint256"
            },
            {
              "internalType": "bool",
              "name": "isCompleted",
              "type": "bool"
            },
            {
              "internalType": "bool",
              "name": "isCancelled",
              "type": "bool"
            },
            {
              "internalType": "uint256",
              "name": "transactionCharge",
              "type": "uint256"
            }
          ],
          "internalType": "struct SwapData.SwapListing",
          "name": "listing",
          "type": "tuple"
        }
      ],
      "name": "updateListing",
      "outputs": [
        {
          "internalType": "bool",
          "name": "",
          "type": "bool"
        }
      ],
      "stateMutability": "nonpayable",
      "type": "function"
    },
    {
      "inputs": [
        {
          "internalType": "uint256",
          "name": "id",
          "type": "uint256"
        }
      ],
      "name": "readListingById",
      "outputs": [
        {
          "components": [
            {
              "internalType": "uint256",
              "name": "listingId",
              "type": "uint256"
            },
            {
              "internalType": "contract IERC721",
              "name": "tokenAddress",
              "type": "address"
            },
            {
              "internalType": "uint256",
              "name": "tokenId",
              "type": "uint256"
            },
            {
              "internalType": "address",
              "name": "tokenOwner",
              "type": "address"
            },
            {
              "internalType": "uint256",
              "name": "transactionChargeBips",
              "type": "uint256"
            },
            {
              "internalType": "bool",
              "name": "isCompleted",
              "type": "bool"
            },
            {
              "internalType": "bool",
              "name": "isCancelled",
              "type": "bool"
            },
            {
              "internalType": "uint256",
              "name": "transactionCharge",
              "type": "uint256"
            }
          ],
          "internalType": "struct SwapData.SwapListing",
          "name": "",
          "type": "tuple"
        }
      ],
      "stateMutability": "view",
      "type": "function"
    },
    {
      "inputs": [
        {
          "components": [
            {
              "internalType": "uint256",
              "name": "offerId",
              "type": "uint256"
            },
            {
              "internalType": "uint256",
              "name": "listingId",
              "type": "uint256"
            },
            {
              "internalType": "contract IERC721",
              "name": "offerTokenAddress",
              "type": "address"
            },
            {
              "internalType": "uint256",
              "name": "offerTokenId",
              "type": "uint256"
            },
            {
              "internalType": "address",
              "name": "offerTokenOwner",
              "type": "address"
            },
            {
              "internalType": "contract IERC721",
              "name": "listingTokenAddress",
              "type": "address"
            },
            {
              "internalType": "uint256",
              "name": "listingTokenId",
              "type": "uint256"
            },
            {
              "internalType": "address",
              "name": "listingTokenOwner",
              "type": "address"
            },
            {
              "internalType": "uint256",
              "name": "transactionChargeBips",
              "type": "uint256"
            },
            {
              "internalType": "bool",
              "name": "isCompleted",
              "type": "bool"
            },
            {
              "internalType": "bool",
              "name": "isCancelled",
              "type": "bool"
            },
            {
              "internalType": "bool",
              "name": "isDeclined",
              "type": "bool"
            },
            {
              "internalType": "uint256",
              "name": "transactionCharge",
              "type": "uint256"
            }
          ],
          "internalType": "struct SwapData.SwapOffer",
          "name": "offer",
          "type": "tuple"
        }
      ],
      "name": "addOffer",
      "outputs": [
        {
          "internalType": "bool",
          "name": "",
          "type": "bool"
        }
      ],
      "stateMutability": "nonpayable",
      "type": "function"
    },
    {
      "inputs": [
        {
          "internalType": "uint256",
          "name": "id",
          "type": "uint256"
        }
      ],
      "name": "removeOfferById",
      "outputs": [
        {
          "internalType": "bool",
          "name": "",
          "type": "bool"
        }
      ],
      "stateMutability": "nonpayable",
      "type": "function"
    },
    {
      "inputs": [
        {
          "components": [
            {
              "internalType": "uint256",
              "name": "offerId",
              "type": "uint256"
            },
            {
              "internalType": "uint256",
              "name": "listingId",
              "type": "uint256"
            },
            {
              "internalType": "contract IERC721",
              "name": "offerTokenAddress",
              "type": "address"
            },
            {
              "internalType": "uint256",
              "name": "offerTokenId",
              "type": "uint256"
            },
            {
              "internalType": "address",
              "name": "offerTokenOwner",
              "type": "address"
            },
            {
              "internalType": "contract IERC721",
              "name": "listingTokenAddress",
              "type": "address"
            },
            {
              "internalType": "uint256",
              "name": "listingTokenId",
              "type": "uint256"
            },
            {
              "internalType": "address",
              "name": "listingTokenOwner",
              "type": "address"
            },
            {
              "internalType": "uint256",
              "name": "transactionChargeBips",
              "type": "uint256"
            },
            {
              "internalType": "bool",
              "name": "isCompleted",
              "type": "bool"
            },
            {
              "internalType": "bool",
              "name": "isCancelled",
              "type": "bool"
            },
            {
              "internalType": "bool",
              "name": "isDeclined",
              "type": "bool"
            },
            {
              "internalType": "uint256",
              "name": "transactionCharge",
              "type": "uint256"
            }
          ],
          "internalType": "struct SwapData.SwapOffer",
          "name": "offer",
          "type": "tuple"
        }
      ],
      "name": "updateOffer",
      "outputs": [
        {
          "internalType": "bool",
          "name": "",
          "type": "bool"
        }
      ],
      "stateMutability": "nonpayable",
      "type": "function"
    },
    {
      "inputs": [
        {
          "internalType": "uint256",
          "name": "id",
          "type": "uint256"
        }
      ],
      "name": "readOfferById",
      "outputs": [
        {
          "components": [
            {
              "internalType": "uint256",
              "name": "offerId",
              "type": "uint256"
            },
            {
              "internalType": "uint256",
              "name": "listingId",
              "type": "uint256"
            },
            {
              "internalType": "contract IERC721",
              "name": "offerTokenAddress",
              "type": "address"
            },
            {
              "internalType": "uint256",
              "name": "offerTokenId",
              "type": "uint256"
            },
            {
              "internalType": "address",
              "name": "offerTokenOwner",
              "type": "address"
            },
            {
              "internalType": "contract IERC721",
              "name": "listingTokenAddress",
              "type": "address"
            },
            {
              "internalType": "uint256",
              "name": "listingTokenId",
              "type": "uint256"
            },
            {
              "internalType": "address",
              "name": "listingTokenOwner",
              "type": "address"
            },
            {
              "internalType": "uint256",
              "name": "transactionChargeBips",
              "type": "uint256"
            },
            {
              "internalType": "bool",
              "name": "isCompleted",
              "type": "bool"
            },
            {
              "internalType": "bool",
              "name": "isCancelled",
              "type": "bool"
            },
            {
              "internalType": "bool",
              "name": "isDeclined",
              "type": "bool"
            },
            {
              "internalType": "uint256",
              "name": "transactionCharge",
              "type": "uint256"
            }
          ],
          "internalType": "struct SwapData.SwapOffer",
          "name": "",
          "type": "tuple"
        }
      ],
      "stateMutability": "view",
      "type": "function"
    },
    {
      "inputs": [
        {
          "components": [
            {
              "internalType": "uint256",
              "name": "tradeId",
              "type": "uint256"
            },
            {
              "internalType": "uint256",
              "name": "listingId",
              "type": "uint256"
            },
            {
              "internalType": "uint256",
              "name": "offerId",
              "type": "uint256"
            }
          ],
          "internalType": "struct SwapData.Trade",
          "name": "trade",
          "type": "tuple"
        }
      ],
      "name": "addTrade",
      "outputs": [
        {
          "internalType": "bool",
          "name": "",
          "type": "bool"
        }
      ],
      "stateMutability": "nonpayable",
      "type": "function"
    },
    {
      "inputs": [
        {
          "internalType": "uint256",
          "name": "id",
          "type": "uint256"
        }
      ],
      "name": "readTradeById",
      "outputs": [
        {
          "components": [
            {
              "internalType": "uint256",
              "name": "tradeId",
              "type": "uint256"
            },
            {
              "internalType": "uint256",
              "name": "listingId",
              "type": "uint256"
            },
            {
              "internalType": "uint256",
              "name": "offerId",
              "type": "uint256"
            }
          ],
          "internalType": "struct SwapData.Trade",
          "name": "",
          "type": "tuple"
        }
      ],
      "stateMutability": "view",
      "type": "function"
    },
    {
      "inputs": [],
      "name": "readAllListings",
      "outputs": [
        {
          "components": [
            {
              "internalType": "uint256",
              "name": "listingId",
              "type": "uint256"
            },
            {
              "internalType": "contract IERC721",
              "name": "tokenAddress",
              "type": "address"
            },
            {
              "internalType": "uint256",
              "name": "tokenId",
              "type": "uint256"
            },
            {
              "internalType": "address",
              "name": "tokenOwner",
              "type": "address"
            },
            {
              "internalType": "uint256",
              "name": "transactionChargeBips",
              "type": "uint256"
            },
            {
              "internalType": "bool",
              "name": "isCompleted",
              "type": "bool"
            },
            {
              "internalType": "bool",
              "name": "isCancelled",
              "type": "bool"
            },
            {
              "internalType": "uint256",
              "name": "transactionCharge",
              "type": "uint256"
            }
          ],
          "internalType": "struct SwapData.SwapListing[]",
          "name": "",
          "type": "tuple[]"
        }
      ],
      "stateMutability": "view",
      "type": "function"
    },
    {
      "inputs": [],
      "name": "readAllOffers",
      "outputs": [
        {
          "components": [
            {
              "internalType": "uint256",
              "name": "offerId",
              "type": "uint256"
            },
            {
              "internalType": "uint256",
              "name": "listingId",
              "type": "uint256"
            },
            {
              "internalType": "contract IERC721",
              "name": "offerTokenAddress",
              "type": "address"
            },
            {
              "internalType": "uint256",
              "name": "offerTokenId",
              "type": "uint256"
            },
            {
              "internalType": "address",
              "name": "offerTokenOwner",
              "type": "address"
            },
            {
              "internalType": "contract IERC721",
              "name": "listingTokenAddress",
              "type": "address"
            },
            {
              "internalType": "uint256",
              "name": "listingTokenId",
              "type": "uint256"
            },
            {
              "internalType": "address",
              "name": "listingTokenOwner",
              "type": "address"
            },
            {
              "internalType": "uint256",
              "name": "transactionChargeBips",
              "type": "uint256"
            },
            {
              "internalType": "bool",
              "name": "isCompleted",
              "type": "bool"
            },
            {
              "internalType": "bool",
              "name": "isCancelled",
              "type": "bool"
            },
            {
              "internalType": "bool",
              "name": "isDeclined",
              "type": "bool"
            },
            {
              "internalType": "uint256",
              "name": "transactionCharge",
              "type": "uint256"
            }
          ],
          "internalType": "struct SwapData.SwapOffer[]",
          "name": "",
          "type": "tuple[]"
        }
      ],
      "stateMutability": "view",
      "type": "function"
    },
    {
      "inputs": [],
      "name": "readAllTrades",
      "outputs": [
        {
          "components": [
            {
              "internalType": "uint256",
              "name": "tradeId",
              "type": "uint256"
            },
            {
              "internalType": "uint256",
              "name": "listingId",
              "type": "uint256"
            },
            {
              "internalType": "uint256",
              "name": "offerId",
              "type": "uint256"
            }
          ],
          "internalType": "struct SwapData.Trade[]",
          "name": "",
          "type": "tuple[]"
        }
      ],
      "stateMutability": "view",
      "type": "function"
    },
    {
      "inputs": [
        {
          "internalType": "address",
          "name": "to",
          "type": "address"
        }
      ],
      "name": "grantWriterRole",
      "outputs": [],
      "stateMutability": "nonpayable",
      "type": "function"
    }
  ],
  "bytecode": "0x60806040523480156200001157600080fd5b50604051620035ff380380620035ff8339818101604052810190620000379190620002ae565b6200004c6000801b83620000cb60201b60201c565b6200007e7f4b1f673169b7c165c16c575571c9bb3baf6244b05340a0d0c7d6ecefe1ac055b82620000cb60201b60201c565b620000956001620001bc60201b62001a331760201c565b620000ac6002620001bc60201b62001a331760201c565b620000c36003620001bc60201b62001a331760201c565b5050620002f5565b620000dd8282620001d260201b60201c565b620001b857600160008084815260200190815260200160002060000160008373ffffffffffffffffffffffffffffffffffffffff1673ffffffffffffffffffffffffffffffffffffffff16815260200190815260200160002060006101000a81548160ff0219169083151502179055506200015d6200023c60201b60201c565b73ffffffffffffffffffffffffffffffffffffffff168173ffffffffffffffffffffffffffffffffffffffff16837f2f8788117e7eff1d82e926ec794901d17c78024a50270940304540a733656f0d60405160405180910390a45b5050565b6001816000016000828254019250508190555050565b600080600084815260200190815260200160002060000160008373ffffffffffffffffffffffffffffffffffffffff1673ffffffffffffffffffffffffffffffffffffffff16815260200190815260200160002060009054906101000a900460ff16905092915050565b600033905090565b600080fd5b600073ffffffffffffffffffffffffffffffffffffffff82169050919050565b6000620002768262000249565b9050919050565b620002888162000269565b81146200029457600080fd5b50565b600081519050620002a8816200027d565b92915050565b60008060408385031215620002c857620002c762000244565b5b6000620002d88582860162000297565b9250506020620002eb8582860162000297565b9150509250929050565b6132fa80620003056000396000f3fe608060405234801561001057600080fd5b506004361061014d5760003560e01c806391d14854116100c3578063cd07708d1161007c578063cd07708d146103ee578063cf2815351461040a578063cff7c90e1461043a578063d547741f1461046a578063d7aa10fc14610486578063f022e25c146104b65761014d565b806391d14854146103045780639901ff6314610334578063a217fddf14610352578063b81603ba14610370578063bf34ebc8146103a0578063c2c83f9a146103be5761014d565b8063366505c111610115578063366505c1146102085780634168e897146102385780635541596b14610256578063636651bb1461028657806367722a22146102b65780639167be62146102d45761014d565b806301ffc9a714610152578063248a9ca3146101825780632f2ff15d146101b257806331ebe3f9146101ce57806336568abe146101ec575b600080fd5b61016c6004803603810190610167919061213a565b6104e6565b6040516101799190612182565b60405180910390f35b61019c600480360381019061019791906121d3565b610560565b6040516101a9919061220f565b60405180910390f35b6101cc60048036038101906101c79190612288565b61057f565b005b6101d66105a0565b6040516101e391906123d2565b60405180910390f35b61020660048036038101906102019190612288565b61069c565b005b610222600480360381019061021d91906125e5565b61071f565b60405161022f9190612182565b60405180910390f35b6102406108bf565b60405161024d919061220f565b60405180910390f35b610270600480360381019061026b919061274b565b6108e3565b60405161027d9190612182565b60405180910390f35b6102a0600480360381019061029b91906125e5565b610b4a565b6040516102ad9190612182565b60405180910390f35b6102be610cc8565b6040516102cb91906129b1565b60405180910390f35b6102ee60048036038101906102e9919061274b565b610f8c565b6040516102fb9190612182565b60405180910390f35b61031e60048036038101906103199190612288565b6111d1565b60405161032b9190612182565b60405180910390f35b61033c61123b565b604051610349919061220f565b60405180910390f35b61035a61125f565b604051610367919061220f565b60405180910390f35b61038a600480360381019061038591906129d3565b611266565b6040516103979190612aa2565b60405180910390f35b6103a861139e565b6040516103b59190612c10565b60405180910390f35b6103d860048036038101906103d391906129d3565b611587565b6040516103e59190612182565b60405180910390f35b61040860048036038101906104039190612c32565b611623565b005b610424600480360381019061041f91906129d3565b611650565b6040516104319190612182565b60405180910390f35b610454600480360381019061044f9190612cc3565b6116ec565b6040516104619190612182565b60405180910390f35b610484600480360381019061047f9190612288565b6117b4565b005b6104a0600480360381019061049b91906129d3565b6117d5565b6040516104ad9190612dfb565b60405180910390f35b6104d060048036038101906104cb91906129d3565b6119e8565b6040516104dd9190612e59565b60405180910390f35b60007f7965db0b000000000000000000000000000000000000000000000000000000007bffffffffffffffffffffffffffffffffffffffffffffffffffffffff1916827bffffffffffffffffffffffffffffffffffffffffffffffffffffffff19161480610559575061055882611a49565b5b9050919050565b6000806000838152602001908152602001600020600101549050919050565b61058882610560565b61059181611ab3565b61059b8383611ac7565b505050565b6060600060016105b06003611ba7565b6105ba9190612ea3565b67ffffffffffffffff8111156105d3576105d261240a565b5b60405190808252806020026020018201604052801561060c57816020015b6105f9611f77565b8152602001906001900390816105f15790505b50905060005b8151811015610694576006600060018361062c9190612ed7565b8152602001908152602001600020604051806060016040529081600082015481526020016001820154815260200160028201548152505082828151811061067657610675612f0b565b5b6020026020010181905250808061068c90612f3a565b915050610612565b508091505090565b6106a4611bb5565b73ffffffffffffffffffffffffffffffffffffffff168173ffffffffffffffffffffffffffffffffffffffff1614610711576040517f08c379a000000000000000000000000000000000000000000000000000000000815260040161070890613005565b60405180910390fd5b61071b8282611bbd565b5050565b60007f4b1f673169b7c165c16c575571c9bb3baf6244b05340a0d0c7d6ecefe1ac055b61074b81611ab3565b6107556001611ba7565b836000018181525050826004600061076d6001611ba7565b81526020019081526020016000206000820151816000015560208201518160010160006101000a81548173ffffffffffffffffffffffffffffffffffffffff021916908373ffffffffffffffffffffffffffffffffffffffff1602179055506040820151816002015560608201518160030160006101000a81548173ffffffffffffffffffffffffffffffffffffffff021916908373ffffffffffffffffffffffffffffffffffffffff1602179055506080820151816004015560a08201518160050160006101000a81548160ff02191690831515021790555060c08201518160050160016101000a81548160ff02191690831515021790555060e0820151816006015590505061087e6001611a33565b7f418cd676c9793f75ba96025aa3d745018dc4edc4b51d104cea0af0fc7b9b0d26836040516108ad9190612aa2565b60405180910390a16001915050919050565b7f11110fccdbb5d806b8301c3f7f399455c297483f76b3271f762b634da1a660d281565b60007f4b1f673169b7c165c16c575571c9bb3baf6244b05340a0d0c7d6ecefe1ac055b61090f81611ab3565b6109196002611ba7565b83600001818152505082600560006109316002611ba7565b8152602001908152602001600020600082015181600001556020820151816001015560408201518160020160006101000a81548173ffffffffffffffffffffffffffffffffffffffff021916908373ffffffffffffffffffffffffffffffffffffffff1602179055506060820151816003015560808201518160040160006101000a81548173ffffffffffffffffffffffffffffffffffffffff021916908373ffffffffffffffffffffffffffffffffffffffff16021790555060a08201518160050160006101000a81548173ffffffffffffffffffffffffffffffffffffffff021916908373ffffffffffffffffffffffffffffffffffffffff16021790555060c0820151816006015560e08201518160070160006101000a81548173ffffffffffffffffffffffffffffffffffffffff021916908373ffffffffffffffffffffffffffffffffffffffff16021790555061010082015181600801556101208201518160090160006101000a81548160ff0219169083151502179055506101408201518160090160016101000a81548160ff0219169083151502179055506101608201518160090160026101000a81548160ff02191690831515021790555061018082015181600a0155905050610b096002611a33565b7f421ea47ef6e721c8687eff283e3cae83ec79fb379ac7e5be4285c4f4c68c3e5483604051610b389190612dfb565b60405180910390a16001915050919050565b60007f4b1f673169b7c165c16c575571c9bb3baf6244b05340a0d0c7d6ecefe1ac055b610b7681611ab3565b8260046000856000015181526020019081526020016000206000820151816000015560208201518160010160006101000a81548173ffffffffffffffffffffffffffffffffffffffff021916908373ffffffffffffffffffffffffffffffffffffffff1602179055506040820151816002015560608201518160030160006101000a81548173ffffffffffffffffffffffffffffffffffffffff021916908373ffffffffffffffffffffffffffffffffffffffff1602179055506080820151816004015560a08201518160050160006101000a81548160ff02191690831515021790555060c08201518160050160016101000a81548160ff02191690831515021790555060e082015181600601559050507ffac338531d5b0b2165f434d6b3974a2d388f546fee8aae7ce385671015eeaacb83604051610cb69190612aa2565b60405180910390a16001915050919050565b606060006001610cd86002611ba7565b610ce29190612ea3565b67ffffffffffffffff811115610cfb57610cfa61240a565b5b604051908082528060200260200182016040528015610d3457816020015b610d21611f98565b815260200190600190039081610d195790505b50905060005b8151811015610f845760056000600183610d549190612ed7565b8152602001908152602001600020604051806101a001604052908160008201548152602001600182015481526020016002820160009054906101000a900473ffffffffffffffffffffffffffffffffffffffff1673ffffffffffffffffffffffffffffffffffffffff1673ffffffffffffffffffffffffffffffffffffffff168152602001600382015481526020016004820160009054906101000a900473ffffffffffffffffffffffffffffffffffffffff1673ffffffffffffffffffffffffffffffffffffffff1673ffffffffffffffffffffffffffffffffffffffff1681526020016005820160009054906101000a900473ffffffffffffffffffffffffffffffffffffffff1673ffffffffffffffffffffffffffffffffffffffff1673ffffffffffffffffffffffffffffffffffffffff168152602001600682015481526020016007820160009054906101000a900473ffffffffffffffffffffffffffffffffffffffff1673ffffffffffffffffffffffffffffffffffffffff1673ffffffffffffffffffffffffffffffffffffffff168152602001600882015481526020016009820160009054906101000a900460ff161515151581526020016009820160019054906101000a900460ff161515151581526020016009820160029054906101000a900460ff16151515158152602001600a82015481525050828281518110610f6657610f65612f0b565b5b60200260200101819052508080610f7c90612f3a565b915050610d3a565b508091505090565b60007f4b1f673169b7c165c16c575571c9bb3baf6244b05340a0d0c7d6ecefe1ac055b610fb881611ab3565b826005600085600001518152602001908152602001600020600082015181600001556020820151816001015560408201518160020160006101000a81548173ffffffffffffffffffffffffffffffffffffffff021916908373ffffffffffffffffffffffffffffffffffffffff1602179055506060820151816003015560808201518160040160006101000a81548173ffffffffffffffffffffffffffffffffffffffff021916908373ffffffffffffffffffffffffffffffffffffffff16021790555060a08201518160050160006101000a81548173ffffffffffffffffffffffffffffffffffffffff021916908373ffffffffffffffffffffffffffffffffffffffff16021790555060c0820151816006015560e08201518160070160006101000a81548173ffffffffffffffffffffffffffffffffffffffff021916908373ffffffffffffffffffffffffffffffffffffffff16021790555061010082015181600801556101208201518160090160006101000a81548160ff0219169083151502179055506101408201518160090160016101000a81548160ff0219169083151502179055506101608201518160090160026101000a81548160ff02191690831515021790555061018082015181600a01559050507f73bf10f431953401ad4adc876e49289879495ffba6b1e6fcab8499ed4fb1ef57836040516111bf9190612dfb565b60405180910390a16001915050919050565b600080600084815260200190815260200160002060000160008373ffffffffffffffffffffffffffffffffffffffff1673ffffffffffffffffffffffffffffffffffffffff16815260200190815260200160002060009054906101000a900460ff16905092915050565b7f4b1f673169b7c165c16c575571c9bb3baf6244b05340a0d0c7d6ecefe1ac055b81565b6000801b81565b61126e61205e565b6004600083815260200190815260200160002060405180610100016040529081600082015481526020016001820160009054906101000a900473ffffffffffffffffffffffffffffffffffffffff1673ffffffffffffffffffffffffffffffffffffffff1673ffffffffffffffffffffffffffffffffffffffff168152602001600282015481526020016003820160009054906101000a900473ffffffffffffffffffffffffffffffffffffffff1673ffffffffffffffffffffffffffffffffffffffff1673ffffffffffffffffffffffffffffffffffffffff168152602001600482015481526020016005820160009054906101000a900460ff161515151581526020016005820160019054906101000a900460ff161515151581526020016006820154815250509050919050565b6060600060016113ae6001611ba7565b6113b89190612ea3565b67ffffffffffffffff8111156113d1576113d061240a565b5b60405190808252806020026020018201604052801561140a57816020015b6113f761205e565b8152602001906001900390816113ef5790505b50905060005b815181101561157f576004600060018361142a9190612ed7565b815260200190815260200160002060405180610100016040529081600082015481526020016001820160009054906101000a900473ffffffffffffffffffffffffffffffffffffffff1673ffffffffffffffffffffffffffffffffffffffff1673ffffffffffffffffffffffffffffffffffffffff168152602001600282015481526020016003820160009054906101000a900473ffffffffffffffffffffffffffffffffffffffff1673ffffffffffffffffffffffffffffffffffffffff1673ffffffffffffffffffffffffffffffffffffffff168152602001600482015481526020016005820160009054906101000a900460ff161515151581526020016005820160019054906101000a900460ff1615151515815260200160068201548152505082828151811061156157611560612f0b565b5b6020026020010181905250808061157790612f3a565b915050611410565b508091505090565b60007f4b1f673169b7c165c16c575571c9bb3baf6244b05340a0d0c7d6ecefe1ac055b6115b381611ab3565b60016005600085815260200190815260200160002060090160016101000a81548160ff0219169083151502179055507f9658b6b21254e18b2df762ac28da18a17c7d65232a3985638e301b3ee8b1467e836040516116119190613034565b60405180910390a16001915050919050565b61164d7f4b1f673169b7c165c16c575571c9bb3baf6244b05340a0d0c7d6ecefe1ac055b8261057f565b50565b60007f4b1f673169b7c165c16c575571c9bb3baf6244b05340a0d0c7d6ecefe1ac055b61167c81611ab3565b60016004600085815260200190815260200160002060050160016101000a81548160ff0219169083151502179055507f3e93d23e063b84ea7cefd61949968ea1c1f2bfb0b9135599af8044766f7bce88836040516116da9190613034565b60405180910390a16001915050919050565b60007f4b1f673169b7c165c16c575571c9bb3baf6244b05340a0d0c7d6ecefe1ac055b61171881611ab3565b6117226003611ba7565b836000018181525050826006600061173a6003611ba7565b81526020019081526020016000206000820151816000015560208201518160010155604082015181600201559050506117736003611a33565b7f3e548515aa4f5661aa8f01438dcebdc27111ecdeedb4e19d9b1974fa7049149b836040516117a29190612e59565b60405180910390a16001915050919050565b6117bd82610560565b6117c681611ab3565b6117d08383611bbd565b505050565b6117dd611f98565b60056000838152602001908152602001600020604051806101a001604052908160008201548152602001600182015481526020016002820160009054906101000a900473ffffffffffffffffffffffffffffffffffffffff1673ffffffffffffffffffffffffffffffffffffffff1673ffffffffffffffffffffffffffffffffffffffff168152602001600382015481526020016004820160009054906101000a900473ffffffffffffffffffffffffffffffffffffffff1673ffffffffffffffffffffffffffffffffffffffff1673ffffffffffffffffffffffffffffffffffffffff1681526020016005820160009054906101000a900473ffffffffffffffffffffffffffffffffffffffff1673ffffffffffffffffffffffffffffffffffffffff1673ffffffffffffffffffffffffffffffffffffffff168152602001600682015481526020016007820160009054906101000a900473ffffffffffffffffffffffffffffffffffffffff1673ffffffffffffffffffffffffffffffffffffffff1673ffffffffffffffffffffffffffffffffffffffff168152602001600882015481526020016009820160009054906101000a900460ff161515151581526020016009820160019054906101000a900460ff161515151581526020016009820160029054906101000a900460ff16151515158152602001600a820154815250509050919050565b6119f0611f77565b6006600083815260200190815260200160002060405180606001604052908160008201548152602001600182015481526020016002820154815250509050919050565b6001816000016000828254019250508190555050565b60007f01ffc9a7000000000000000000000000000000000000000000000000000000007bffffffffffffffffffffffffffffffffffffffffffffffffffffffff1916827bffffffffffffffffffffffffffffffffffffffffffffffffffffffff1916149050919050565b611ac481611abf611bb5565b611c9e565b50565b611ad182826111d1565b611ba357600160008084815260200190815260200160002060000160008373ffffffffffffffffffffffffffffffffffffffff1673ffffffffffffffffffffffffffffffffffffffff16815260200190815260200160002060006101000a81548160ff021916908315150217905550611b48611bb5565b73ffffffffffffffffffffffffffffffffffffffff168173ffffffffffffffffffffffffffffffffffffffff16837f2f8788117e7eff1d82e926ec794901d17c78024a50270940304540a733656f0d60405160405180910390a45b5050565b600081600001549050919050565b600033905090565b611bc782826111d1565b15611c9a57600080600084815260200190815260200160002060000160008373ffffffffffffffffffffffffffffffffffffffff1673ffffffffffffffffffffffffffffffffffffffff16815260200190815260200160002060006101000a81548160ff021916908315150217905550611c3f611bb5565b73ffffffffffffffffffffffffffffffffffffffff168173ffffffffffffffffffffffffffffffffffffffff16837ff6391f5c32d9c69d2a47ea670b442974b53935d1edc7fd64eb21e047a839171b60405160405180910390a45b5050565b611ca882826111d1565b611d3757611ccd8173ffffffffffffffffffffffffffffffffffffffff166014611d3b565b611cdb8360001c6020611d3b565b604051602001611cec929190613158565b6040516020818303038152906040526040517f08c379a0000000000000000000000000000000000000000000000000000000008152600401611d2e91906131cb565b60405180910390fd5b5050565b606060006002836002611d4e91906131ed565b611d589190612ed7565b67ffffffffffffffff811115611d7157611d7061240a565b5b6040519080825280601f01601f191660200182016040528015611da35781602001600182028036833780820191505090505b5090507f300000000000000000000000000000000000000000000000000000000000000081600081518110611ddb57611dda612f0b565b5b60200101907effffffffffffffffffffffffffffffffffffffffffffffffffffffffffffff1916908160001a9053507f780000000000000000000000000000000000000000000000000000000000000081600181518110611e3f57611e3e612f0b565b5b60200101907effffffffffffffffffffffffffffffffffffffffffffffffffffffffffffff1916908160001a90535060006001846002611e7f91906131ed565b611e899190612ed7565b90505b6001811115611f29577f3031323334353637383961626364656600000000000000000000000000000000600f861660108110611ecb57611eca612f0b565b5b1a60f81b828281518110611ee257611ee1612f0b565b5b60200101907effffffffffffffffffffffffffffffffffffffffffffffffffffffffffffff1916908160001a905350600485901c945080611f229061322f565b9050611e8c565b5060008414611f6d576040517f08c379a0000000000000000000000000000000000000000000000000000000008152600401611f64906132a4565b60405180910390fd5b8091505092915050565b60405180606001604052806000815260200160008152602001600081525090565b604051806101a001604052806000815260200160008152602001600073ffffffffffffffffffffffffffffffffffffffff16815260200160008152602001600073ffffffffffffffffffffffffffffffffffffffff168152602001600073ffffffffffffffffffffffffffffffffffffffff16815260200160008152602001600073ffffffffffffffffffffffffffffffffffffffff16815260200160008152602001600015158152602001600015158152602001600015158152602001600081525090565b60405180610100016040528060008152602001600073ffffffffffffffffffffffffffffffffffffffff16815260200160008152602001600073ffffffffffffffffffffffffffffffffffffffff16815260200160008152602001600015158152602001600015158152602001600081525090565b6000604051905090565b600080fd5b60007fffffffff0000000000000000000000000000000000000000000000000000000082169050919050565b612117816120e2565b811461212257600080fd5b50565b6000813590506121348161210e565b92915050565b6000602082840312156121505761214f6120dd565b5b600061215e84828501612125565b91505092915050565b60008115159050919050565b61217c81612167565b82525050565b60006020820190506121976000830184612173565b92915050565b6000819050919050565b6121b08161219d565b81146121bb57600080fd5b50565b6000813590506121cd816121a7565b92915050565b6000602082840312156121e9576121e86120dd565b5b60006121f7848285016121be565b91505092915050565b6122098161219d565b82525050565b60006020820190506122246000830184612200565b92915050565b600073ffffffffffffffffffffffffffffffffffffffff82169050919050565b60006122558261222a565b9050919050565b6122658161224a565b811461227057600080fd5b50565b6000813590506122828161225c565b92915050565b6000806040838503121561229f5761229e6120dd565b5b60006122ad858286016121be565b92505060206122be85828601612273565b9150509250929050565b600081519050919050565b600082825260208201905092915050565b6000819050602082019050919050565b6000819050919050565b612307816122f4565b82525050565b60608201600082015161232360008501826122fe565b50602082015161233660208501826122fe565b50604082015161234960408501826122fe565b50505050565b600061235b838361230d565b60608301905092915050565b6000602082019050919050565b600061237f826122c8565b61238981856122d3565b9350612394836122e4565b8060005b838110156123c55781516123ac888261234f565b97506123b783612367565b925050600181019050612398565b5085935050505092915050565b600060208201905081810360008301526123ec8184612374565b905092915050565b600080fd5b6000601f19601f8301169050919050565b7f4e487b7100000000000000000000000000000000000000000000000000000000600052604160045260246000fd5b612442826123f9565b810181811067ffffffffffffffff821117156124615761246061240a565b5b80604052505050565b60006124746120d3565b90506124808282612439565b919050565b61248e816122f4565b811461249957600080fd5b50565b6000813590506124ab81612485565b92915050565b60006124bc8261224a565b9050919050565b6124cc816124b1565b81146124d757600080fd5b50565b6000813590506124e9816124c3565b92915050565b6124f881612167565b811461250357600080fd5b50565b600081359050612515816124ef565b92915050565b60006101008284031215612532576125316123f4565b5b61253d61010061246a565b9050600061254d8482850161249c565b6000830152506020612561848285016124da565b60208301525060406125758482850161249c565b604083015250606061258984828501612273565b606083015250608061259d8482850161249c565b60808301525060a06125b184828501612506565b60a08301525060c06125c584828501612506565b60c08301525060e06125d98482850161249c565b60e08301525092915050565b600061010082840312156125fc576125fb6120dd565b5b600061260a8482850161251b565b91505092915050565b60006101a0828403121561262a576126296123f4565b5b6126356101a061246a565b905060006126458482850161249c565b60008301525060206126598482850161249c565b602083015250604061266d848285016124da565b60408301525060606126818482850161249c565b606083015250608061269584828501612273565b60808301525060a06126a9848285016124da565b60a08301525060c06126bd8482850161249c565b60c08301525060e06126d184828501612273565b60e0830152506101006126e68482850161249c565b610100830152506101206126fc84828501612506565b6101208301525061014061271284828501612506565b6101408301525061016061272884828501612506565b6101608301525061018061273e8482850161249c565b6101808301525092915050565b60006101a08284031215612762576127616120dd565b5b600061277084828501612613565b91505092915050565b600081519050919050565b600082825260208201905092915050565b6000819050602082019050919050565b6000819050919050565b60006127ca6127c56127c08461222a565b6127a5565b61222a565b9050919050565b60006127dc826127af565b9050919050565b60006127ee826127d1565b9050919050565b6127fe816127e3565b82525050565b61280d8161224a565b82525050565b61281c81612167565b82525050565b6101a08201600082015161283960008501826122fe565b50602082015161284c60208501826122fe565b50604082015161285f60408501826127f5565b50606082015161287260608501826122fe565b5060808201516128856080850182612804565b5060a082015161289860a08501826127f5565b5060c08201516128ab60c08501826122fe565b5060e08201516128be60e0850182612804565b506101008201516128d36101008501826122fe565b506101208201516128e8610120850182612813565b506101408201516128fd610140850182612813565b50610160820151612912610160850182612813565b506101808201516129276101808501826122fe565b50505050565b60006129398383612822565b6101a08301905092915050565b6000602082019050919050565b600061295e82612779565b6129688185612784565b935061297383612795565b8060005b838110156129a457815161298b888261292d565b975061299683612946565b925050600181019050612977565b5085935050505092915050565b600060208201905081810360008301526129cb8184612953565b905092915050565b6000602082840312156129e9576129e86120dd565b5b60006129f78482850161249c565b91505092915050565b61010082016000820151612a1760008501826122fe565b506020820151612a2a60208501826127f5565b506040820151612a3d60408501826122fe565b506060820151612a506060850182612804565b506080820151612a6360808501826122fe565b5060a0820151612a7660a0850182612813565b5060c0820151612a8960c0850182612813565b5060e0820151612a9c60e08501826122fe565b50505050565b600061010082019050612ab86000830184612a00565b92915050565b600081519050919050565b600082825260208201905092915050565b6000819050602082019050919050565b61010082016000820151612b0160008501826122fe565b506020820151612b1460208501826127f5565b506040820151612b2760408501826122fe565b506060820151612b3a6060850182612804565b506080820151612b4d60808501826122fe565b5060a0820151612b6060a0850182612813565b5060c0820151612b7360c0850182612813565b5060e0820151612b8660e08501826122fe565b50505050565b6000612b988383612aea565b6101008301905092915050565b6000602082019050919050565b6000612bbd82612abe565b612bc78185612ac9565b9350612bd283612ada565b8060005b83811015612c03578151612bea8882612b8c565b9750612bf583612ba5565b925050600181019050612bd6565b5085935050505092915050565b60006020820190508181036000830152612c2a8184612bb2565b905092915050565b600060208284031215612c4857612c476120dd565b5b6000612c5684828501612273565b91505092915050565b600060608284031215612c7557612c746123f4565b5b612c7f606061246a565b90506000612c8f8482850161249c565b6000830152506020612ca38482850161249c565b6020830152506040612cb78482850161249c565b60408301525092915050565b600060608284031215612cd957612cd86120dd565b5b6000612ce784828501612c5f565b91505092915050565b6101a082016000820151612d0760008501826122fe565b506020820151612d1a60208501826122fe565b506040820151612d2d60408501826127f5565b506060820151612d4060608501826122fe565b506080820151612d536080850182612804565b5060a0820151612d6660a08501826127f5565b5060c0820151612d7960c08501826122fe565b5060e0820151612d8c60e0850182612804565b50610100820151612da16101008501826122fe565b50610120820151612db6610120850182612813565b50610140820151612dcb610140850182612813565b50610160820151612de0610160850182612813565b50610180820151612df56101808501826122fe565b50505050565b60006101a082019050612e116000830184612cf0565b92915050565b606082016000820151612e2d60008501826122fe565b506020820151612e4060208501826122fe565b506040820151612e5360408501826122fe565b50505050565b6000606082019050612e6e6000830184612e17565b92915050565b7f4e487b7100000000000000000000000000000000000000000000000000000000600052601160045260246000fd5b6000612eae826122f4565b9150612eb9836122f4565b9250828203905081811115612ed157612ed0612e74565b5b92915050565b6000612ee2826122f4565b9150612eed836122f4565b9250828201905080821115612f0557612f04612e74565b5b92915050565b7f4e487b7100000000000000000000000000000000000000000000000000000000600052603260045260246000fd5b6000612f45826122f4565b91507fffffffffffffffffffffffffffffffffffffffffffffffffffffffffffffffff8203612f7757612f76612e74565b5b600182019050919050565b600082825260208201905092915050565b7f416363657373436f6e74726f6c3a2063616e206f6e6c792072656e6f756e636560008201527f20726f6c657320666f722073656c660000000000000000000000000000000000602082015250565b6000612fef602f83612f82565b9150612ffa82612f93565b604082019050919050565b6000602082019050818103600083015261301e81612fe2565b9050919050565b61302e816122f4565b82525050565b60006020820190506130496000830184613025565b92915050565b600081905092915050565b7f416363657373436f6e74726f6c3a206163636f756e7420000000000000000000600082015250565b600061309060178361304f565b915061309b8261305a565b601782019050919050565b600081519050919050565b60005b838110156130cf5780820151818401526020810190506130b4565b60008484015250505050565b60006130e6826130a6565b6130f0818561304f565b93506131008185602086016130b1565b80840191505092915050565b7f206973206d697373696e6720726f6c6520000000000000000000000000000000600082015250565b600061314260118361304f565b915061314d8261310c565b601182019050919050565b600061316382613083565b915061316f82856130db565b915061317a82613135565b915061318682846130db565b91508190509392505050565b600061319d826130a6565b6131a78185612f82565b93506131b78185602086016130b1565b6131c0816123f9565b840191505092915050565b600060208201905081810360008301526131e58184613192565b905092915050565b60006131f8826122f4565b9150613203836122f4565b9250828202613211816122f4565b9150828204841483151761322857613227612e74565b5b5092915050565b600061323a826122f4565b91506000820361324d5761324c612e74565b5b600182039050919050565b7f537472696e67733a20686578206c656e67746820696e73756666696369656e74600082015250565b600061328e602083612f82565b915061329982613258565b602082019050919050565b600060208201905081810360008301526132bd81613281565b905091905056fea26469706673582212207735d3ef9b9fac4f1e8e8b9056b372522f9df6f560679929a2a2a525bb0ee8fd64736f6c63430008110033",
  "immutableReferences": {},
  "source": "// SPDX-License-Identifier: MIT\npragma solidity 0.8.17;\n\ninterface IAccessControl {\n    event RoleAdminChanged(bytes32 indexed role, bytes32 indexed previousAdminRole, bytes32 indexed newAdminRole);\n    event RoleGranted(bytes32 indexed role, address indexed account, address indexed sender);\n    event RoleRevoked(bytes32 indexed role, address indexed account, address indexed sender);\n    function hasRole(bytes32 role, address account) external view returns (bool);\n    function getRoleAdmin(bytes32 role) external view returns (bytes32);\n    function grantRole(bytes32 role, address account) external;\n    function revokeRole(bytes32 role, address account) external;\n    function renounceRole(bytes32 role, address account) external;\n}\n\nabstract contract Context {\n    function _msgSender() internal view virtual returns (address) {\n        return msg.sender;\n    }\n\n    function _msgData() internal view virtual returns (bytes calldata) {\n        return msg.data;\n    }\n}\n\nlibrary Strings {\n    bytes16 private constant _HEX_SYMBOLS = \"0123456789abcdef\";\n    uint8 private constant _ADDRESS_LENGTH = 20;\n\n    function toString(uint256 value) internal pure returns (string memory) {\n        if (value == 0) {\n            return \"0\";\n        }\n        uint256 temp = value;\n        uint256 digits;\n        while (temp != 0) {\n            digits++;\n            temp /= 10;\n        }\n        bytes memory buffer = new bytes(digits);\n        while (value != 0) {\n            digits -= 1;\n            buffer[digits] = bytes1(uint8(48 + uint256(value % 10)));\n            value /= 10;\n        }\n        return string(buffer);\n    }\n\n    function toHexString(uint256 value) internal pure returns (string memory) {\n        if (value == 0) {\n            return \"0x00\";\n        }\n        uint256 temp = value;\n        uint256 length = 0;\n        while (temp != 0) {\n            length++;\n            temp >>= 8;\n        }\n        return toHexString(value, length);\n    }\n\n    function toHexString(uint256 value, uint256 length) internal pure returns (string memory) {\n        bytes memory buffer = new bytes(2 * length + 2);\n        buffer[0] = \"0\";\n        buffer[1] = \"x\";\n        for (uint256 i = 2 * length + 1; i > 1; --i) {\n            buffer[i] = _HEX_SYMBOLS[value & 0xf];\n            value >>= 4;\n        }\n        require(value == 0, \"Strings: hex length insufficient\");\n        return string(buffer);\n    }\n\n    function toHexString(address addr) internal pure returns (string memory) {\n        return toHexString(uint256(uint160(addr)), _ADDRESS_LENGTH);\n    }\n}\n\ninterface IERC165 {\n    function supportsInterface(bytes4 interfaceId) external view returns (bool);\n}\n\nabstract contract ERC165 is IERC165 {\n    /**\n     * @dev See {IERC165-supportsInterface}.\n     */\n    function supportsInterface(bytes4 interfaceId) public view virtual override returns (bool) {\n        return interfaceId == type(IERC165).interfaceId;\n    }\n}\n\nabstract contract AccessControl is Context, IAccessControl, ERC165 {\n    struct RoleData {\n        mapping(address => bool) members;\n        bytes32 adminRole;\n    }\n\n    mapping(bytes32 => RoleData) private _roles;\n\n    bytes32 public constant DEFAULT_ADMIN_ROLE = 0x00;\n\n    modifier onlyRole(bytes32 role) {\n        _checkRole(role);\n        _;\n    }\n\n    function supportsInterface(bytes4 interfaceId) public view virtual override returns (bool) {\n        return interfaceId == type(IAccessControl).interfaceId || super.supportsInterface(interfaceId);\n    }\n\n    function hasRole(bytes32 role, address account) public view virtual override returns (bool) {\n        return _roles[role].members[account];\n    }\n\n    function _checkRole(bytes32 role) internal view virtual {\n        _checkRole(role, _msgSender());\n    }\n\n    function _checkRole(bytes32 role, address account) internal view virtual {\n        if (!hasRole(role, account)) {\n            revert(\n                string(\n                    abi.encodePacked(\n                        \"AccessControl: account \",\n                        Strings.toHexString(uint160(account), 20),\n                        \" is missing role \",\n                        Strings.toHexString(uint256(role), 32)\n                    )\n                )\n            );\n        }\n    }\n\n    function getRoleAdmin(bytes32 role) public view virtual override returns (bytes32) {\n        return _roles[role].adminRole;\n    }\n\n    function grantRole(bytes32 role, address account) public virtual override onlyRole(getRoleAdmin(role)) {\n        _grantRole(role, account);\n    }\n\n    function revokeRole(bytes32 role, address account) public virtual override onlyRole(getRoleAdmin(role)) {\n        _revokeRole(role, account);\n    }\n\n    function renounceRole(bytes32 role, address account) public virtual override {\n        require(account == _msgSender(), \"AccessControl: can only renounce roles for self\");\n\n        _revokeRole(role, account);\n    }\n\n    function _setupRole(bytes32 role, address account) internal virtual {\n        _grantRole(role, account);\n    }\n\n    function _setRoleAdmin(bytes32 role, bytes32 adminRole) internal virtual {\n        bytes32 previousAdminRole = getRoleAdmin(role);\n        _roles[role].adminRole = adminRole;\n        emit RoleAdminChanged(role, previousAdminRole, adminRole);\n    }\n\n    function _grantRole(bytes32 role, address account) internal virtual {\n        if (!hasRole(role, account)) {\n            _roles[role].members[account] = true;\n            emit RoleGranted(role, account, _msgSender());\n        }\n    }\n\n    function _revokeRole(bytes32 role, address account) internal virtual {\n        if (hasRole(role, account)) {\n            _roles[role].members[account] = false;\n            emit RoleRevoked(role, account, _msgSender());\n        }\n    }\n}\n\ninterface IERC721 is IERC165 {\n\n    event Transfer(address indexed from, address indexed to, uint256 indexed tokenId);\n    event Approval(address indexed owner, address indexed approved, uint256 indexed tokenId);\n    event ApprovalForAll(address indexed owner, address indexed operator, bool approved);\n    function balanceOf(address owner) external view returns (uint256 balance);\n    function ownerOf(uint256 tokenId) external view returns (address owner);\n    function safeTransferFrom(\n        address from,\n        address to,\n        uint256 tokenId,\n        bytes calldata data\n    ) external;\n    function safeTransferFrom(\n        address from,\n        address to,\n        uint256 tokenId\n    ) external;\n    function transferFrom(\n        address from,\n        address to,\n        uint256 tokenId\n    ) external;\n    function approve(address to, uint256 tokenId) external;\n    function setApprovalForAll(address operator, bool _approved) external;\n    function getApproved(uint256 tokenId) external view returns (address operator);\n    function isApprovedForAll(address owner, address operator) external view returns (bool);\n}\n\nlibrary Counters {\n    struct Counter {\n        // This variable should never be directly accessed by users of the library: interactions must be restricted to\n        // the library's function. As of Solidity v0.5.2, this cannot be enforced, though there is a proposal to add\n        // this feature: see https://github.com/ethereum/solidity/issues/4637\n        uint256 _value; // default: 0\n    }\n\n    function current(Counter storage counter) internal view returns (uint256) {\n        return counter._value;\n    }\n\n    function increment(Counter storage counter) internal {\n        unchecked {\n            counter._value += 1;\n        }\n    }\n\n    function decrement(Counter storage counter) internal {\n        uint256 value = counter._value;\n        require(value > 0, \"Counter: decrement overflow\");\n        unchecked {\n            counter._value = value - 1;\n        }\n    }\n\n    function reset(Counter storage counter) internal {\n        counter._value = 0;\n    }\n}\n\ncontract SwapData is AccessControl {\n    using Counters for Counters.Counter;\n\n    struct SwapListing {\n        uint256 listingId;\n        IERC721 tokenAddress;\n        uint256 tokenId;\n        address tokenOwner;\n        uint256 transactionChargeBips;\n        bool isCompleted;\n        bool isCancelled;\n        uint256 transactionCharge;\n    }\n\n    struct SwapOffer {\n        uint256 offerId;\n        uint256 listingId;\n        IERC721 offerTokenAddress;\n        uint256 offerTokenId;\n        address offerTokenOwner;\n        IERC721 listingTokenAddress;\n        uint256 listingTokenId;\n        address listingTokenOwner;\n        uint256 transactionChargeBips;\n        bool isCompleted;\n        bool isCancelled;\n        bool isDeclined;\n        uint256 transactionCharge;\n    }\n\n    struct Trade {\n        uint256 tradeId;\n        uint256 listingId;\n        uint256 offerId;\n    }\n\n    bytes32 public constant DATA_WRITER = keccak256(\"WRITE_DATA\");\n    bytes32 public constant DATA_MIGRATOR = keccak256(\"DATA_MIGRATOR\");\n\n    Counters.Counter private _listingIdTracker;\n    Counters.Counter private _offerIdTracker;\n    Counters.Counter private _tradeIdTracker;\n\n    mapping(uint256 => SwapListing) private _listings;\n    mapping(uint256 => SwapOffer) private _offers;\n    mapping(uint256 => Trade) private _trades;\n\n    event SwapListingAdded(SwapListing listing);\n    event SwapListingUpdated(SwapListing listing);\n    event SwapListingRemoved(uint256 listingId);\n    event SwapOfferAdded(SwapOffer offer);\n    event SwapOfferUpdated(SwapOffer offer);\n    event SwapOfferRemoved(uint256 id);\n    event TradeAdded(Trade trade);\n\n    constructor(\n        address admin,\n        address writer\n    ) {\n        _grantRole(DEFAULT_ADMIN_ROLE, admin); // Admin Wallet address\n        _grantRole(DATA_WRITER, writer); // Swap COntract\n        _listingIdTracker.increment();\n        _offerIdTracker.increment();\n        _tradeIdTracker.increment();\n    }\n\n    // CRUD Listing\n    function addListing(SwapListing memory listing)\n        external\n        onlyRole(DATA_WRITER)\n        returns (bool)\n    {\n        listing.listingId = _listingIdTracker.current();\n        _listings[_listingIdTracker.current()] = listing;\n        _listingIdTracker.increment();\n        emit SwapListingAdded(listing);\n        return true;\n    }\n\n    function removeListingById(uint256 id)\n        external\n        onlyRole(DATA_WRITER)\n        returns (bool)\n    {\n        _listings[id].isCancelled = true;\n        emit SwapListingRemoved(id);\n        return true;\n    }\n\n    function updateListing(SwapListing memory listing)\n        external\n        onlyRole(DATA_WRITER)\n        returns (bool)\n    {\n        _listings[listing.listingId] = listing;\n        emit SwapListingUpdated(listing);\n        return true;\n    }\n\n    function readListingById(uint256 id)\n        external\n        view\n        returns (SwapListing memory)\n    {\n        return _listings[id];\n    }\n\n    // CRUD Offer\n    function addOffer(SwapOffer memory offer)\n        external\n        onlyRole(DATA_WRITER)\n        returns (bool)\n    {\n        offer.offerId = _offerIdTracker.current();\n        _offers[_offerIdTracker.current()] = offer;\n        _offerIdTracker.increment();\n        emit SwapOfferAdded(offer);\n        return true;\n    }\n\n    function removeOfferById(uint256 id)\n        external\n        onlyRole(DATA_WRITER)\n        returns (bool)\n    {\n        _offers[id].isCancelled = true;\n        emit SwapOfferRemoved(id);\n        return true;\n    }\n\n    function updateOffer(SwapOffer memory offer)\n        external\n        onlyRole(DATA_WRITER)\n        returns (bool)\n    {\n        _offers[offer.offerId] = offer;\n        emit SwapOfferUpdated(offer);\n        return true;\n    }\n\n    function readOfferById(uint256 id)\n        external\n        view\n        returns (SwapOffer memory)\n    {\n        return _offers[id];\n    }\n\n    function addTrade(Trade memory trade)\n        external\n        onlyRole(DATA_WRITER)\n        returns (bool)\n    {\n        trade.tradeId = _tradeIdTracker.current();\n        _trades[_tradeIdTracker.current()] = trade;\n        _tradeIdTracker.increment();\n        emit TradeAdded(trade);\n        return true;\n    }\n\n    function readTradeById(uint256 id)\n        external\n        view\n        returns (Trade memory)\n    {\n        return _trades[id];\n    }\n\n    // Bulk reads\n    function readAllListings()\n        external\n        view\n        returns (SwapListing[] memory)\n    {\n        SwapListing[] memory listings = new SwapListing[](\n            _listingIdTracker.current() - 1\n        );\n        for (uint256 i = 0; i < listings.length; i++) {\n            listings[i] = _listings[i + 1];\n        }\n        return listings;\n    }\n\n    function readAllOffers()\n        external\n        view\n        returns (SwapOffer[] memory)\n    {\n        SwapOffer[] memory swapOffers = new SwapOffer[](\n            _offerIdTracker.current() - 1\n        );\n        for (uint256 i = 0; i < swapOffers.length; i++) {\n            swapOffers[i] = _offers[i + 1];\n        }\n        return swapOffers;\n    }\n\n    function readAllTrades()\n        external\n        view\n        returns (Trade[] memory)\n    {\n        Trade[] memory trades = new Trade[](_tradeIdTracker.current() - 1);\n        for (uint256 i = 0; i < trades.length; i++) {\n            trades[i] = _trades[i + 1];\n        }\n        return trades;\n    }\n\n    function grantWriterRole(address to) external {\n        grantRole(DATA_WRITER, to);\n    }\n\n}\n",
  "sourcePath": "/Users/shivam/github/nft-swap/contracts/DataFlat.sol",
  "compiler": {
    "name": "solc",
    "version": "0.8.17+commit.8df45f5f.Emscripten.clang"
  },
  "schemaVersion": "3.4.7",
  "updatedAt": "2023-01-26T16:14:50.088Z",
  "devdoc": {
    "kind": "dev",
    "methods": {
      "supportsInterface(bytes4)": {
        "details": "See {IERC165-supportsInterface}."
      }
    },
    "version": 1
  },
  "userdoc": {
    "kind": "user",
    "methods": {},
    "version": 1
  }
}