{
  "contractName": "SwapData",
  "abi": [
    {
      "inputs": [],
      "stateMutability": "nonpayable",
      "type": "constructor"
    },
    {
      "anonymous": false,
      "inputs": [
        {
          "indexed": true,
          "internalType": "bytes32",
          "name": "role",
          "type": "bytes32"
        },
        {
          "indexed": true,
          "internalType": "bytes32",
          "name": "previousAdminRole",
          "type": "bytes32"
        },
        {
          "indexed": true,
          "internalType": "bytes32",
          "name": "newAdminRole",
          "type": "bytes32"
        }
      ],
      "name": "RoleAdminChanged",
      "type": "event"
    },
    {
      "anonymous": false,
      "inputs": [
        {
          "indexed": true,
          "internalType": "bytes32",
          "name": "role",
          "type": "bytes32"
        },
        {
          "indexed": true,
          "internalType": "address",
          "name": "account",
          "type": "address"
        },
        {
          "indexed": true,
          "internalType": "address",
          "name": "sender",
          "type": "address"
        }
      ],
      "name": "RoleGranted",
      "type": "event"
    },
    {
      "anonymous": false,
      "inputs": [
        {
          "indexed": true,
          "internalType": "bytes32",
          "name": "role",
          "type": "bytes32"
        },
        {
          "indexed": true,
          "internalType": "address",
          "name": "account",
          "type": "address"
        },
        {
          "indexed": true,
          "internalType": "address",
          "name": "sender",
          "type": "address"
        }
      ],
      "name": "RoleRevoked",
      "type": "event"
    },
    {
      "inputs": [],
      "name": "DATA_MIGRATOR",
      "outputs": [
        {
          "internalType": "bytes32",
          "name": "",
          "type": "bytes32"
        }
      ],
      "stateMutability": "view",
      "type": "function"
    },
    {
      "inputs": [],
      "name": "DATA_READER",
      "outputs": [
        {
          "internalType": "bytes32",
          "name": "",
          "type": "bytes32"
        }
      ],
      "stateMutability": "view",
      "type": "function"
    },
    {
      "inputs": [],
      "name": "DATA_WRITER",
      "outputs": [
        {
          "internalType": "bytes32",
          "name": "",
          "type": "bytes32"
        }
      ],
      "stateMutability": "view",
      "type": "function"
    },
    {
      "inputs": [],
      "name": "DEFAULT_ADMIN_ROLE",
      "outputs": [
        {
          "internalType": "bytes32",
          "name": "",
          "type": "bytes32"
        }
      ],
      "stateMutability": "view",
      "type": "function"
    },
    {
      "inputs": [
        {
          "internalType": "bytes32",
          "name": "role",
          "type": "bytes32"
        }
      ],
      "name": "getRoleAdmin",
      "outputs": [
        {
          "internalType": "bytes32",
          "name": "",
          "type": "bytes32"
        }
      ],
      "stateMutability": "view",
      "type": "function"
    },
    {
      "inputs": [
        {
          "internalType": "bytes32",
          "name": "role",
          "type": "bytes32"
        },
        {
          "internalType": "address",
          "name": "account",
          "type": "address"
        }
      ],
      "name": "grantRole",
      "outputs": [],
      "stateMutability": "nonpayable",
      "type": "function"
    },
    {
      "inputs": [
        {
          "internalType": "bytes32",
          "name": "role",
          "type": "bytes32"
        },
        {
          "internalType": "address",
          "name": "account",
          "type": "address"
        }
      ],
      "name": "hasRole",
      "outputs": [
        {
          "internalType": "bool",
          "name": "",
          "type": "bool"
        }
      ],
      "stateMutability": "view",
      "type": "function"
    },
    {
      "inputs": [
        {
          "internalType": "bytes32",
          "name": "role",
          "type": "bytes32"
        },
        {
          "internalType": "address",
          "name": "account",
          "type": "address"
        }
      ],
      "name": "renounceRole",
      "outputs": [],
      "stateMutability": "nonpayable",
      "type": "function"
    },
    {
      "inputs": [
        {
          "internalType": "bytes32",
          "name": "role",
          "type": "bytes32"
        },
        {
          "internalType": "address",
          "name": "account",
          "type": "address"
        }
      ],
      "name": "revokeRole",
      "outputs": [],
      "stateMutability": "nonpayable",
      "type": "function"
    },
    {
      "inputs": [
        {
          "internalType": "bytes4",
          "name": "interfaceId",
          "type": "bytes4"
        }
      ],
      "name": "supportsInterface",
      "outputs": [
        {
          "internalType": "bool",
          "name": "",
          "type": "bool"
        }
      ],
      "stateMutability": "view",
      "type": "function"
    },
    {
      "inputs": [],
      "name": "transactionToken",
      "outputs": [
        {
          "internalType": "contract IERC20",
          "name": "",
          "type": "address"
        }
      ],
      "stateMutability": "view",
      "type": "function"
    },
    {
      "inputs": [
        {
          "components": [
            {
              "internalType": "uint256",
              "name": "listingId",
              "type": "uint256"
            },
            {
              "internalType": "contract IERC721",
              "name": "tokenAddress",
              "type": "address"
            },
            {
              "internalType": "uint256",
              "name": "tokenId",
              "type": "uint256"
            },
            {
              "internalType": "address",
              "name": "tokenOwner",
              "type": "address"
            },
            {
              "internalType": "uint256",
              "name": "transactionChargeBips",
              "type": "uint256"
            },
            {
              "internalType": "bool",
              "name": "isCompleted",
              "type": "bool"
            },
            {
              "internalType": "bool",
              "name": "isCancelled",
              "type": "bool"
            },
            {
              "internalType": "uint256",
              "name": "transactionCharge",
              "type": "uint256"
            }
          ],
          "internalType": "struct SwapData.SwapListing",
          "name": "listing",
          "type": "tuple"
        }
      ],
      "name": "addListing",
      "outputs": [
        {
          "internalType": "bool",
          "name": "",
          "type": "bool"
        }
      ],
      "stateMutability": "nonpayable",
      "type": "function"
    },
    {
      "inputs": [
        {
          "internalType": "uint256",
          "name": "id",
          "type": "uint256"
        }
      ],
      "name": "removeListingById",
      "outputs": [],
      "stateMutability": "nonpayable",
      "type": "function"
    },
    {
      "inputs": [
        {
          "components": [
            {
              "internalType": "uint256",
              "name": "listingId",
              "type": "uint256"
            },
            {
              "internalType": "contract IERC721",
              "name": "tokenAddress",
              "type": "address"
            },
            {
              "internalType": "uint256",
              "name": "tokenId",
              "type": "uint256"
            },
            {
              "internalType": "address",
              "name": "tokenOwner",
              "type": "address"
            },
            {
              "internalType": "uint256",
              "name": "transactionChargeBips",
              "type": "uint256"
            },
            {
              "internalType": "bool",
              "name": "isCompleted",
              "type": "bool"
            },
            {
              "internalType": "bool",
              "name": "isCancelled",
              "type": "bool"
            },
            {
              "internalType": "uint256",
              "name": "transactionCharge",
              "type": "uint256"
            }
          ],
          "internalType": "struct SwapData.SwapListing",
          "name": "listing",
          "type": "tuple"
        }
      ],
      "name": "updateListing",
      "outputs": [],
      "stateMutability": "nonpayable",
      "type": "function"
    },
    {
      "inputs": [
        {
          "internalType": "uint256",
          "name": "id",
          "type": "uint256"
        }
      ],
      "name": "readListingById",
      "outputs": [
        {
          "components": [
            {
              "internalType": "uint256",
              "name": "listingId",
              "type": "uint256"
            },
            {
              "internalType": "contract IERC721",
              "name": "tokenAddress",
              "type": "address"
            },
            {
              "internalType": "uint256",
              "name": "tokenId",
              "type": "uint256"
            },
            {
              "internalType": "address",
              "name": "tokenOwner",
              "type": "address"
            },
            {
              "internalType": "uint256",
              "name": "transactionChargeBips",
              "type": "uint256"
            },
            {
              "internalType": "bool",
              "name": "isCompleted",
              "type": "bool"
            },
            {
              "internalType": "bool",
              "name": "isCancelled",
              "type": "bool"
            },
            {
              "internalType": "uint256",
              "name": "transactionCharge",
              "type": "uint256"
            }
          ],
          "internalType": "struct SwapData.SwapListing",
          "name": "",
          "type": "tuple"
        }
      ],
      "stateMutability": "view",
      "type": "function"
    },
    {
      "inputs": [
        {
          "components": [
            {
              "internalType": "uint256",
              "name": "offerId",
              "type": "uint256"
            },
            {
              "internalType": "contract IERC721",
              "name": "offerTokenAddress",
              "type": "address"
            },
            {
              "internalType": "uint256",
              "name": "offerTokenId",
              "type": "uint256"
            },
            {
              "internalType": "address",
              "name": "offerTokenOwner",
              "type": "address"
            },
            {
              "internalType": "contract IERC721",
              "name": "listingTokenAddress",
              "type": "address"
            },
            {
              "internalType": "uint256",
              "name": "listingTokenId",
              "type": "uint256"
            },
            {
              "internalType": "address",
              "name": "listingTokenOwner",
              "type": "address"
            },
            {
              "internalType": "uint256",
              "name": "transactionChargeBips",
              "type": "uint256"
            },
            {
              "internalType": "bool",
              "name": "isCompleted",
              "type": "bool"
            },
            {
              "internalType": "bool",
              "name": "isCancelled",
              "type": "bool"
            },
            {
              "internalType": "uint256",
              "name": "transactionCharge",
              "type": "uint256"
            }
          ],
          "internalType": "struct SwapData.SwapOffer",
          "name": "offer",
          "type": "tuple"
        }
      ],
      "name": "addOffer",
      "outputs": [],
      "stateMutability": "nonpayable",
      "type": "function"
    },
    {
      "inputs": [
        {
          "internalType": "uint256",
          "name": "id",
          "type": "uint256"
        }
      ],
      "name": "removeOfferById",
      "outputs": [],
      "stateMutability": "nonpayable",
      "type": "function"
    },
    {
      "inputs": [
        {
          "components": [
            {
              "internalType": "uint256",
              "name": "offerId",
              "type": "uint256"
            },
            {
              "internalType": "contract IERC721",
              "name": "offerTokenAddress",
              "type": "address"
            },
            {
              "internalType": "uint256",
              "name": "offerTokenId",
              "type": "uint256"
            },
            {
              "internalType": "address",
              "name": "offerTokenOwner",
              "type": "address"
            },
            {
              "internalType": "contract IERC721",
              "name": "listingTokenAddress",
              "type": "address"
            },
            {
              "internalType": "uint256",
              "name": "listingTokenId",
              "type": "uint256"
            },
            {
              "internalType": "address",
              "name": "listingTokenOwner",
              "type": "address"
            },
            {
              "internalType": "uint256",
              "name": "transactionChargeBips",
              "type": "uint256"
            },
            {
              "internalType": "bool",
              "name": "isCompleted",
              "type": "bool"
            },
            {
              "internalType": "bool",
              "name": "isCancelled",
              "type": "bool"
            },
            {
              "internalType": "uint256",
              "name": "transactionCharge",
              "type": "uint256"
            }
          ],
          "internalType": "struct SwapData.SwapOffer",
          "name": "offer",
          "type": "tuple"
        }
      ],
      "name": "updateOffer",
      "outputs": [],
      "stateMutability": "nonpayable",
      "type": "function"
    },
    {
      "inputs": [
        {
          "internalType": "uint256",
          "name": "id",
          "type": "uint256"
        }
      ],
      "name": "readOfferById",
      "outputs": [
        {
          "components": [
            {
              "internalType": "uint256",
              "name": "offerId",
              "type": "uint256"
            },
            {
              "internalType": "contract IERC721",
              "name": "offerTokenAddress",
              "type": "address"
            },
            {
              "internalType": "uint256",
              "name": "offerTokenId",
              "type": "uint256"
            },
            {
              "internalType": "address",
              "name": "offerTokenOwner",
              "type": "address"
            },
            {
              "internalType": "contract IERC721",
              "name": "listingTokenAddress",
              "type": "address"
            },
            {
              "internalType": "uint256",
              "name": "listingTokenId",
              "type": "uint256"
            },
            {
              "internalType": "address",
              "name": "listingTokenOwner",
              "type": "address"
            },
            {
              "internalType": "uint256",
              "name": "transactionChargeBips",
              "type": "uint256"
            },
            {
              "internalType": "bool",
              "name": "isCompleted",
              "type": "bool"
            },
            {
              "internalType": "bool",
              "name": "isCancelled",
              "type": "bool"
            },
            {
              "internalType": "uint256",
              "name": "transactionCharge",
              "type": "uint256"
            }
          ],
          "internalType": "struct SwapData.SwapOffer",
          "name": "",
          "type": "tuple"
        }
      ],
      "stateMutability": "view",
      "type": "function"
    },
    {
      "inputs": [
        {
          "components": [
            {
              "internalType": "uint256",
              "name": "tradeId",
              "type": "uint256"
            },
            {
              "internalType": "uint256",
              "name": "listingId",
              "type": "uint256"
            },
            {
              "internalType": "uint256",
              "name": "offerId",
              "type": "uint256"
            }
          ],
          "internalType": "struct SwapData.Trade",
          "name": "trade",
          "type": "tuple"
        }
      ],
      "name": "addTrade",
      "outputs": [],
      "stateMutability": "nonpayable",
      "type": "function"
    },
    {
      "inputs": [
        {
          "internalType": "uint256",
          "name": "id",
          "type": "uint256"
        }
      ],
      "name": "readTradeById",
      "outputs": [
        {
          "components": [
            {
              "internalType": "uint256",
              "name": "tradeId",
              "type": "uint256"
            },
            {
              "internalType": "uint256",
              "name": "listingId",
              "type": "uint256"
            },
            {
              "internalType": "uint256",
              "name": "offerId",
              "type": "uint256"
            }
          ],
          "internalType": "struct SwapData.Trade",
          "name": "",
          "type": "tuple"
        }
      ],
      "stateMutability": "view",
      "type": "function"
    },
    {
      "inputs": [],
      "name": "readAllListings",
      "outputs": [
        {
          "components": [
            {
              "internalType": "uint256",
              "name": "listingId",
              "type": "uint256"
            },
            {
              "internalType": "contract IERC721",
              "name": "tokenAddress",
              "type": "address"
            },
            {
              "internalType": "uint256",
              "name": "tokenId",
              "type": "uint256"
            },
            {
              "internalType": "address",
              "name": "tokenOwner",
              "type": "address"
            },
            {
              "internalType": "uint256",
              "name": "transactionChargeBips",
              "type": "uint256"
            },
            {
              "internalType": "bool",
              "name": "isCompleted",
              "type": "bool"
            },
            {
              "internalType": "bool",
              "name": "isCancelled",
              "type": "bool"
            },
            {
              "internalType": "uint256",
              "name": "transactionCharge",
              "type": "uint256"
            }
          ],
          "internalType": "struct SwapData.SwapListing[]",
          "name": "",
          "type": "tuple[]"
        }
      ],
      "stateMutability": "view",
      "type": "function"
    },
    {
      "inputs": [],
      "name": "readAllOffers",
      "outputs": [
        {
          "components": [
            {
              "internalType": "uint256",
              "name": "offerId",
              "type": "uint256"
            },
            {
              "internalType": "contract IERC721",
              "name": "offerTokenAddress",
              "type": "address"
            },
            {
              "internalType": "uint256",
              "name": "offerTokenId",
              "type": "uint256"
            },
            {
              "internalType": "address",
              "name": "offerTokenOwner",
              "type": "address"
            },
            {
              "internalType": "contract IERC721",
              "name": "listingTokenAddress",
              "type": "address"
            },
            {
              "internalType": "uint256",
              "name": "listingTokenId",
              "type": "uint256"
            },
            {
              "internalType": "address",
              "name": "listingTokenOwner",
              "type": "address"
            },
            {
              "internalType": "uint256",
              "name": "transactionChargeBips",
              "type": "uint256"
            },
            {
              "internalType": "bool",
              "name": "isCompleted",
              "type": "bool"
            },
            {
              "internalType": "bool",
              "name": "isCancelled",
              "type": "bool"
            },
            {
              "internalType": "uint256",
              "name": "transactionCharge",
              "type": "uint256"
            }
          ],
          "internalType": "struct SwapData.SwapOffer[]",
          "name": "",
          "type": "tuple[]"
        }
      ],
      "stateMutability": "view",
      "type": "function"
    },
    {
      "inputs": [],
      "name": "readAllTrades",
      "outputs": [
        {
          "components": [
            {
              "internalType": "uint256",
              "name": "tradeId",
              "type": "uint256"
            },
            {
              "internalType": "uint256",
              "name": "listingId",
              "type": "uint256"
            },
            {
              "internalType": "uint256",
              "name": "offerId",
              "type": "uint256"
            }
          ],
          "internalType": "struct SwapData.Trade[]",
          "name": "",
          "type": "tuple[]"
        }
      ],
      "stateMutability": "view",
      "type": "function"
    }
  ],
  "bytecode": "0x60806040523480156200001157600080fd5b50620000366000801b6200002a6200008160201b60201c565b6200008960201b60201c565b6200004d60016200017a60201b620018821760201c565b6200006460026200017a60201b620018821760201c565b6200007b60036200017a60201b620018821760201c565b620001fa565b600033905090565b6200009b82826200019060201b60201c565b6200017657600160008084815260200190815260200160002060000160008373ffffffffffffffffffffffffffffffffffffffff1673ffffffffffffffffffffffffffffffffffffffff16815260200190815260200160002060006101000a81548160ff0219169083151502179055506200011b6200008160201b60201c565b73ffffffffffffffffffffffffffffffffffffffff168173ffffffffffffffffffffffffffffffffffffffff16837f2f8788117e7eff1d82e926ec794901d17c78024a50270940304540a733656f0d60405160405180910390a45b5050565b6001816000016000828254019250508190555050565b600080600084815260200190815260200160002060000160008373ffffffffffffffffffffffffffffffffffffffff1673ffffffffffffffffffffffffffffffffffffffff16815260200190815260200160002060009054906101000a900460ff16905092915050565b61306a806200020a6000396000f3fe608060405234801561001057600080fd5b50600436106101585760003560e01c8063a217fddf116100c3578063cf2815351161007c578063cf281535146103c9578063cff7c90e146103e5578063d547741f14610401578063d7aa10fc1461041d578063ece633ce1461044d578063f022e25c1461046957610158565b8063a217fddf14610305578063a745314f14610323578063b81603ba14610341578063bf34ebc814610371578063c2c83f9a1461038f578063ca588f5d146103ab57610158565b8063366505c111610115578063366505c11461022f5780634168e8971461025f578063636651bb1461027d57806367722a221461029957806391d14854146102b75780639901ff63146102e757610158565b806301ffc9a71461015d578063248a9ca31461018d5780632f2ff15d146101bd5780633068bb73146101d957806331ebe3f9146101f557806336568abe14610213575b600080fd5b61017760048036038101906101729190611f79565b610499565b6040516101849190611fc1565b60405180910390f35b6101a760048036038101906101a29190612012565b610513565b6040516101b4919061204e565b60405180910390f35b6101d760048036038101906101d291906120c7565b610532565b005b6101f360048036038101906101ee9190612344565b610553565b005b6101fd61072d565b60405161020a9190612472565b60405180910390f35b61022d600480360381019061022891906120c7565b610844565b005b6102496004803603810190610244919061255e565b6108c7565b6040516102569190611fc1565b60405180910390f35b610267610a30565b604051610274919061204e565b60405180910390f35b6102976004803603810190610292919061255e565b610a54565b005b6102a1610b93565b6040516102ae919061279a565b60405180910390f35b6102d160048036038101906102cc91906120c7565b610e4d565b6040516102de9190611fc1565b60405180910390f35b6102ef610eb7565b6040516102fc919061204e565b60405180910390f35b61030d610edb565b60405161031a919061204e565b60405180910390f35b61032b610ee2565b60405161033891906127dd565b60405180910390f35b61035b600480360381019061035691906127f8565b610f08565b60405161036891906128c7565b60405180910390f35b61037961106b565b6040516103869190612a35565b60405180910390f35b6103a960048036038101906103a491906127f8565b61126f565b005b6103b36112cc565b6040516103c0919061204e565b60405180910390f35b6103e360048036038101906103de91906127f8565b6112f0565b005b6103ff60048036038101906103fa9190612abb565b61134d565b005b61041b600480360381019061041691906120c7565b6113d6565b005b610437600480360381019061043291906127f8565b6113f7565b6040516104449190612bc9565b60405180910390f35b61046760048036038101906104629190612344565b611610565b005b610483600480360381019061047e91906127f8565b61180c565b6040516104909190612c27565b60405180910390f35b60007f7965db0b000000000000000000000000000000000000000000000000000000007bffffffffffffffffffffffffffffffffffffffffffffffffffffffff1916827bffffffffffffffffffffffffffffffffffffffffffffffffffffffff1916148061050c575061050b82611898565b5b9050919050565b6000806000838152602001908152602001600020600101549050919050565b61053b82610513565b61054481611902565b61054e8383611916565b505050565b7f4b1f673169b7c165c16c575571c9bb3baf6244b05340a0d0c7d6ecefe1ac055b61057d81611902565b8160056000846000015181526020019081526020016000206000820151816000015560208201518160010160006101000a81548173ffffffffffffffffffffffffffffffffffffffff021916908373ffffffffffffffffffffffffffffffffffffffff1602179055506040820151816002015560608201518160030160006101000a81548173ffffffffffffffffffffffffffffffffffffffff021916908373ffffffffffffffffffffffffffffffffffffffff16021790555060808201518160040160006101000a81548173ffffffffffffffffffffffffffffffffffffffff021916908373ffffffffffffffffffffffffffffffffffffffff16021790555060a0820151816005015560c08201518160060160006101000a81548173ffffffffffffffffffffffffffffffffffffffff021916908373ffffffffffffffffffffffffffffffffffffffff16021790555060e082015181600701556101008201518160080160006101000a81548160ff0219169083151502179055506101208201518160080160016101000a81548160ff02191690831515021790555061014082015181600901559050505050565b60607f4058f830d0090d0e7e9292f564bc012c14c180ba909a24148ff08776bb49d7e561075981611902565b600061076560036119f6565b67ffffffffffffffff81111561077e5761077d61211d565b5b6040519080825280602002602001820160405280156107b757816020015b6107a4611dc6565b81526020019060019003908161079c5790505b50905060005b6107c760036119f6565b81101561083b5760066000828152602001908152602001600020604051806060016040529081600082015481526020016001820154815260200160028201548152505082828151811061081d5761081c612c42565b5b6020026020010181905250808061083390612ca0565b9150506107bd565b50809250505090565b61084c611a04565b73ffffffffffffffffffffffffffffffffffffffff168173ffffffffffffffffffffffffffffffffffffffff16146108b9576040517f08c379a00000000000000000000000000000000000000000000000000000000081526004016108b090612d6b565b60405180910390fd5b6108c38282611a0c565b5050565b60007f4b1f673169b7c165c16c575571c9bb3baf6244b05340a0d0c7d6ecefe1ac055b6108f381611902565b6108fd60016119f6565b836000018181525050826004600061091560016119f6565b81526020019081526020016000206000820151816000015560208201518160010160006101000a81548173ffffffffffffffffffffffffffffffffffffffff021916908373ffffffffffffffffffffffffffffffffffffffff1602179055506040820151816002015560608201518160030160006101000a81548173ffffffffffffffffffffffffffffffffffffffff021916908373ffffffffffffffffffffffffffffffffffffffff1602179055506080820151816004015560a08201518160050160006101000a81548160ff02191690831515021790555060c08201518160050160016101000a81548160ff02191690831515021790555060e08201518160060155905050610a266001611882565b6001915050919050565b7f11110fccdbb5d806b8301c3f7f399455c297483f76b3271f762b634da1a660d281565b7f4b1f673169b7c165c16c575571c9bb3baf6244b05340a0d0c7d6ecefe1ac055b610a7e81611902565b8160046000846000015181526020019081526020016000206000820151816000015560208201518160010160006101000a81548173ffffffffffffffffffffffffffffffffffffffff021916908373ffffffffffffffffffffffffffffffffffffffff1602179055506040820151816002015560608201518160030160006101000a81548173ffffffffffffffffffffffffffffffffffffffff021916908373ffffffffffffffffffffffffffffffffffffffff1602179055506080820151816004015560a08201518160050160006101000a81548160ff02191690831515021790555060c08201518160050160016101000a81548160ff02191690831515021790555060e082015181600601559050505050565b60607f4058f830d0090d0e7e9292f564bc012c14c180ba909a24148ff08776bb49d7e5610bbf81611902565b6000610bcb60026119f6565b67ffffffffffffffff811115610be457610be361211d565b5b604051908082528060200260200182016040528015610c1d57816020015b610c0a611de7565b815260200190600190039081610c025790505b50905060005b610c2d60026119f6565b811015610e44576005600082815260200190815260200160002060405180610160016040529081600082015481526020016001820160009054906101000a900473ffffffffffffffffffffffffffffffffffffffff1673ffffffffffffffffffffffffffffffffffffffff1673ffffffffffffffffffffffffffffffffffffffff168152602001600282015481526020016003820160009054906101000a900473ffffffffffffffffffffffffffffffffffffffff1673ffffffffffffffffffffffffffffffffffffffff1673ffffffffffffffffffffffffffffffffffffffff1681526020016004820160009054906101000a900473ffffffffffffffffffffffffffffffffffffffff1673ffffffffffffffffffffffffffffffffffffffff1673ffffffffffffffffffffffffffffffffffffffff168152602001600582015481526020016006820160009054906101000a900473ffffffffffffffffffffffffffffffffffffffff1673ffffffffffffffffffffffffffffffffffffffff1673ffffffffffffffffffffffffffffffffffffffff168152602001600782015481526020016008820160009054906101000a900460ff161515151581526020016008820160019054906101000a900460ff16151515158152602001600982015481525050828281518110610e2657610e25612c42565b5b60200260200101819052508080610e3c90612ca0565b915050610c23565b50809250505090565b600080600084815260200190815260200160002060000160008373ffffffffffffffffffffffffffffffffffffffff1673ffffffffffffffffffffffffffffffffffffffff16815260200190815260200160002060009054906101000a900460ff16905092915050565b7f4b1f673169b7c165c16c575571c9bb3baf6244b05340a0d0c7d6ecefe1ac055b81565b6000801b81565b600760009054906101000a900473ffffffffffffffffffffffffffffffffffffffff1681565b610f10611e9d565b7f4058f830d0090d0e7e9292f564bc012c14c180ba909a24148ff08776bb49d7e5610f3a81611902565b6004600084815260200190815260200160002060405180610100016040529081600082015481526020016001820160009054906101000a900473ffffffffffffffffffffffffffffffffffffffff1673ffffffffffffffffffffffffffffffffffffffff1673ffffffffffffffffffffffffffffffffffffffff168152602001600282015481526020016003820160009054906101000a900473ffffffffffffffffffffffffffffffffffffffff1673ffffffffffffffffffffffffffffffffffffffff1673ffffffffffffffffffffffffffffffffffffffff168152602001600482015481526020016005820160009054906101000a900460ff161515151581526020016005820160019054906101000a900460ff16151515158152602001600682015481525050915050919050565b60607f4058f830d0090d0e7e9292f564bc012c14c180ba909a24148ff08776bb49d7e561109781611902565b60006110a360016119f6565b67ffffffffffffffff8111156110bc576110bb61211d565b5b6040519080825280602002602001820160405280156110f557816020015b6110e2611e9d565b8152602001906001900390816110da5790505b50905060005b61110560016119f6565b811015611266576004600082815260200190815260200160002060405180610100016040529081600082015481526020016001820160009054906101000a900473ffffffffffffffffffffffffffffffffffffffff1673ffffffffffffffffffffffffffffffffffffffff1673ffffffffffffffffffffffffffffffffffffffff168152602001600282015481526020016003820160009054906101000a900473ffffffffffffffffffffffffffffffffffffffff1673ffffffffffffffffffffffffffffffffffffffff1673ffffffffffffffffffffffffffffffffffffffff168152602001600482015481526020016005820160009054906101000a900460ff161515151581526020016005820160019054906101000a900460ff1615151515815260200160068201548152505082828151811061124857611247612c42565b5b6020026020010181905250808061125e90612ca0565b9150506110fb565b50809250505090565b7f4b1f673169b7c165c16c575571c9bb3baf6244b05340a0d0c7d6ecefe1ac055b61129981611902565b60016005600084815260200190815260200160002060080160016101000a81548160ff0219169083151502179055505050565b7f4058f830d0090d0e7e9292f564bc012c14c180ba909a24148ff08776bb49d7e581565b7f4b1f673169b7c165c16c575571c9bb3baf6244b05340a0d0c7d6ecefe1ac055b61131a81611902565b60016004600084815260200190815260200160002060050160016101000a81548160ff0219169083151502179055505050565b7f4b1f673169b7c165c16c575571c9bb3baf6244b05340a0d0c7d6ecefe1ac055b61137781611902565b61138160036119f6565b826000018181525050816006600061139960036119f6565b81526020019081526020016000206000820151816000015560208201518160010155604082015181600201559050506113d26003611882565b5050565b6113df82610513565b6113e881611902565b6113f28383611a0c565b505050565b6113ff611de7565b7f4058f830d0090d0e7e9292f564bc012c14c180ba909a24148ff08776bb49d7e561142981611902565b6005600084815260200190815260200160002060405180610160016040529081600082015481526020016001820160009054906101000a900473ffffffffffffffffffffffffffffffffffffffff1673ffffffffffffffffffffffffffffffffffffffff1673ffffffffffffffffffffffffffffffffffffffff168152602001600282015481526020016003820160009054906101000a900473ffffffffffffffffffffffffffffffffffffffff1673ffffffffffffffffffffffffffffffffffffffff1673ffffffffffffffffffffffffffffffffffffffff1681526020016004820160009054906101000a900473ffffffffffffffffffffffffffffffffffffffff1673ffffffffffffffffffffffffffffffffffffffff1673ffffffffffffffffffffffffffffffffffffffff168152602001600582015481526020016006820160009054906101000a900473ffffffffffffffffffffffffffffffffffffffff1673ffffffffffffffffffffffffffffffffffffffff1673ffffffffffffffffffffffffffffffffffffffff168152602001600782015481526020016008820160009054906101000a900460ff161515151581526020016008820160019054906101000a900460ff16151515158152602001600982015481525050915050919050565b7f4b1f673169b7c165c16c575571c9bb3baf6244b05340a0d0c7d6ecefe1ac055b61163a81611902565b61164460026119f6565b826000018181525050816005600061165c60026119f6565b81526020019081526020016000206000820151816000015560208201518160010160006101000a81548173ffffffffffffffffffffffffffffffffffffffff021916908373ffffffffffffffffffffffffffffffffffffffff1602179055506040820151816002015560608201518160030160006101000a81548173ffffffffffffffffffffffffffffffffffffffff021916908373ffffffffffffffffffffffffffffffffffffffff16021790555060808201518160040160006101000a81548173ffffffffffffffffffffffffffffffffffffffff021916908373ffffffffffffffffffffffffffffffffffffffff16021790555060a0820151816005015560c08201518160060160006101000a81548173ffffffffffffffffffffffffffffffffffffffff021916908373ffffffffffffffffffffffffffffffffffffffff16021790555060e082015181600701556101008201518160080160006101000a81548160ff0219169083151502179055506101208201518160080160016101000a81548160ff02191690831515021790555061014082015181600901559050506118086002611882565b5050565b611814611dc6565b7f4058f830d0090d0e7e9292f564bc012c14c180ba909a24148ff08776bb49d7e561183e81611902565b600660008481526020019081526020016000206040518060600160405290816000820154815260200160018201548152602001600282015481525050915050919050565b6001816000016000828254019250508190555050565b60007f01ffc9a7000000000000000000000000000000000000000000000000000000007bffffffffffffffffffffffffffffffffffffffffffffffffffffffff1916827bffffffffffffffffffffffffffffffffffffffffffffffffffffffff1916149050919050565b6119138161190e611a04565b611aed565b50565b6119208282610e4d565b6119f257600160008084815260200190815260200160002060000160008373ffffffffffffffffffffffffffffffffffffffff1673ffffffffffffffffffffffffffffffffffffffff16815260200190815260200160002060006101000a81548160ff021916908315150217905550611997611a04565b73ffffffffffffffffffffffffffffffffffffffff168173ffffffffffffffffffffffffffffffffffffffff16837f2f8788117e7eff1d82e926ec794901d17c78024a50270940304540a733656f0d60405160405180910390a45b5050565b600081600001549050919050565b600033905090565b611a168282610e4d565b15611ae957600080600084815260200190815260200160002060000160008373ffffffffffffffffffffffffffffffffffffffff1673ffffffffffffffffffffffffffffffffffffffff16815260200190815260200160002060006101000a81548160ff021916908315150217905550611a8e611a04565b73ffffffffffffffffffffffffffffffffffffffff168173ffffffffffffffffffffffffffffffffffffffff16837ff6391f5c32d9c69d2a47ea670b442974b53935d1edc7fd64eb21e047a839171b60405160405180910390a45b5050565b611af78282610e4d565b611b8657611b1c8173ffffffffffffffffffffffffffffffffffffffff166014611b8a565b611b2a8360001c6020611b8a565b604051602001611b3b929190612e94565b6040516020818303038152906040526040517f08c379a0000000000000000000000000000000000000000000000000000000008152600401611b7d9190612f07565b60405180910390fd5b5050565b606060006002836002611b9d9190612f29565b611ba79190612f6b565b67ffffffffffffffff811115611bc057611bbf61211d565b5b6040519080825280601f01601f191660200182016040528015611bf25781602001600182028036833780820191505090505b5090507f300000000000000000000000000000000000000000000000000000000000000081600081518110611c2a57611c29612c42565b5b60200101907effffffffffffffffffffffffffffffffffffffffffffffffffffffffffffff1916908160001a9053507f780000000000000000000000000000000000000000000000000000000000000081600181518110611c8e57611c8d612c42565b5b60200101907effffffffffffffffffffffffffffffffffffffffffffffffffffffffffffff1916908160001a90535060006001846002611cce9190612f29565b611cd89190612f6b565b90505b6001811115611d78577f3031323334353637383961626364656600000000000000000000000000000000600f861660108110611d1a57611d19612c42565b5b1a60f81b828281518110611d3157611d30612c42565b5b60200101907effffffffffffffffffffffffffffffffffffffffffffffffffffffffffffff1916908160001a905350600485901c945080611d7190612f9f565b9050611cdb565b5060008414611dbc576040517f08c379a0000000000000000000000000000000000000000000000000000000008152600401611db390613014565b60405180910390fd5b8091505092915050565b60405180606001604052806000815260200160008152602001600081525090565b60405180610160016040528060008152602001600073ffffffffffffffffffffffffffffffffffffffff16815260200160008152602001600073ffffffffffffffffffffffffffffffffffffffff168152602001600073ffffffffffffffffffffffffffffffffffffffff16815260200160008152602001600073ffffffffffffffffffffffffffffffffffffffff16815260200160008152602001600015158152602001600015158152602001600081525090565b60405180610100016040528060008152602001600073ffffffffffffffffffffffffffffffffffffffff16815260200160008152602001600073ffffffffffffffffffffffffffffffffffffffff16815260200160008152602001600015158152602001600015158152602001600081525090565b6000604051905090565b600080fd5b60007fffffffff0000000000000000000000000000000000000000000000000000000082169050919050565b611f5681611f21565b8114611f6157600080fd5b50565b600081359050611f7381611f4d565b92915050565b600060208284031215611f8f57611f8e611f1c565b5b6000611f9d84828501611f64565b91505092915050565b60008115159050919050565b611fbb81611fa6565b82525050565b6000602082019050611fd66000830184611fb2565b92915050565b6000819050919050565b611fef81611fdc565b8114611ffa57600080fd5b50565b60008135905061200c81611fe6565b92915050565b60006020828403121561202857612027611f1c565b5b600061203684828501611ffd565b91505092915050565b61204881611fdc565b82525050565b6000602082019050612063600083018461203f565b92915050565b600073ffffffffffffffffffffffffffffffffffffffff82169050919050565b600061209482612069565b9050919050565b6120a481612089565b81146120af57600080fd5b50565b6000813590506120c18161209b565b92915050565b600080604083850312156120de576120dd611f1c565b5b60006120ec85828601611ffd565b92505060206120fd858286016120b2565b9150509250929050565b600080fd5b6000601f19601f8301169050919050565b7f4e487b7100000000000000000000000000000000000000000000000000000000600052604160045260246000fd5b6121558261210c565b810181811067ffffffffffffffff821117156121745761217361211d565b5b80604052505050565b6000612187611f12565b9050612193828261214c565b919050565b6000819050919050565b6121ab81612198565b81146121b657600080fd5b50565b6000813590506121c8816121a2565b92915050565b60006121d982612089565b9050919050565b6121e9816121ce565b81146121f457600080fd5b50565b600081359050612206816121e0565b92915050565b61221581611fa6565b811461222057600080fd5b50565b6000813590506122328161220c565b92915050565b6000610160828403121561224f5761224e612107565b5b61225a61016061217d565b9050600061226a848285016121b9565b600083015250602061227e848285016121f7565b6020830152506040612292848285016121b9565b60408301525060606122a6848285016120b2565b60608301525060806122ba848285016121f7565b60808301525060a06122ce848285016121b9565b60a08301525060c06122e2848285016120b2565b60c08301525060e06122f6848285016121b9565b60e08301525061010061230b84828501612223565b6101008301525061012061232184828501612223565b61012083015250610140612337848285016121b9565b6101408301525092915050565b6000610160828403121561235b5761235a611f1c565b5b600061236984828501612238565b91505092915050565b600081519050919050565b600082825260208201905092915050565b6000819050602082019050919050565b6123a781612198565b82525050565b6060820160008201516123c3600085018261239e565b5060208201516123d6602085018261239e565b5060408201516123e9604085018261239e565b50505050565b60006123fb83836123ad565b60608301905092915050565b6000602082019050919050565b600061241f82612372565b612429818561237d565b93506124348361238e565b8060005b8381101561246557815161244c88826123ef565b975061245783612407565b925050600181019050612438565b5085935050505092915050565b6000602082019050818103600083015261248c8184612414565b905092915050565b600061010082840312156124ab576124aa612107565b5b6124b661010061217d565b905060006124c6848285016121b9565b60008301525060206124da848285016121f7565b60208301525060406124ee848285016121b9565b6040830152506060612502848285016120b2565b6060830152506080612516848285016121b9565b60808301525060a061252a84828501612223565b60a08301525060c061253e84828501612223565b60c08301525060e0612552848285016121b9565b60e08301525092915050565b6000610100828403121561257557612574611f1c565b5b600061258384828501612494565b91505092915050565b600081519050919050565b600082825260208201905092915050565b6000819050602082019050919050565b6000819050919050565b60006125dd6125d86125d384612069565b6125b8565b612069565b9050919050565b60006125ef826125c2565b9050919050565b6000612601826125e4565b9050919050565b612611816125f6565b82525050565b61262081612089565b82525050565b61262f81611fa6565b82525050565b6101608201600082015161264c600085018261239e565b50602082015161265f6020850182612608565b506040820151612672604085018261239e565b5060608201516126856060850182612617565b5060808201516126986080850182612608565b5060a08201516126ab60a085018261239e565b5060c08201516126be60c0850182612617565b5060e08201516126d160e085018261239e565b506101008201516126e6610100850182612626565b506101208201516126fb610120850182612626565b5061014082015161271061014085018261239e565b50505050565b60006127228383612635565b6101608301905092915050565b6000602082019050919050565b60006127478261258c565b6127518185612597565b935061275c836125a8565b8060005b8381101561278d5781516127748882612716565b975061277f8361272f565b925050600181019050612760565b5085935050505092915050565b600060208201905081810360008301526127b4818461273c565b905092915050565b60006127c7826125e4565b9050919050565b6127d7816127bc565b82525050565b60006020820190506127f260008301846127ce565b92915050565b60006020828403121561280e5761280d611f1c565b5b600061281c848285016121b9565b91505092915050565b6101008201600082015161283c600085018261239e565b50602082015161284f6020850182612608565b506040820151612862604085018261239e565b5060608201516128756060850182612617565b506080820151612888608085018261239e565b5060a082015161289b60a0850182612626565b5060c08201516128ae60c0850182612626565b5060e08201516128c160e085018261239e565b50505050565b6000610100820190506128dd6000830184612825565b92915050565b600081519050919050565b600082825260208201905092915050565b6000819050602082019050919050565b61010082016000820151612926600085018261239e565b5060208201516129396020850182612608565b50604082015161294c604085018261239e565b50606082015161295f6060850182612617565b506080820151612972608085018261239e565b5060a082015161298560a0850182612626565b5060c082015161299860c0850182612626565b5060e08201516129ab60e085018261239e565b50505050565b60006129bd838361290f565b6101008301905092915050565b6000602082019050919050565b60006129e2826128e3565b6129ec81856128ee565b93506129f7836128ff565b8060005b83811015612a28578151612a0f88826129b1565b9750612a1a836129ca565b9250506001810190506129fb565b5085935050505092915050565b60006020820190508181036000830152612a4f81846129d7565b905092915050565b600060608284031215612a6d57612a6c612107565b5b612a77606061217d565b90506000612a87848285016121b9565b6000830152506020612a9b848285016121b9565b6020830152506040612aaf848285016121b9565b60408301525092915050565b600060608284031215612ad157612ad0611f1c565b5b6000612adf84828501612a57565b91505092915050565b61016082016000820151612aff600085018261239e565b506020820151612b126020850182612608565b506040820151612b25604085018261239e565b506060820151612b386060850182612617565b506080820151612b4b6080850182612608565b5060a0820151612b5e60a085018261239e565b5060c0820151612b7160c0850182612617565b5060e0820151612b8460e085018261239e565b50610100820151612b99610100850182612626565b50610120820151612bae610120850182612626565b50610140820151612bc361014085018261239e565b50505050565b600061016082019050612bdf6000830184612ae8565b92915050565b606082016000820151612bfb600085018261239e565b506020820151612c0e602085018261239e565b506040820151612c21604085018261239e565b50505050565b6000606082019050612c3c6000830184612be5565b92915050565b7f4e487b7100000000000000000000000000000000000000000000000000000000600052603260045260246000fd5b7f4e487b7100000000000000000000000000000000000000000000000000000000600052601160045260246000fd5b6000612cab82612198565b91507fffffffffffffffffffffffffffffffffffffffffffffffffffffffffffffffff8203612cdd57612cdc612c71565b5b600182019050919050565b600082825260208201905092915050565b7f416363657373436f6e74726f6c3a2063616e206f6e6c792072656e6f756e636560008201527f20726f6c657320666f722073656c660000000000000000000000000000000000602082015250565b6000612d55602f83612ce8565b9150612d6082612cf9565b604082019050919050565b60006020820190508181036000830152612d8481612d48565b9050919050565b600081905092915050565b7f416363657373436f6e74726f6c3a206163636f756e7420000000000000000000600082015250565b6000612dcc601783612d8b565b9150612dd782612d96565b601782019050919050565b600081519050919050565b60005b83811015612e0b578082015181840152602081019050612df0565b60008484015250505050565b6000612e2282612de2565b612e2c8185612d8b565b9350612e3c818560208601612ded565b80840191505092915050565b7f206973206d697373696e6720726f6c6520000000000000000000000000000000600082015250565b6000612e7e601183612d8b565b9150612e8982612e48565b601182019050919050565b6000612e9f82612dbf565b9150612eab8285612e17565b9150612eb682612e71565b9150612ec28284612e17565b91508190509392505050565b6000612ed982612de2565b612ee38185612ce8565b9350612ef3818560208601612ded565b612efc8161210c565b840191505092915050565b60006020820190508181036000830152612f218184612ece565b905092915050565b6000612f3482612198565b9150612f3f83612198565b9250828202612f4d81612198565b91508282048414831517612f6457612f63612c71565b5b5092915050565b6000612f7682612198565b9150612f8183612198565b9250828201905080821115612f9957612f98612c71565b5b92915050565b6000612faa82612198565b915060008203612fbd57612fbc612c71565b5b600182039050919050565b7f537472696e67733a20686578206c656e67746820696e73756666696369656e74600082015250565b6000612ffe602083612ce8565b915061300982612fc8565b602082019050919050565b6000602082019050818103600083015261302d81612ff1565b905091905056fea2646970667358221220c74a84990e5411cb3eb1eea66494064a999038dafaac2fca27251a8fcea514a864736f6c63430008110033",
  "immutableReferences": {},
  "source": "//SPDX-License-Identifier: MIT\npragma solidity 0.8.17;\n\nimport \"@openzeppelin/contracts/access/AccessControl.sol\";\nimport \"@openzeppelin/contracts/token/ERC721/IERC721.sol\";\nimport \"@openzeppelin/contracts/token/ERC20/IERC20.sol\";\nimport \"@openzeppelin/contracts/utils/Counters.sol\";\n\ncontract SwapData is AccessControl {\n    using Counters for Counters.Counter;\n\n    struct SwapListing {\n        uint256 listingId;\n        IERC721 tokenAddress;\n        uint256 tokenId;\n        address tokenOwner;\n        uint256 transactionChargeBips;\n        bool isCompleted;\n        bool isCancelled;\n        uint256 transactionCharge;\n    }\n\n    struct SwapOffer {\n        uint256 offerId;\n        IERC721 offerTokenAddress;\n        uint256 offerTokenId;\n        address offerTokenOwner;\n        IERC721 listingTokenAddress;\n        uint256 listingTokenId;\n        address listingTokenOwner;\n        uint256 transactionChargeBips;\n        bool isCompleted;\n        bool isCancelled;\n        uint256 transactionCharge;\n    }\n\n    struct Trade {\n        uint256 tradeId;\n        uint256 listingId;\n        uint256 offerId;\n    }\n\n    bytes32 public constant DATA_READER = keccak256(\"READ_DATA\");\n    bytes32 public constant DATA_WRITER = keccak256(\"WRITE_DATA\");\n    bytes32 public constant DATA_MIGRATOR = keccak256(\"DATA_MIGRATOR\");\n\n    Counters.Counter private _listingIdTracker;\n    Counters.Counter private _offerIdTracker;\n    Counters.Counter private _tradeIdTracker;\n\n    mapping(uint256 => SwapListing) private _listings;\n    mapping(uint256 => SwapOffer) private _offers;\n    mapping(uint256 => Trade) private _trades;\n\n    constructor() {\n        _grantRole(DEFAULT_ADMIN_ROLE, _msgSender()); // Admin Wallet address\n        _listingIdTracker.increment();\n        _offerIdTracker.increment();\n        _tradeIdTracker.increment();\n    }\n\n    // CRUD Listing\n    function addListing(SwapListing memory listing)\n        external\n        onlyRole(DATA_WRITER)\n        returns (bool)\n    {\n        listing.listingId = _listingIdTracker.current();\n        _listings[_listingIdTracker.current()] = listing;\n        _listingIdTracker.increment();\n        return true;\n    }\n\n    function removeListingById(uint256 id) external onlyRole(DATA_WRITER) {\n        _listings[id].isCancelled = true;\n    }\n\n    function updateListing(SwapListing memory listing)\n        external\n        onlyRole(DATA_WRITER)\n    {\n        _listings[listing.listingId] = listing;\n    }\n\n    function readListingById(uint256 id)\n        external\n        view\n        onlyRole(DATA_READER)\n        returns (SwapListing memory)\n    {\n        return _listings[id];\n    }\n\n    // CRUD Offer\n    function addOffer(SwapOffer memory offer) external onlyRole(DATA_WRITER) {\n        offer.offerId = _offerIdTracker.current();\n        _offers[_offerIdTracker.current()] = offer;\n        _offerIdTracker.increment();\n    }\n\n    function removeOfferById(uint256 id) external onlyRole(DATA_WRITER) {\n        _offers[id].isCancelled = true;\n    }\n\n    function updateOffer(SwapOffer memory offer)\n        external\n        onlyRole(DATA_WRITER)\n    {\n        _offers[offer.offerId] = offer;\n    }\n\n    function readOfferById(uint256 id)\n        external\n        view\n        onlyRole(DATA_READER)\n        returns (SwapOffer memory)\n    {\n        return _offers[id];\n    }\n\n    function addTrade(Trade memory trade) external onlyRole(DATA_WRITER) {\n        trade.tradeId = _tradeIdTracker.current();\n        _trades[_tradeIdTracker.current()] = trade;\n        _tradeIdTracker.increment();\n    }\n\n    function readTradeById(uint256 id)\n        external\n        view\n        onlyRole(DATA_READER)\n        returns (Trade memory)\n    {\n        return _trades[id];\n    }\n\n    // Bulk reads\n    function readAllListings()\n        external\n        view\n        onlyRole(DATA_READER)\n        returns (SwapListing[] memory)\n    {\n        SwapListing[] memory listings = new SwapListing[](\n            _listingIdTracker.current()\n        );\n        for (uint256 i = 0; i < _listingIdTracker.current(); i++) {\n            listings[i] = _listings[i];\n        }\n        return listings;\n    }\n\n    function readAllOffers()\n        external\n        view\n        onlyRole(DATA_READER)\n        returns (SwapOffer[] memory)\n    {\n        SwapOffer[] memory swapOffers = new SwapOffer[](\n            _offerIdTracker.current()\n        );\n        for (uint256 i = 0; i < _offerIdTracker.current(); i++) {\n            swapOffers[i] = _offers[i];\n        }\n        return swapOffers;\n    }\n\n    function readAllTrades()\n        external\n        view\n        onlyRole(DATA_READER)\n        returns (Trade[] memory)\n    {\n        Trade[] memory trades = new Trade[](_tradeIdTracker.current());\n        for (uint256 i = 0; i < _tradeIdTracker.current(); i++) {\n            trades[i] = _trades[i];\n        }\n        return trades;\n    }\n\n    IERC20 public transactionToken;\n}\n",
  "sourcePath": "/Users/shivam/github/nft-swap/contracts/SwapData.sol",
  "compiler": {
    "name": "solc",
    "version": "0.8.17+commit.8df45f5f.Emscripten.clang"
  },
  "schemaVersion": "3.4.7",
  "updatedAt": "2022-09-27T12:07:22.263Z",
  "devdoc": {
    "kind": "dev",
    "methods": {
      "getRoleAdmin(bytes32)": {
        "details": "Returns the admin role that controls `role`. See {grantRole} and {revokeRole}. To change a role's admin, use {_setRoleAdmin}."
      },
      "grantRole(bytes32,address)": {
        "details": "Grants `role` to `account`. If `account` had not been already granted `role`, emits a {RoleGranted} event. Requirements: - the caller must have ``role``'s admin role. May emit a {RoleGranted} event."
      },
      "hasRole(bytes32,address)": {
        "details": "Returns `true` if `account` has been granted `role`."
      },
      "renounceRole(bytes32,address)": {
        "details": "Revokes `role` from the calling account. Roles are often managed via {grantRole} and {revokeRole}: this function's purpose is to provide a mechanism for accounts to lose their privileges if they are compromised (such as when a trusted device is misplaced). If the calling account had been revoked `role`, emits a {RoleRevoked} event. Requirements: - the caller must be `account`. May emit a {RoleRevoked} event."
      },
      "revokeRole(bytes32,address)": {
        "details": "Revokes `role` from `account`. If `account` had been granted `role`, emits a {RoleRevoked} event. Requirements: - the caller must have ``role``'s admin role. May emit a {RoleRevoked} event."
      },
      "supportsInterface(bytes4)": {
        "details": "See {IERC165-supportsInterface}."
      }
    },
    "version": 1
  },
  "userdoc": {
    "kind": "user",
    "methods": {},
    "version": 1
  }
}